:100000000C94DD030C9415040C9415040C94150445
:100010000C9415040C9415040C9415040C941504FC
:100020000C9415040C9415040C9419170C94551683
:100030000C94681A0C9415040C9415040C94150473
:100040000C9415040C9415040C9415040C941504CC
:100050000C9415040C9447180C9415040C94150476
:100060000C9415040C9415040C9415040C941504AC
:100070000C9415040C9415040C9415040C9415049C
:100080000C9415040C9415040C9415040C9415048C
:100090000C9415040C9415040C9415040C9415047C
:1000A0000C9415040C9415040C9415046B05E405CC
:1000B000ED05F505FE0506060F061706E908E90831
:1000C00018091809D20AAC09D20AD20AB7092B0AB0
:1000D0003C0A3C0A4506E405ED05F505FE05060665
:1000E0000F061706DC10F610FC102D122D1234111D
:1000F0004511581199119E112D122D122D12A61174
:100100005B148214371682143716CE14F114371686
:10011000F2150216FD377A585A000004E6D6B446A6
:100120000200210116000000742FE5A3E001BA00CF
:10013000D15D003D8889C65436C3174FE4EF0FBA2E
:1001400005F6E42125FF4D4BEFC04D1523653373B4
:10015000C2D58D9A0F078516F146C9965794F7E6D2
:1001600019DCC2B64C3D2C81A28548F44585224B52
:1001700067036F2D4D4A76B30043E685E05F6A6AF8
:10018000A21A4AD9AA0685640FF6D3A6F50A61B267
:100190006B61A87CC74F964AED01C7631D122CD135
:1001A00028087C95D88160E61BE030ED7883233504
:1001B0002494B88F01B1DDADCCB0C9664DB1F61F46
:1001C000340696EE0E66A99251E7244507353707A7
:1001D000E0C2F0AEC1048AFD53C6F26F2968BF0BBE
:1001E0002AB24E3FD3E1AEEE314F4BF954A05170DD
:1001F00031D15036F5602FEB19B867C458D98064F7
:10020000448CEF040000000015B2482D801511F851
:100210000001ED01BB030000F382DA9CB1C467FB6F
:10022000020000000004595A05010902A1018502DB
:100230000901A100050919012905150025019505E8
:1002400075018102950175038101050109300931AC
:100250001581257F95027508810609381581257F4E
:10026000950175088106050C0A38021581257F95D0
:100270000175088106C0C005010906A101850605B2
:100280000719E029E7150025019508750181020588
:1002900007190029EF1500250195F0750181020568
:1002A00008190129059505750191029501750391BC
:1002B00001C00660FF0961A1010962150026FF0067
:1002C0009520750881020963150026FF00952075A9
:1002D000089102C005010906A101050719E029E7F7
:1002E00015002501950875018102950175088101A8
:1002F0000507190029FF150026FF009506750881DE
:1003000000050819012905950575019102950175EA
:10031000039101C009025B00030100A0FA09040077
:100320000001030101000921110100012240000721
:10033000058103080001090401000203000000090F
:10034000211101000122220007058203200001077C
:100350000503032000010904020001030000000955
:100360002111010001228A000705840320000112E7
:1003700001000200000008504B411102000102037D
:10038000011C037600690061006C003A00660036CB
:100390000034006300320062003300630000000E8E
:1003A0000342004D003400300056003200000018B7
:1003B000034B005000200052006500700075006281
:1003C000006C0069006300000004030904001000D1
:1003D0002000110121001202220013032300140443
:1003E0002400150525001606260017072700180803
:1003F0002800190929001A0A2A001B0B2B0040307B
:1004000050004131510042325200433353004434D2
:100410005400453555004636560047375700483892
:100420005800493959004A3A5A004B3B5B0070600A
:100430008000716181007262820073638300746462
:100440008400756585007666860077678700786822
:100450008800796989007A6A8A007B6B8B00A0909A
:10046000B000A191B100A292B200A393B300A494F2
:10047000B400A595B500A797B700A898B800A999AA
:10048000B900AA9ABA00AB9BBB2B0014001A000853
:1004900000150017001C0018000C00120013002AA1
:1004A00000290004001600070009000A000B000DD7
:1004B000000E000F0033003400E1001D001B000699
:1004C0000019000500110010003600370038002820
:1004D000003900E000E200E30001512C00000002BE
:1004E000515000510052004F00005CC25CC35CC51B
:1004F0005CC65CC75CC85CC95CCA5C0100A65DA741
:100500005D01001E001F00200021002200230024A6
:1005100000250026002700010035021E021F0220D0
:1005200002210222022302240225022602270201BE
:10053000002D002E002F00300031000100000001CE
:1005400000010001004B004E00010001000100010C
:100550000001000100010001000100010001000193
:100560000001000100010001000100010001000183
:100570000001000100010001000100010001000173
:100580000001000100010001000100010001000163
:100590000001000100010001000100010000000154
:1005A0000001000100010001000100010001000143
:1005B0000001000100010001000100010001000133
:1005C0000001000100010001000100010001000123
:1005D0000001000100010001000100010001000113
:1005E0000001000100010001000100010001000103
:1005F00000010001000100010001000100000001F4
:1006000000010001000100010000000000000000E6
:1006100000000000000000000000000000000000DA
:10062000000000000000000000000000007E0F003D
:10063000D4FFFFFFC70000007800000000000000AA
:10064000002A2B280000000000000000000000002D
:100650000000000029000000002C1E34202122246C
:10066000342627252E362D3738271E1F20212223FA
:100670002425263333362E37381F0405060708098C
:100680000A0B0C0D0E0F1011121314151617181952
:100690001A1B1C1D2F3130232D35040506070809B0
:1006A0000A0B0C0D0E0F1011121314151617181932
:1006B0001A1B1C1D2F3130354C00010101010101B5
:1006C0000101010202020202020202020303030309
:1006D00003030303040404040404040505050505D9
:1006E0000606060606070707070708080808090997
:1006F00009090A0A0A0B0B0B0C0C0C0D0D0D0E0E42
:100700000E0F0F0F101011111112121313141415D4
:100710001516161717181819191A1A1B1B1C1D1D48
:100720001E1E1F202021222223242425262627289E
:1007300029292A2B2C2D2D2E2F30313232333435CE
:10074000363738393A3B3C3D3E3F404142434445D1
:10075000464748494A4C4D4E4F50515354555658B0
:10076000595A5B5D5E5F616264656668696B6C6D5A
:100770006F7072737577787A7B7D7E8082838587D0
:10078000888A8C8E8F91939596989A9C9EA0A2A30E
:10079000A5A7A9ABADAFB1B3B5B7BABCBEC0C2C413
:1007A000C6C9CBCDCFD1D4D6D8DBDDDFE2E4E7E9D3
:1007B000EBEEF0F3F5F8FAFDFF0011241FBECFEFCA
:1007C000DAE0DEBFCDBF04B603FE18C08091FD05A0
:1007D0009091FE05A091FF05B09100068730904BE7
:1007E000A740B04B59F41092FD051092FE051092EF
:1007F000FF0510920006E0E0F8E3099512E0A0E0A2
:10080000B1E0ECEDFAE602C005900D92A430B1071C
:10081000D9F725E0A4E0B2E001C01D92AD3FB207D8
:10082000E1F70E94610B0C946C350C9400006F9200
:100830007F928F929F92AF92BF92CF92DF92EF9270
:10084000FF920F931F93CF93DF93CDB7DEB7299716
:100850000FB6F894DEBF0FBECDBFFC018081918141
:1008600023813481232B31F09F3F31F491E08F3F7E
:1008700019F403C091E001C090E090FD0DC77F0125
:1008800085E0DE01119601900D928A95E1F7D7017E
:1008900012962C9189819A81222349F00E9457292E
:1008A000182F682F89819A810E94842B03C00E948F
:1008B000542B182F69817A81812F0E946F1C8C0123
:1008C000F7018281811106C0D70112968C918111A6
:1008D0003EC018C180910C0190910D010196A1F3C9
:1008E0003CE2C32E34E0D32EA12CB12C9924939456
:1008F00080910C0190910D018A159B052CF3F60156
:1009000086818823E9F0818592850817190739F4D3
:1009100080912A0490912B040817190789F0D601B9
:100920001F969C921F971C961C930E931B97C601B3
:100930000E94411BC60106960E94FA1A10922904D1
:10094000BFEFAB1ABB0AE6E1CE0ED11CD1CFC80176
:1009500082519F45409708F0ADC08FEF93E00E9411
:1009600093348111BCC0025127EFA22EBB24B39453
:10097000002379F0A114F4E0BF0609F4B0C0C5016A
:100980000E949334811101C001502FEFA21AB20AC4
:10099000EFCF1E821F8218861986CC24CA94850147
:1009A0000F5F1F4FC5010E9493348E831F828823DF
:1009B00009F495C0813009F078C0450182E0880EC5
:1009C000911CC8010E949334D82E8F83882309F488
:1009D00086C08FEF8D0D833050F40E5F1F4FC40122
:1009E0000E9493348887811160C05801D8CF8BEF63
:1009F0008D0D833070F5350193E0690E711CC401D3
:100A00000E9493348887811102C08301EECF850153
:100A10000C5F1F4FC3010E9493348987882329F3F9
:100A2000288539852130AFEF3A0718F0922F80E002
:100A300001C0C901B6E0DB1631F0E7E0DE1631F0A7
:100A40000E94961ED2CF0E944A1ECFCF0E94A41DA4
:100A5000CCCFF4E0DF1611F08401C7CFC4010E94AF
:100A60009334D82E85010C5F1F4FC50103960E9459
:100A70009334DD20A1F1882391F1282F30E021501B
:100A80003109C29EA001C39E500D11248D2D90E00E
:100A90000197840F951F019708F4A7CFAFE9BFE036
:100AA0001197F1F700C00000F6CFCE0106960E9424
:100AB000E42F9BCF0031EFE51E0739F00131FFE550
:100AC0001F0709F0E5C082E001C081E00E94C12B50
:100AD0000E94032D04C0F70182818111D6C080914C
:100AE0006805877009F4D8C5D70112968C918823C0
:100AF00009F4D2C580912A0282FDCEC582E00E940F
:100B00003127CAC50031FFE51F0721F481E00E94AB
:100B1000B52BDECF01312FE5120711F482E0F7CFBC
:100B2000680127E5D21A8FEFC816D10411F008F03A
:100B300040C065E174E08C2D0E94761B892BC9F5BD
:100B400086E18C9DF0018D9DF00D1124E45DFB4F3D
:100B500086818130C9F48091150490911604892B07
:100B600041F18091170490911804892B11F1809123
:100B7000190490911A04892BE1F480911B0490913F
:100B80001C04892B49F015C0823099F48091190416
:100B900090911A04892B69F026E12C9DC0012D9DAE
:100BA000900D1124845D9B4FDC0150961C920E9495
:100BB000411BF801E65AFD45E830F10508F06FC029
:100BC000EA5AFF4F0C942035D70112968C91882356
:100BD00009F485CF0E941D2182CFF70182818823ED
:100BE00009F47DCF0E94561A7ACFD70112968C91C4
:100BF000882309F474CF0E944D1A71CFF7018281C6
:100C0000882309F46CCF0E94411A69CFD70112964C
:100C10008C91882309F463CF0E94351A60CFF701C5
:100C20008281882309F45BCF0E94291A58CFD7010B
:100C300012968C91882399F10E941D1A30C0D70119
:100C400012968C918111CFC006318CE5180709F4FA
:100C500025C28091280482720A3CFCE51F0709F432
:100C600009C508F05AC2053C9CE5190709F4EEC411
:100C700008F0C0C4033CBCE51B0709F4DDC408F060
:100C8000E0C4023C1C4509F058C20E94272127CF2E
:100C9000F801E65AFD45E830F10508F4A5C4C8019D
:100CA00097558F3F910511F008F054C020910C0129
:100CB00030910D012817390724F490930D0180938A
:100CC0000C01F701228136E1389F5001399FB00CA9
:100CD0001124C501845D9B4F6C01DC0150962C935F
:100CE0005097928116968C911697992341F11A96F6
:100CF0001C930E9319978F5F16968C930E948818F9
:100D0000F6019687858780918B05878390912904CA
:100D100080912804892B80870190F081E02D309705
:100D200049F0D60154966D917C915597C5018E5C22
:100D30009B4F099510932B0400932A040BC0882322
:100D400049F0F6018189882329F0C5018E5C9B4F0B
:100D50000E94FA1A033FFCE51F0769F198F4083D69
:100D60008CE51807F9F0093D9CE51907B1F1073D3D
:100D7000ACE51A0709F063CF06E221EE41EE67ED1C
:100D80007CE515C0053FBCE51B0709F1D0F0063F27
:100D9000FCE51F0709F053CF07E225EE46EE66EFAC
:100DA0007CE505C007E225EE45EE68ED7CE5C70170
:100DB0000E94311D94CE06E221EE40EE63EF7CE509
:100DC000F6CF07E225EE44EE64EF7CE5F0CF06E2D5
:100DD00021EE42EE65EF7CE5EACF08E221E045EE48
:100DE00069ED7CE5E4CF109227040330BDE51B07D5
:100DF00058F40A3FECE51E0780F4C80182509C4578
:100E0000449708F035C109C00136FDE51F0729F0F8
:100E1000053A2DE5120709F02BC10E948B2690930D
:100E20002A028093290201318CE5180709F4C6C013
:100E300008F042C00930ACE51A0709F49BC000F580
:100E40000530ECE51E0709F485C078F403302CE585
:100E5000120709F478C008F07AC002301C4509F086
:100E6000F7C0809129028160F1C00730ACE51A0714
:100E700009F478C008F07AC0809129028061E6C048
:100E80000D30ECE51E0709F487C058F40B302CE553
:100E9000120709F479C008F07BC0809129028860AC
:100EA0006FC00F309CE5190709F480C008F082C0BC
:100EB00080912902877FCAC00D3FBCE51B0709F45A
:100EC00071C000F50531FCE51F0709F485C068F421
:100ED00003318CE5180709F475C008F095C00E942D
:100EE000D02B809129028F77B1C00B3FACE51A0758
:100EF000A9F108F054C00A3F1C4509F0A9C080912F
:100F00002A0240C00130FDE51F0709F489C058F4EA
:100F10000F3F8CE5180709F45AC008F069C08091AA
:100F20002A0282602FC00136ADE51A0709F47EC09F
:100F3000053ABDE51B0709F483C002301D4509F0E1
:100F400087C060E06EC08091290282607FC080917E
:100F5000290216C080912902886078C080912A02F7
:100F600082604FC080912902806270C08091290206
:100F700080646CC00E94D02B80912902806866C07A
:100F8000846064C081603DC0809129028E7F5EC014
:100F9000809129028D7F5AC08091290216C08091CC
:100FA0002A0218C080912A028D7F2BC080912902CD
:100FB0008F7E4CC0809129028F7D48C0809129028C
:100FC0008F7B44C080912902877F8B7F3FC08091B7
:100FD0002A028D7F8E7F15C08091290282FB2227F5
:100FE00020F991E0922790FB82F990FB83F92EC0C3
:100FF00080912A02982F909591708E7F892B90FB7B
:1010000081F980932A0224C00E94D02B809129026A
:1010100087FB222720F991E0922790FB87F916C0E1
:1010200061E08EE090E00E94B13412C0809129020C
:1010300084FB222720F991E0922790FB84F906C0D7
:1010400080912902982F909590FB80F98093290236
:101050006091290210912A0284E090E00E94B1344C
:10106000612F82E290E00E94B1340E94D02B37CDF4
:101070000631BCE51B07F9F4809128048A7A91E0D7
:1010800009F490E090930602882311F065E301C013
:1010900069E28DE095E00E94B91A0AC080910602CB
:1010A000882309F4A5C265E38DE095E00E94911ABA
:1010B0000E94E72714CD0A35FDE51F0741F150F4E2
:1010C00001158CE51807A9F00E3D1C45B1F50E94ED
:1010D000A72605CD0B35ADE51A07D9F00C351D4512
:1010E00061F580912A0282FB882780F991E08927A7
:1010F00011C00E94D02BEFEFF4E32CE0E150F04060
:101100002040E1F700C000000E942318E8CC81E0F5
:1011100001C080E00E944E2710C00E3CECE51E0787
:1011200009F4B6C208F478C2063DACE51A0708F423
:101130007DC20D351D4509F4D2CCF70182810081B5
:101140001181882349F0C8010E945729D82E682FA1
:10115000C8010E94842B04C0C8010E94542BD82EC1
:10116000B8018D2D0E946F1C0E9410258C01A82EA5
:10117000F701C280D580D2949FE0D9228091680582
:101180008770B9F0CC20A9F0812F807F803421F0C6
:1011900080E2800F883068F080912A0282FD09C0C9
:1011A00082E00E943127809168058770BB24B39448
:1011B0008111B12C912E92948FE09822892D90E08C
:1011C0008C30910508F0EEC1FC01E25AFF4F0C94FF
:1011D0002035812F807F1F70882311F01295107F9A
:1011E000CC20B9F0112309F4CAC180E2800F883005
:1011F00010F0A11006C080912804182B1093280429
:1012000005C080912904182B109329040E94E72718
:10121000B6C1802F0E94072C112309F4C3C1005EC0
:10122000812F083068F1AA2059F10E941C272AC09A
:10123000812F807F1F70803211F01295107FAA20BD
:1012400029F0F1E0AF1609F45BC066C080912A0274
:1012500082FF1BC0CC2069F0112339F08091280453
:10126000182B109328040E94E72780E00E945C2C32
:1012700099C180E00E94072C112309F493C1812FAA
:101280000E9423270E94E7278DC1CC2031F1DD2069
:10129000F1F021E0D2120FC080918B05182B1817A6
:1012A00009F480C10E94881890938A05809389056B
:1012B00010938B0577C185E0D81209C00E941127D1
:1012C000809165051817A9F11093650532C08091CA
:1012D0008B05812B0E94FD2B65C1DD2051F091E033
:1012E000D9120AC080912804812309F45BC10E94AD
:1012F0006B270E9411272CC0A5E0DA12FACF52C149
:10130000CC2029F0B5E0BD1508F44CC112C0E4E0D2
:10131000ED1508F447C11CC0CC2069F0DD2049F070
:10132000D70115968C91159780FF29C18F7015965E
:101330008C93812FCFCFDD2059F0093309F02FC1D5
:10134000BFEFE7EEF3E0B150E040F040E1F725C138
:10135000812F0E94F62B26C1802FCC2019F00E94ED
:10136000F63202C00E942E320E945E3321C1812FCC
:101370008370A9F5C1101AC1402F42954695477058
:10138000440F440F802F8F7090E09C01042E01C009
:10139000220F0A94EAF704FF08C08FE090E001C032
:1013A000880F4A95EAF7809501C080E0169516955A
:1013B0001370123069F088F490918C05113019F097
:1013C000822B892302C0922B892B0E94CC2BEEC04A
:1013D000822B90918C058927F8CF822BF6CFCC20D9
:1013E00019F0812F817001C08695882309F4DEC031
:1013F000402F429546954770440F440F802F8F70C1
:1014000090E09C01042E01C0220F0A94EAF704FF29
:1014100008C08FE090E001C0880F4A95EAF78095F8
:1014200001C080E0169516951370123059F078F4CB
:101430009091E805113019F0822B892309C0922B75
:10144000892B06C0822B9091E805892701C0822B49
:101450000E94B12BABC01F70CC2039F0812F0E94AD
:10146000C12B802F0E94FD2BA1C0802F0E94F62B44
:10147000812F0E94B52B9AC0802F22EFA21689F1EE
:101480002A1538F090EFA91659F0A1EFAA1611F11C
:1014900071C0B3EFAB1661F1E4EFAE16B9F06AC0FC
:1014A000CC2079F0F4E0FD1508F47CC01F7181E0D8
:1014B00090E001C0880F1A95EAF79091E805892716
:1014C00021C025E02D1508F46DC0F0CF80912A02CF
:1014D00082FF1BC0CC2039F0812F8F710E94C12B5D
:1014E00061C0CC20C9F3812F8F710E94B52B5AC0E7
:1014F000CC2039F01F7181E001C0880F1A95EAF7FE
:1015000001C080E00E94B12B4DC0CC20D9F0809169
:1015100065050E942327809168058770843039F41F
:101520000E942A27812F8F710E94B52B5BC084E017
:101530008D1508F457C01F71812F0E94C12B63E0E5
:10154000812F11C09091280480916505892B80938B
:10155000280494E09D1550F40E942A270E946B27CE
:1015600064E0812F8F710E944D283CC081E00E9471
:10157000312738C0CC2029F0DD2009F4ADCF802FF1
:1015800075CEDD2009F4AFCF893349F4AFEFB7EE64
:10159000E3E0A150B040E040E1F700C00000802F40
:1015A0000E94072C88EF890D843010F40E94EE1AF7
:1015B000BB2009F471C08091680580FD6DC0D70122
:1015C00012961C928595859585950E94C12BC70121
:1015D0000E941704809168058595859585950E94E0
:1015E000B52B5AC0B12CE2CFE659FF4F0C942035F1
:1015F00069E25ACD073C2CE5120791F160F1083CF5
:10160000ACE51A0791F1093C1C4509F096CD4DE176
:101610005AE169E27AE137C00C3C2CE5120779F116
:10162000A8F544E958E162EA78E12DC0003D1C4587
:1016300008F055CA8DE02DC04FE55AE16DE171E229
:1016400022C04DE151E26FE57AE11DC04DE45AE15F
:1016500066E57AE118C046E55AE16DE47AE113C027
:1016600045E35AE161E47AE10EC041E45AE165E301
:101670007AE109C049E25AE16DE17AE104C042EA47
:1016800058E164E978E10E942B1D29CA81E001C07C
:1016900085E00E94EA2C23CA29960FB6F894DEBF93
:1016A0000FBECDBFDF91CF911F910F91FF90EF90B3
:1016B000DF90CF90BF90AF909F908F907F906F9072
:1016C0000895CF93DF93CDB7DEB7E4970FB6F894C4
:1016D000DEBF0FBECDBF84B7877F84BF0FB6F8943F
:1016E000A8958091600088618093600010926000EE
:1016F0000FBE90E080E80FB6F8948093610090935D
:1017000061000FBE85B7806885BF85B7806885BFDB
:1017100084EB94E290930502809304020E948B1C58
:101720000E9499160E94B8168091E200846080930E
:10173000E20078948091BA058823A1F01091E90025
:101740001F709091EC00892F817090FD80E8182B1C
:101750001092E9008091E80083FD0E9473131F70CE
:101760001093E90082E084BD93E095BD9AEF97BDA8
:1017700080936E000E94121D811102C00E94031D01
:1017800000E211E05CE2E52E51E0F52ED8018D91EA
:101790008D018F3F11F00E94F924E016F106B1F798
:1017A0000CE211E040E3E42E41E0F42EF8018191D7
:1017B0008F018F3F11F00E94F924E016F106B1F776
:1017C00088E0EDE1F2E0DF01282F1D922A95E9F78C
:1017D000E7E0F2E0DF011D928A95E9F70E949C267E
:1017E000811102C00E94A72682E090E00E949334FB
:1017F00080930F020E948B2690932A0280932902E5
:101800000E946328EFE3FCE93197F1F700C0000084
:101810000E94632880911D0280FF08C06FEF7FEF58
:1018200080E090E00E94CF340E94231883E090E093
:101830000E9493340E94CC2B0E9444191092BF0541
:10184000E8EDF5E088EE95E02FEF3FEF219331933F
:101850008E179F07D9F71092DF04E8EFF4E088E0D5
:1018600095E02FEF3FEF219331938E179F07D9F724
:101870000E949C26811104C00E94A7260E94372145
:1018800046E050E06CE170E08AEE95E00E9483341F
:101890001092E9058091EA058C7F11F40E943721AE
:1018A00080E091E09093DD048093DC043324339452
:1018B0008091BA05853009F061C000E433E0F32E71
:1018C00010E18091BA05853009F052C08091BA05C7
:1018D000843009F439C00E94E12380910C05811104
:1018E0000DC00E948D21109210018091EA05837035
:1018F00080930F010E940D19F0921401F1E0F09312
:101900000C051092DE0428E130E00FB6F894A8959B
:10191000209360000FBE0093600083B7817F8460D6
:1019200083BF83B7816083BF7894889583B78E7FA8
:1019300083BF0FB6F894A89580916000886180936A
:101940006000109260000FBE80914F02882309F45E
:10195000B8CF0E946328EDE1F2E081919191892B4B
:1019600009F07FC585E292E08E179F07B1F7A9CFF6
:101970000E94D02B0E94EE1A10920C050E94632840
:1019800081110E947C18EDE1F2E0A0E1B2E000E0FC
:1019900010E0402FA190B1908D919D918A259B25BB
:1019A000009709F4AEC0F12CCC24C394D12C9C0137
:1019B0002C213D21232B09F49EC0FBA64CA7AC2073
:1019C000BD2081E0A114B10409F480E08DA70E943C
:1019D00088188160782F9FA78EA74BA55CA56DA561
:1019E0008FA50E94C430F801EE0FFF1FE05FFD4F8E
:1019F00080819181C826D926D182C082AB2889F006
:101A00008CE0809FF001819FF00D1124E95BFE4F77
:101A1000EF0DF11D80818F3F21F0282EDD24D3941E
:101A200001C0D12C0D2D10E08091DF04D801A80F4A
:101A3000B11D1997ACF188E090E07C01E01AF10A41
:101A4000B8016F5F7F4F61527B4FA70180EE94E03A
:101A50000E945C35B801675F7F4F61527B4FA701E1
:101A600088EE94E00E945C35A701440F551FB80131
:101A7000660F771F675E7F4F61527B4F88EF94E060
:101A80000E945C35B8016F5E7F4F61527B4FA701AA
:101A900080EF94E00E945C3588E08D198093DF042C
:101AA0008091DF0490E0A22DB0E09D01220F331F52
:101AB00029583E4FAA0FBB1FBD0168587E4F41E019
:101AC000480F9D15A8F490E0FC01E152FB4FD901AD
:101AD0005C915183DB015C915187218A880F991FAA
:101AE000FC01E152FB4F128E118E91E0842FE7CF63
:101AF0008093DF041CC0F394CC0CDD1C2CE0F212AC
:101B000056CF0F5F1F4F0430110509F042CF8FEF02
:101B100088AB89AB1AAA0E9488188160782F9CAB89
:101B20008BAB48A959A96AA98CA90E94C43080919D
:101B30000C0190910D01019659F1B12CB6E1AB2E3B
:101B40001EC0A89EF001A99EF00D1124E45DFB4F7C
:101B5000C288D388C114D10419F4A8ECCA2ED12CA0
:101B6000A89E7001A99EF00C11248701045D1B4FF3
:101B7000D80116968C91169781112AC0B3948B2D9B
:101B800090E020910C0130910D0128173907CCF617
:101B90000E94E12386E0E7EFF5E08E010F5F1F4F23
:101BA000D80101900D928A95E1F7F090F905E09047
:101BB000FA05D090FB05C090FC051092F905109233
:101BC000FA051092FB051092FC05FF2099F015C054
:101BD0001D968D919C911E970E946D18C816D9066E
:101BE00068F6C8010E94411BC7018E5C9B4F0E9492
:101BF000FA1AC4CFEE2009F44FC08091F5059091F8
:101C0000F6050E946D189C019091F105992309F445
:101C100048C42531310508F43FC09F3F19F09F5F4C
:101C20009093F105FF2061F00E94D5321F1414F447
:101C300091E001C09FEF899F802D11248093F905C9
:101C4000EE2061F00E94D5321E1414F491E001C020
:101C50009FEF899F802D11248093FA053091F9051B
:101C60003323D1F02091FA052223B1F045EB340360
:101C7000C0011124992319F09093F90502C0309204
:101C8000F90535EB2303C0011124992319F0909332
:101C9000FA0502C03092FA05D11003C0CC2009F435
:101CA0004FC08091F3059091F4050E946D189C013E
:101CB0009091F005992309F4F9C32135310508F411
:101CC0003FC09F3F19F09F5F9093F005DD2061F0CA
:101CD0000E94B3321D1414F491E001C09FEF899F5C
:101CE000802D11248093FB05CC2061F00E94B3323B
:101CF0001C1414F491E001C09FEF899F802D1124E2
:101D00008093FC053091FB053323D1F02091FC0535
:101D10002223B1F045EB3403C0011124992319F0BB
:101D20009093FB0502C03092FB0535EB2303C00105
:101D30001124992319F09093FC0502C03092FC0500
:101D40008091F90581110BC08091FA05811107C0BE
:101D50008091FB05811103C08091FC0581110E94D7
:101D60005E33FB82EC82DD82CE8286E0F801A7EF53
:101D7000B5E001900D928A95E1F70E94EE1A9091DC
:101D800018028913809318028091BA05843009F0F3
:101D90008FCD83E08093E9008091E80082FF88CDB9
:101DA0008091E80085FF21C00E94F01781111BC0BF
:101DB000F0E2CF2ED12C780109C08091F100D7013B
:101DC0008D937D01B1E0CB1AD10869F08091E800D4
:101DD00085FDF3CF8091E8008B778093E8000E9427
:101DE000F017882399F391E001C090E08091E8001A
:101DF0008B778093E800992309F45ACDE09023046F
:101E0000F09024048981E114F10461F08E3F09F01F
:101E100024C38A81833008F4C3C18550833008F01D
:101E20001CC3BEC18B3009F4A5C108F5853009F487
:101E300077C0A8F48230B9F128F4813009F00BC3DF
:101E40001A827DC0833009F45EC0843009F003C378
:101E50004C816B818A810E94411C9D8320C3873005
:101E600009F4F9C208F0F7C20E94C11BF6C2803122
:101E700009F4C1C060F48D3009F45FC008F45BC0A0
:101E80008E3009F45EC08F3009F486C0E4C282311E
:101E900009F4B7C008F4B2C0833109F4DCC08E3F46
:101EA00009F47EC1D8C28A81823009F4F1C283303C
:101EB00051F0813009F0CFC20E947C189B838C8343
:101EC0007D836E83CAC280911F0490912004892B68
:101ED00009F4C3C280911D0290911E029B838C83E2
:101EE00080911F02909120029D838E838091210218
:101EF000909122029F8388878091230290912402EF
:101F000099878A87AAC28A81823009F0A4C26B812C
:101F10007C818D819E810E9426350E94E11C9DC29C
:101F20002D813E813227232732274C816B818A8184
:101F30000E948B1B92C280E162C082E08A8389E0AA
:101F4000F6C1EA80FB80FE24EF24FE24AC80B12C95
:101F5000EDE1AE16B10408F080C26801C7018950F6
:101F60009E4F9601201B310B2A153B0508F075C2C8
:101F7000F9E0EF16F2E0FF0630F40E949334D60148
:101F800014968C9302C0F6011482FFEFEF1AFF0A39
:101F90002FEFC21AD20AE2CF80911F049091200441
:101FA000892B09F45AC2EA80FB80FE24EF24FE2428
:101FB000CC80D12C3DE1C316D10408F04EC25801AB
:101FC000C70189509E4F9501201B310B2C153D05F3
:101FD00008F043C249E0E41642E0F40628F4D501D3
:101FE00014966C910E94B134BFEFEB1AFB0AEFEF2D
:101FF000AE1ABE0AE5CF0E94661B2FC284E08A8318
:102000002CC2EA80FB80FE24EF24FE24AC80B12C9D
:10201000FDE1AF16B10408F020C26801C701879640
:102020009601201B310B2A153B0508F016C220E84B
:10203000E21621E0F20630F40E949334D6011496A1
:102040008C9302C0F6011482FFEFEF1AFF0A2FEF04
:10205000C21AD20AE3CFEA80FB80FE24EF24FE24DA
:10206000AC80B12C3DE1A316B10408F0F6C140E804
:10207000E41641E0F40608F0F0C180E891E08E1922
:102080009F098A159B0508F4E8C1370187E2680EAD
:10209000711C80911F0490912004892B11F068011C
:1020A00060C0E0FE0FC0C70186960E94933490E0A6
:1020B000982F88272D81822B81159C4531F48FEF35
:1020C0008D8303C0C12CD12C03C0CC24C394D12C4C
:1020D000C5018E0D9F1D450180FF1BC0B1E08B1A0D
:1020E000910855E0452E512C4C0E5D1E480C591C94
:1020F000C3018A0D9B1D0E949334F201208130E0C0
:10210000322F2227282B21153C4519F48FEFD201BD
:102110008C93F801EC0DFD1D2FEFCF01801B910B6F
:102120008815990508F0BBCF848190E0982F882707
:102130003581832B81159C4511F4248325833296A8
:10214000ECCFE0E8EE16E1E0FE0628F4D6011496A6
:102150006C910E94B134BFEFEB1AFB0AEFEFCE1A7D
:10216000DE0AC70187969601201B310B2A153B0515
:1021700040F373C180911F0490912004892B09F4CE
:102180006CC1C8010E94AB2FFFEF21EE34E0F1508B
:1021900020403040E1F700C000000E9423185DC1DC
:1021A000EA818E2F90E08E30910508F056C1FC0137
:1021B000EE58FF4F0C94203588E0E5E1F1E0DE01B8
:1021C000919601900D928A95E1F780E2D8011D92D7
:1021D0008A95E9F785E0898388E0FE01B196DE0102
:1021E000159601900D928A95E1F737C184E18983B4
:1021F0003A821B821C8231C18C8190E0982F882703
:102200002B81820F911D092E000CAA0BBB0B35E010
:10221000880F991FAA1FBB1F3A95D1F7AC01BD01CA
:10222000405E5F4F6F4F7F4F481759076A077B0724
:1022300008F413C18431E1E09E07A105B10508F05F
:102240000CC14531F1E05F076105710520F044E103
:1022500051E060E070E0481B590BBC016C5E7E4FA2
:10226000C8010E947A34F9C040E250E06FEF70E09C
:10227000C8010E94653580911F048983EA823B82F0
:102280001C8282E08D838BE00AC181E090E0909314
:1022900024048093230482E390E090931C028093B3
:1022A0001B020E94881890931A0280931902D5C0CD
:1022B000EF28A9F1F0902202F3FA882780F9F09034
:1022C0001F02F8228091190290911A020E946D1843
:1022D00085369105F0F0FF20E1F00E948818909378
:1022E0001A028093190280911B0290911C0201979F
:1022F00090931C0280931B02892B89F41092240472
:102300001092230481E090E09093200480931F04B6
:1023100006C082E390E090931C0280931B028091A0
:102320001F048983809123048A8380911B028B83FD
:1023300094C01092200410921F048FC040E250E01D
:102340006FEF70E0C8010E94653587C08B818130D6
:1023500059F018F0823001F180C080E2D8011D925E
:102360008A95E9F788E078C08C819AE0D92E7E01C1
:10237000B1E2EB0EF11CF7012D2D11922A95E9F730
:10238000B7010E94761B8983F701DE011296019046
:102390000D92DA94E1F761C06C818AE0FE01359616
:1023A000DE01919601900D928A95E1F789A19AA19B
:1023B00081153CE5930741F420911F0430912004DE
:1023C000232B11F480E090E09AA389A38BA19CA118
:1023D00081154CE5940741F420911F0430912004AD
:1023E000232B11F480E090E09CA38BA38DA19EA1F0
:1023F0008115ACE59A0741F420911F043091200427
:10240000232B11F480E090E09EA38DA38FA198A5CB
:102410008115BCE59B0741F420911F0430912004F5
:10242000232B11F480E090E098A78FA3683070F41C
:10243000EAE06E9FB001112469557E4F4AE050E0FA
:10244000CE0181960E94D53480E001C08FEF898350
:102450000E948B1C02C08FEF8983C8010E94AB2FA2
:1024600027CA19BD82E189BD09B400FEFDCF809164
:10247000D8008F7D8093D8008091E00082608093A7
:10248000E0008091E00081FDFCCF0E94D02B19CAB2
:1024900086E290E00E9493341B821C821D828E8310
:1024A000DCCF2B30310508F0BACBF6CB2B30310521
:1024B00008F009CC45CC8091510287FF11C0809172
:1024C000E80082FD05C08091BA058111F8CF11C0E6
:1024D0008091E8008B770BC08091BA05882349F082
:1024E0008091E80080FFF8CF8091E8008E7780939C
:1024F000E8000895982F973068F59093E9009817B1
:1025000039F07091EC002091ED005091F00003C083
:10251000242F762F50E021FD02C09F5FECCF309139
:10252000EB003E7F3093EB003091ED003D7F309328
:10253000ED003091EB0031603093EB007093EC00D4
:102540002093ED005093F0002091EE0027FDE5CFA1
:1025500080E008958F708093E90081E008952091D4
:102560005702309158022617370748F06115710558
:1025700039F42091E8002E772093E80001C0B901DA
:10258000FC0120E06115710579F18091BA0588237D
:10259000F1F18530F1F18091E80083FD3CC080913C
:1025A000E80082FD2EC08091E80080FFEBCF2091F3
:1025B000F3008091F20090E0922B6115710551F0CB
:1025C0008830910538F421912093F1006150710910
:1025D0000196F3CF21E0089709F020E08091E80010
:1025E0008E778093E800CECF2111CFCF0AC08091A3
:1025F000BA05882361F0853061F08091E80083FDA1
:102600000AC08091E80082FFF2CF80E0089582E066
:10261000089583E0089581E0089508950895089548
:1026200080912D02089524E02093E9002FEF30914E
:10263000E800215035FD06C035ED3A95F1F7000070
:102640002111F5CF2091E80025FF0BC040E050E0BC
:1026500066E070E00E947F2F8091E8008E77809383
:10266000E8000895CF93DF9320910E01222339F0E3
:102670002091290227FF03C060E224E002C068E045
:1026800021E02093E9002FEF3091E800215035FD43
:1026900006C035ED3A95F1F700002111F5CF2091F4
:1026A000E80025FF1DC0EC0180910E01811105C0DD
:1026B00040E050E068E070E003C070E040E050E0CF
:1026C000CE010E947F2F8091E8008E778093E800F2
:1026D00080E2FE01AEE2B2E001900D928A95E1F750
:1026E000DF91CF9108951F93CF93DF93CDB7DEB7DE
:1026F000AA970FB6F894DEBF0FBECDBFE1E5F2E0BA
:1027000089E592E02091F10021938E179F07D1F780
:1027100080915202833009F463C030F4813071F04B
:10272000823009F49DC0B4C08A3009F489C08B306E
:1027300009F46EC0893009F0ABC020C0809151020D
:10274000813A09F0A5C08091E800877F8093E80076
:102750008091550290915602892B21F460E28EE21D
:1027600092E003C060E080E090E070E00E94AF1271
:102770008091E8008B778093E8008AC080915102B5
:10278000813209F085C080915502909156020097E0
:1027900019F0029709F07CC08091E800877F809350
:1027A000E8008091E80082FD05C08091BA058111A2
:1027B000F8CF6EC02091F3008091F20090E0922B50
:1027C000029731F48091F100813011F0863021F4CC
:1027D0008091F10080932D028091E8008B7754C0A6
:1027E00080915102813A09F053C080915502909135
:1027F0005602892B09F04CC08091E800877F8093B6
:10280000E8008091E80080FFFCCF80910E0137C086
:10281000809151028132E1F58091550290915602EA
:10282000892BB1F58091E800877F8093E8000E94B2
:102830005B128091530280930E010E94D02B28C01E
:1028400080915102813221F58091E800877F809349
:10285000E8000E945B128091540280932C0218C001
:1028600080915102813AA1F48091E800877F8093A2
:10287000E8008091E80080FFFCCF80912C028093DB
:10288000F1008091E8008E778093E8000E945B124F
:102890008091E80083FFEBC1809151029091520238
:1028A000492F50E04A30510508F0E1C1FA01E058E3
:1028B000FF4F0C942035803821F0823809F0D7C1C1
:1028C00008C080914E0290914F02992389F0826056
:1028D0000FC0809155028F70873008F0C8C1809377
:1028E000E9008091EB0085FB882780F91092E900D0
:1028F0009091E800977F9093E8008093F100109208
:10290000F1007CC1282F2D7F09F0B1C1882319F077
:10291000823061F0ACC180915302813009F0A7C1CF
:10292000933009F080E080934F022EC080915302D3
:1029300081112AC0809155028F702FEF280F263009
:1029400008F095C18093E9002091EB0020FF1CC0A6
:10295000933021F48091EB00806214C09091EB00E1
:1029600090619093EB0021E030E0A90102C0440F98
:10297000551F8A95E2F74093EA001092EA00809191
:10298000EB0088608093EB001092E9008091E800F2
:10299000877F8093E8000E945B1269C1811167C143
:1029A000109153021F778091E3008078812B8093F0
:1029B000E3008091E800877F8093E8000E945B122B
:1029C0008091E80080FFFCCF8091E30080688093D5
:1029D000E300111102C082E001C083E08093BA05D8
:1029E00046C18058823008F042C120915302309194
:1029F00054022C3D53E0350779F583E08A838AE25F
:102A000089834FB7F894DE01139620E03EE051E24F
:102A1000E32FF0E050935700E49120FF03C0E295CC
:102A2000EF703F5FEF708E2F90E0EA3010F0C796A6
:102A300001C0C0968D939D932F5F243149F74FBFFE
:102A40008091E800877F8093E8006AE270E0CE0121
:102A500001960E94AF12C0C080915502909156021B
:102A6000432F552743305105B1F068F441305105EB
:102A700009F40CC14230510509F0F9C08BE590E032
:102A8000E4E1F3E057C04132510589F1423251058A
:102A900009F43CC0ECC0C901992781309105B9F017
:102AA00070F082309105D9F0039709F0E0C0E1E8B9
:102AB000F3E0E4918E2F90E0E1E8F3E038C0E9EC38
:102AC000F3E0E4918E2F90E0E9ECF3E030C0EFEA20
:102AD000F3E0E4918E2F90E0EFEAF3E028C0EFE915
:102AE000F3E0E4918E2F90E0EFE9F3E020C0833033
:102AF000910508F0BCC0880F991FFC01E75CFE4FF0
:102B00000190F081E02D89E090E014C083309105C0
:102B100008F0ADC0FC01EE0FFF1FED5CFE4F019011
:102B2000F081E02DDC01A05DBE4F8C9190E000971C
:102B300009F49DC02091E800277F2093E8002091B0
:102B40005702309158022817390708F4C90140E0AC
:102B5000009789F12091BA05222309F43DC0253060
:102B6000D9F12091E80023FD37C02091E80022FD33
:102B70002FC02091E80020FFEBCF4091F30020917F
:102B8000F20030E0342B009759F02830310540F442
:102B900044914093F100319601972F5F3F4FF3CF5F
:102BA00041E02830310509F040E02091E8002E771F
:102BB0002093E800CDCF4111CDCF0AC08091BA0556
:102BC000882351F0853041F08091E80083FD04C0F6
:102BD0008091E80082FFF2CF8091E8008B778093AC
:102BE000E80045C0803809F042C08091E800877F46
:102BF0008093E800809150028093F1008091E8007A
:102C00008E77C7CE811133C08091530290915402C8
:102C10009927029764F58091E800877F8093E80008
:102C200010915302109350020E945B12111106C0C2
:102C30008091E30087FD02C081E001C084E08093C1
:102C4000BA0542E061EC81E00E947A1242E261EC56
:102C500084E00E947A1242E261EC82E00E947A12E1
:102C600042E260EC83E00E947A128091BA05809182
:102C7000E80083FF10C08091E800877F8093E80020
:102C80008091EB0080628093EB0005C082E190E0D0
:102C9000EFE6F3E04FCFAA960FB6F894DEBF0FBE73
:102CA000CDBFDF91CF911F9108951F920F920FB664
:102CB0000F9211242F933F934F935F936F937F93C2
:102CC0008F939F93AF93BF93CF93DF93EF93FF9334
:102CD000C091E900CF708091EC00D82FD17080FDB9
:102CE000D0E81092E9008091F000877F8093F00097
:102CF00078940E9473131092E9008091F00088602C
:102D00008093F000CD2BCF70C093E900FF91EF913D
:102D1000DF91CF91BF91AF919F918F917F916F91F3
:102D20005F914F913F912F910F900FBE0F901F9089
:102D30001895E8EDF0E080818E7F80831092E200AC
:102D40001092DA001092E100A0EEB0E08C91816068
:102D50008C9380818F77808319BCA7EDB0E08C9134
:102D60008E7F8C9380818F7E808310922B020895BA
:102D7000CF92DF92EF92FF920F931F93CF93DF9347
:102D8000C8EDD0E088818F7E8883E7EDF0E0808118
:102D90008160808384E082BF81E080932B02888100
:102DA0008E7F888302EE10E0F80110821092DA0024
:102DB00081EEC82ED12CF601108288818F7788830E
:102DC00088818068888388818F7D888319BC109270
:102DD000BA051092500210924F0210924E0290EEDD
:102DE000E92EF12CF70180818B7F808388818160BF
:102DF000888342E060E080E00E947A12F6018081E0
:102E00008E7F8083F80180818160808380818860EB
:102E10008083F70180818E7F8083888180618883B1
:102E2000DF91CF911F910F91FF90EF90DF90CF90A6
:102E300008951F920F920FB60F9211242F933F9374
:102E40004F935F936F937F938F939F93AF93BF93B2
:102E5000EF93FF938091E10082FF09C08091E2002F
:102E600082FF05C08091E1008B7F8093E10080911B
:102E7000DA0080FF2AC08091D80080FF26C08091B0
:102E8000DA008E7F8093DA008091D90080FF18C02D
:102E900080E189BD82E189BD09B400FEFDCF81E0FA
:102EA0008093BA0580912B0281110FC00E94991660
:102EB0000E94B8168091E20084608093E20005C011
:102EC00019BC1092BA0510922B028091E10080FF8C
:102ED00017C08091E20080FF13C08091E2008E7FD6
:102EE0008093E2008091E20080618093E200809113
:102EF000D80080628093D80019BC85E08093BA0521
:102F00008091E10084FF30C08091E20084FF2CC0FA
:102F100080E189BD82E189BD09B400FEFDCF8091C9
:102F2000D8008F7D8093D8008091E1008F7E8093C0
:102F3000E1008091E2008F7E8093E2008091E200C8
:102F400081608093E20080915002882311F084E038
:102F500007C08091E30087FD02C081E001C083E0EB
:102F60008093BA058091BA058091E10083FF27C064
:102F70008091E20083FF23C08091E100877F8093EE
:102F8000E10082E08093BA05109250028091E10046
:102F90008E7F8093E1008091E2008E7F8093E2003B
:102FA0008091E20080618093E20042E060E080E096
:102FB0000E947A128091F00088608093F000FF9167
:102FC000EF91BF91AF919F918F917F916F915F91A1
:102FD0004F913F912F910F900FBE0F901F9018951A
:102FE0002091E4003091E50095E64091EC00842FBB
:102FF000817040FF23C08091E80080FD1DC080915A
:10300000BA05882399F0853099F08091EB0085FD11
:1030100011C04091E4005091E5002417350729F3D1
:10302000915011F09A01E1CF84E0089582E0089573
:1030300083E0089581E0089580E008954091E800DC
:1030400042FFDDCF089581E08093E00080E280932D
:10305000D8001092C9008FE19EE40197F1F700C0FB
:10306000000087E090EBDC018093FD059093FE0566
:10307000A093FF05B09300069CE088E10FB6F8949A
:10308000A895809360000FBE90936000FFCF789466
:103090001F920F920FB60F9211248F939F93AF93AD
:1030A000BF938091250290912602A0912702B091B2
:1030B00028020196A11DB11D80932502909326023E
:1030C000A0932702B0932802BF91AF919F918F9157
:1030D0000F900FBE0F901F9018959C014FB7F8945A
:1030E0008091250290912602A0912702B09128029A
:1030F0004FBF821B930B08952FB7F8946091250260
:103100007091260280912702909128022FBF089586
:103110002FB7F8948091250290912602A091270262
:10312000B09128022FBF0895EAEEF5E0248130E146
:10313000231B08F420E024838091E90581608093BB
:10314000E9050895EAEEF5E0248130E1230F08F463
:103150002FEF24838091E90581608093E90508952C
:10316000FF920F931F93CF93DF9300D000D0CDB782
:10317000DEB78F32910568F5122F042FF62EBC01B1
:10318000660F771F660F771F63537C4F44E050E054
:10319000CE0101960E947A34898183702A81E82FBA
:1031A000F0E030EC839FC001112483579D4FDC0178
:1031B000A20FB11DFC922B81DC01A20FB11D0C935B
:1031C0002C81DC01A20FB11D1C93E557FD4F81E05E
:1031D00080830F900F900F900F90DF91CF911F91F0
:1031E0000F91FF900895FF920F931F93CF93DF935A
:1031F000182F062FF42EC0E0D0E02F2D402F612F86
:10320000CE010E94B0182196CF32D105B1F7DF91DF
:10321000CF911F910F91FF9008950F931F93CF931C
:1032200080918B02882331F165EC8EEF0E94D12FC3
:1032300061E08DEF0E94D12F0DE812E0C0E0C09355
:10324000A605E7EAF5E0D8018D91819385E0E73B9B
:10325000F807D1F724E630E041E150E066EA75E096
:1032600080EA0E943F34892B59F4C05F005F1F4FF2
:10327000C03C29F710928B02CF911F910F910895B6
:1032800081E080938902F6CFAF92BF92CF92DF9216
:10329000EF92FF920F931F93CF93DF9300D000D054
:1032A000CDB7DEB70E94883365EC8EEF0E94D12F38
:1032B00060E08DEF0E94D12F10E060E0812F0E942E
:1032C000D12F1F5F1831C9F765EC8EEF0E94D12F07
:1032D00061E08DEF0E94D12F10E060E0812F0E940D
:1032E000D12F1F5F103CC9F765EC8EEF0E94D12FE4
:1032F00063E08DEF0E94D12F60E08FE00E94D12F1C
:1033000060E080E10E94D12F6FEF81E00E94D12F19
:1033100061E080E00E94D12F8FE39CE90197F1F7F3
:1033200000C000000DEC13E099E8C92E94E0D92EFE
:1033300028E1A22EEE24E394F12CBB24B39444E0C4
:1033400050E0B801CE0101960E947A346A815B8117
:103350004C818981837090E0762F7695769576956D
:10336000A89E9001A99E300D1124275A3D4FF901C6
:10337000E70FF11D6770D70102C0AA0FBB1F6A9546
:10338000E2F7BD017081672B6083652F66956695B6
:103390006695F901E60FF11D5770B70101C0660F80
:1033A0005A95EAF75081652B6083542F56955695B0
:1033B0005695F901E50FF11D4770970102C0220FE4
:1033C000331F4A95E2F7A9012081422B4083FC017B
:1033D000E757FD4FB0820C5F1F4FC016D10609F0B2
:1033E000AECF80918902811111C0109289020F9095
:1033F0000F900F900F90DF91CF911F910F91FF9041
:10340000EF90DF90CF90BF90AF90089565EC8EEF76
:103410000E94D12F60E08DEF0E94D12F89E5E82E28
:1034200082E0F82E10E0D7016D917D01812F0E947E
:10343000D12F1F5F1831B9F7D8CFEAEEF5E04381FD
:1034400020E1421B08F440E08181628190E00C940D
:10345000D72CEAEEF5E0438120E1420F08F44FEF6C
:103460008181628190E00C94D72CEAEEF5E06281D4
:1034700020E1621B08F460E08181438190E00C94BC
:10348000D72CEAEEF5E0628120E1620F08F46FEFDD
:103490008181438190E00C94D72CEAEEF5E08181A4
:1034A00090E04381628108970C94D72CEAEEF5E016
:1034B000818190E04381628108960C94D72C8091A1
:1034C000EA0586958695815009F485E10C94EA2CED
:1034D0001F920F920FB60F9211248F939F93AF9369
:1034E000BF938091DE04811113C0809125029091D9
:1034F0002602A0912702B09128024196A11DB11D7C
:103500008093250290932602A0932702B09328026D
:10351000BF91AF919F918F910F900FBE0F901F9011
:10352000189520910E012223C9F02091290227FF2E
:1035300015C0262F2695269526952E31C8F4FC0118
:10354000E20FF11D677081E090E001C0880F6A957D
:10355000EAF780959281892382830895FC0106967B
:103560002281621301C012823196E817F907C1F770
:10357000089520910E012223C1F02091290227FFF6
:1035800014C0262F2695269526952E3130F5FC0160
:10359000E20FF11D677081E090E001C0880F6A952D
:1035A000EAF79281892B82830895FC0132962FEFEE
:1035B00030E04191641789F02F3F19F4411101C0A7
:1035C000232F3F5F3630A9F72F3F39F0FC01E20F80
:1035D000F11D27FDFA95628308950895E091DC04BA
:1035E000F091DD04309721F00190F081E02D0994F5
:1035F00080E00895EF92FF920F931F93CF93DF9394
:10360000FC012285211136C0EC01E380F480F7E54E
:10361000FF1A26E12E9DC0012F9D900D1124DC0183
:10362000A45DBB4F1496ED91FC9115978E5C9B4F5A
:10363000309729F054966D917C915597099586E1C4
:103640008E9D80018F9D100D1124045D1B4FF8018C
:1036500087810E942327F80180850E941C270E94F1
:10366000E727188219861B861E821D8210922B0462
:1036700010922A04DF91CF911F910F91FF90EF904C
:103680000895CF93DF93FC01218921111CC0EC0127
:1036900081E0818B909128048781892B8093280475
:1036A000909129048085892B809329040E94E72723
:1036B000EA81FB81CE010696309729F06C897D89DD
:1036C000DF91CF910994DF91CF910895CF93DF934C
:1036D000C7EFD1E060E0CE010E94B1342196C11560
:1036E00084E0D807B9F7DF91CF910895883080F44E
:1036F0009B01982F8AE0989FB001112469557E4F55
:103700004AE050E0C9010E94833480E090E00895CF
:103710008FEF9FEF08950F931F93CF93DF93843024
:1037200058F5643048F54C3038F521159CE53907DB
:1037300031F4E0911F04F0912004EF2BE9F08901AE
:10374000C42FD0E0CC0FDD1F98E1699FC00DD11DC3
:10375000112490E6899FC00DD11D1124612FCE0147
:1037600087960E94B134602FCE018896DF91CF9169
:103770001F910F910C94B134DF91CF911F910F9154
:1037800008956F927F928F929F92AF92BF92CF9245
:10379000DF92EF92FF920F931F93CF93DF93CDB7FA
:1037A000DEB72A970FB6F894DEBF0FBECDBFA0904C
:1037B0001F04B090200481E090E090932004809357
:1037C0001F04612CC12CD12C712CE12CF12C00E0B8
:1037D00010E046018E0C9F1CF801EE0FFF1FE80D54
:1037E000F91DE757FB4F25913491402F672D862D0A
:1037F0000E948B1B0F5F1F4F0C30110569F788E18A
:10380000E80EF11C739484E07812E1CF80E6C80ED4
:10381000D11C639484E06812D7CF1A8219821C826B
:103820001B821E821D8218861F8288EC90E09A8778
:10383000898707EA11E04AE050E0B801CE0101961D
:103840000E94D534065F1F4F073F81E0180799F7A4
:10385000B0922004A0921F042A960FB6F894DEBFFF
:103860000FBECDBFDF91CF911F910F91FF90EF90D1
:10387000DF90CF90BF90AF909F908F907F906F9090
:1038800008950F931F93CF93DF93843008F564302E
:10389000F8F44C30E8F4C42FD0E0CC0FDD1F28E161
:1038A000629FC00DD11D112430E6839FC00DD11D34
:1038B0001124CE0187960E94933490E0182F0027A0
:1038C000CE0188960E9493349801282BC90102C02A
:1038D00080E090E0DF91CF911F910F910895462FE6
:1038E0002091230430912404232B91F47E3F39F45A
:1038F0006E3F71F4809121049091220408958430E8
:1039000038F4743028F46C3018F4672F0C94411C90
:1039100080E090E008958F929F92AF92BF92CF92F5
:10392000DF92EF92FF920F931F93CF93DF93CDB768
:10393000DEB72A970FB6F894DEBF0FBECDBF0CE2FC
:1039400014E0E12CF12C80EAC82E8EE1D82E9BECFD
:10395000A92E9EE1B92E27EF822E2DE1922EF8019D
:10396000D182C082B382A28295828482F58AE48A5F
:10397000BE016F5F7F4F8E2D0E94761B892B29F42D
:1039800089859A85F801938B828BFFEFEF1AFF0AE6
:103990000A5E1F4F88E0E816F10409F72A960FB671
:1039A000F894DEBF0FBECDBFDF91CF911F910F9175
:1039B000FF90EF90DF90CF90BF90AF909F908F904F
:1039C000089586E290E00C94B134CF93C82F811112
:1039D00002C06FEF01C060E383E290E00E94B13467
:1039E000C11102C06FEF01C066E184E290E00E9465
:1039F000B134C11102C06FEF01C066ED85E290E005
:103A0000CF910C94B13480E00E94E51C60E070E03E
:103A1000CB010E94E11C0E94C11B0E94661B81E039
:103A20000C94E51C83E290E00E949334803381F48F
:103A300084E290E00E949334863151F485E290E074
:103A40000E94933491E0863D09F090E0892F01C0F7
:103A500080E081700895882311F0FA0101C0FB0114
:103A600009940F931F93CF93DF93C42FD22FFC01A0
:103A700082818823C9F0409327040E94881890937C
:103A800026048093250480E28C0F883008F057C00C
:103A9000C77081E001C0880FCA95EAF7DF91CF9126
:103AA0001F910F910C94FD2B80912704481330C077
:103AB00080912504909126040E946D18883C910500
:103AC00038F510E21D0FCD17B9F080E28C0F883069
:103AD00040F4C77081E001C0880FCA95EAF70E94E0
:103AE000F62B183028F581E09D2F977001C0880FC4
:103AF0009A95EAF70E94FD2B802F0E94B92C18306E
:103B0000F0F4D77081E001C0880FDA95EAF70AC0B7
:103B100080E28C0F883098F4C77081E001C0880F74
:103B2000CA95EAF7DF91CF911F910F910C94F62B74
:103B3000802FDF91CF911F910F910C94B92CDF91C1
:103B4000CF911F910F9108950F931F93CF93DF9300
:103B500000D000D01F92CDB7DEB78C019093220425
:103B600080932104011580E2180738F5802F0E9408
:103B7000072CC801805E9109089718F001151105FE
:103B800071F4C8010E9497300F900F900F900F9022
:103B90000F90DF91CF911F910F910C94F62BC801DC
:103BA0000E9497300F900F900F900F900F90DF9121
:103BB000CF911F910F910C94E52B8EEF89838A830F
:103BC0001B820E9488188160782F9D838C83498195
:103BD0005A816B818D810E94C4300F900F900F909D
:103BE0000F900F90DF91CF911F910F9108950F9338
:103BF0001F93CF93DF938C01EB0165E174E08C2F71
:103C00000E94761B892B09F040C0DD27C35FDB4F84
:103C10008881F80110821882833079F048F481306D
:103C200041F1823091F5809117049091180409C0F8
:103C3000843051F08530E9F028C0809119049091CA
:103C40001A040097B1F01BC080911B0490911C04D2
:103C50000097A9F42091150430911604809117045F
:103C6000909118042115310541F0009741F4C901E4
:103C700006C08091150490911604009731F0DF91F1
:103C8000CF911F910F910C94A41DDF91CF911F91A3
:103C90000F9108950F931F93CF93DF9300D000D01F
:103CA0001F92CDB7DEB78C0190932204809321043C
:103CB000011580E21807F8F4C801805E91090897A1
:103CC00018F00115110531F4C8010E9497300E94C7
:103CD000FD2B05C0C8010E9497300E94EC2B802F5D
:103CE0000F900F900F900F900F90DF91CF911F9139
:103CF0000F910C945C2C8EEF89838A8381E08B83F7
:103D00000E9488188160782F9D838C8349815A8115
:103D10006B818D810E94C4300F900F900F900F9097
:103D20000F90DF91CF911F910F910895CF93DF9363
:103D3000EC010E944A1ECE01DF91CF910C94A41D8C
:103D40000F931F93CF93DF938C01862F65E174E06F
:103D50000E94761B892BD1F4C0911504D0911604D2
:103D60002097A1F0F8018081833039F4CE010E94C0
:103D7000961ECE010E94961E02C0843038F0CE01FD
:103D8000DF91CF911F910F910C94961EDF91CF91EF
:103D90001F910F9108950F931F93CF93DF938C0181
:103DA000EB0165E174E08C2F0E94761B892B09F0F2
:103DB0006DC0DD27F8018081813041F4918591113A
:103DC00015C09285992391F082E010C0823049F4A9
:103DD000F8018185811107C08285811106C083E0C9
:103DE00005C086E003C085E001C084E0C35FDB4F0F
:103DF00088838330B1F028F4813071F0823031F063
:103E000045C08430A9F0853079F140C08091170415
:103E1000909118040097A1F58091150490911604D3
:103E200020C08091190490911A040097E9F028C0ED
:103E300080911B0490911C04009711F5809115044A
:103E400090911604009749F00E94961E80911704E5
:103E500090911804009781F013C0809117049091FD
:103E60001804009799F00CC08091150490911604E5
:103E7000009761F00E94961E80911504909116049F
:103E8000DF91CF911F910F910C944A1EDF91CF913A
:103E90001F910F910895EF92FF920F939701201BAE
:103EA00031092F3F310519F010F02FEF30E0209548
:103EB000382F320F08F43FEF832F0F91FF90EF90D0
:103EC0000895EF92FF920F939701201B31092F3F26
:103ED000310519F010F02FEF30E0322F3095482FD8
:103EE000430F08F44FEF842F620F0F91FF90EF9074
:103EF0000895EF92FF920F93972F093438F4B7018A
:103F0000601B71096F3F710519F010F06FEF70E0E1
:103F1000485F5F4F4131510540F0A901485F5F4F55
:103F20004131510510F06FEF70E06095482F460F5A
:103F300008F44FEF842F37FF02C02D5F3F4F3595B8
:103F40002795359527956091EB05620F792F0F9195
:103F5000FF90EF900895EF92FF920F93E00EF11C07
:103F6000F90137FF03C0F195E195F10924E0EE0F67
:103F7000FF1F2A95E1F7EF3FF10519F014F0EFEF7D
:103F8000F0E09A0157FF03C031952195310994E083
:103F9000220F331F9A95E1F72E173F070CF4F90112
:103FA000EE0DFF1DEF3FF10519F010F0EFEFF0E01F
:103FB0002E2F2095382F320F08F43FEF832F0F91CB
:103FC000FF90EF900895EF92FF920F93970195E085
:103FD000099F200D311D11242F3F310519F010F0DC
:103FE0002FEF30E02095382F320F08F43FEF832F6A
:103FF0000F91FF90EF90089522E8241B08F420E031
:10400000620F08954095282F429F412D1124842F3F
:104010000895E42FF0E0EE0FFF1FE95BFE4F61A96A
:10402000621B0895E42FF0E0EE0FFF1FE958FE4FEA
:104030006081621B0895622F0895E42FF0E0EE0F77
:10404000FF1FE958FE4F408134EE439F412D11245C
:10405000E82FF0E050E0445E5F4FDA01A21BB109A7
:104060009D01B7FF03C031952195310993E0220FDF
:10407000331F9A95E1F7AF01421B530B9A0157FF8B
:1040800002C020E030E0582F259F212D1124822FDF
:104090000895E42FF0E0EE0FFF1FE958FE4F408136
:1040A00034EE439F412D1124E72FF0E050E0445EB1
:1040B0005F4FDA01A21BB1099D01B7FF03C0319523
:1040C0002195310993E0220F331F9A95E1F7AF0153
:1040D000421B530B9A0157FF02C020E030E0279F9C
:1040E000212D1124722F08950C94F318FC019B01CB
:1040F000009721F477FF2BC080E80895AC0197FF6B
:1041000004C044275527481B590BB901640F751F7C
:1041100037FD0CC0241B350BC901A5E0880F991F82
:10412000AA95E1F70E94ED3480E20CC0CB0165E076
:10413000880F991F6A95E1F7BA01621B730B0E9401
:10414000ED3480E6861BF7FF03C08195089580E07B
:104150000895EF920F931F93CF93DF93D62FC72F1E
:10416000182FC9010E19010FBA010E947620081BF1
:10417000202F219F212D1124822F6D2F7C2FDF9145
:10418000CF911F910F91EF900895EF920F931F938E
:10419000CF93DF93D62F172FC82FC9010E19070F02
:1041A000BA010E947620702F781B719F712D112407
:1041B0006D2F8C2FDF91CF911F910F91EF9008956C
:1041C000FF920F931F93CF93DF93F62ED72F182FC5
:1041D000C901C12FC01BBA010E947620982F990FE8
:1041E000890FC81B2C2F219F212D1124822F6F2D69
:1041F0007D2FDF91CF911F910F91FF900895FF9236
:104200000F931F93CF93DF93F62E172FD82FC9014B
:10421000C72FC01BBA010E947620982F990F890FD3
:104220007C2F781B719F712D11246F2D8D2FDF91A5
:10423000CF911F910F91FF9008958091EA05869587
:1042400086958F5F863108F081E00C94EA2CEAEEC7
:10425000F5E0908181E0892780831092140180919C
:10426000E90581608093E90508950C94B018EAEEA1
:10427000F5E085E3808380911D0190911E01A0915E
:104280001F0181839283A3838FE784838FEF8583CC
:1042900046E050E06CE170E0CF010E94A134109242
:1042A000E9050895BC018230910508F40895613E46
:1042B0008EE1780748F49B0195E0369527959A950D
:1042C000E1F748E0420F01C04FEF91E0242F30E0CA
:1042D000290F311D35952795229FF001239FF00D61
:1042E000F00D11246E177F0718F44FEF420F04C032
:1042F0002F3F39F091E0920F491740F78FEF890F68
:1043000008958FEF089520E030E0869F212D969F3D
:10431000200D311D1124C9010895BF92CF92DF9263
:10432000EF92FF920F931F93CF93DF93C82F80914B
:1043300010018C130DC02091EA05237030E04091EC
:104340000F0150E081E02417350719F480E001C027
:1043500081E08170809313018091EF0590911201AB
:10436000981739F08093120140E060E080E00E94ED
:104370007420CB3029F489EA90E20E94A52E31C046
:10438000CC3008F0A1C1C53009F43FC008F07BC1B2
:10439000C23009F4A4C008F0F1C0CC2309F494C0E1
:1043A000C13009F0F2C0D0911101DD0F8D2F880FBF
:1043B000880FD80F1AE01D0F103308F01FE260912C
:1043C000EB057091EC058091ED050E949E31062F62
:1043D000F72EE82ED11708F4BFC081E01F3208F095
:1043E0007CC0909111019F5F909311018111DFC1F9
:1043F00082E080931401809113018111D8C1C11111
:10440000D6C183E080931401D2C1D0911101DD0F98
:104410008D2F880F880FD80F1AE01D0F103308F06A
:104420001FE2F090EB050091EC05E090ED05609146
:10443000EE056695669566958091BB059091BC05E5
:104440000E948321382F982F36FD9095E92FEF7326
:104450009F7036FD9F5FE295EF70EE0FF0E0E15C3C
:10446000FE4F8181899F802D212D112482958F708F
:104470002295207F822B9081890F37FD819587FDC2
:104480008195880F282F3E2D239F212D1124822FC7
:104490006F2D702F0E949E31062FF72EE82ED11718
:1044A00008F09BCFED2FF0E0DF01AB52BE4F8C91B7
:1044B00090911201982331F02E2D402F6F2DCF01B6
:1044C0000E943521DF5FEBCF80911301882329F013
:1044D00040E060E080E00E94742080E082CFD091D4
:1044E0001101DD0F8D2F880F880FD80F1AE01D0FD7
:1044F000103308F01FE2F090EC050091ED05E0901C
:10450000EB05B701802F0E949E31D62EC72EB82E04
:104510006091EE056E0D7F2D802F0E949E31062F3B
:10452000F72EE82ED11708F058CF8D2F90E0FC0120
:10453000EB52FE4F308120911201232359F030FFBE
:1045400004C02E2D402F6F2D03C02B2D4D2D6C2D13
:104550000E943521DF5FE6CFED2FF0E0DF01AB52A7
:10456000BE4F8C9190911201982331F02E2D402F47
:104570006F2DCF010E943521DF5F2CCF809111017B
:10458000C33049F0C43009F440C0809111018F5FFD
:10459000809311012DCF880FD82FDD0FDD0FD80F9D
:1045A0001AE01D0F103308F01FE2D090EC05C09008
:1045B000ED052091EE0500E4029F012D1124D11795
:1045C00008F00BCFED2EF12CF701EB52FE4F90814E
:1045D000809112018923B9F0F701EE0FFF1FE95B0B
:1045E000FE4F81A982958F706091EB05809F600DD1
:1045F00011247D2D8C2D0E949E31462F282F672F50
:10460000C7010E943521DF5FDACF880FD82FDD0F79
:10461000DD0FD80F1AE01D0F103308F01FE2D09005
:10462000EC05C090ED052091EE0500E4029F012D00
:104630001124D11708F0D1CEED2EF12CF701EB5259
:10464000FE4F9081809112018923D9F0F701EE0F7E
:10465000FF1FE958FE4F6081069FB001112445E01D
:10466000759567954A95E1F78091EB05680F7D2D6B
:104670008C2D0E949E31462F282F672FC7010E9444
:104680003521DF5FD6CFC83019F48FEF90E206C036
:10469000C93038F0C93091F480EE90E20E94222FA8
:1046A000A0CEC63019F489E490E205C0C73009F005
:1046B0006CCF8DE190E20E94562E93CECA3009F065
:1046C00064CF85EC90E259CEC13161F483EE9FE175
:1046D00006C0C53198F5C23159F58BEA9FE10E94B9
:1046E0000E2D7FCEC231F8F4CE3019F489E090E27D
:1046F000E2CFCF3058F4CC3019F48BE190E2DBCF2D
:10470000CD3009F042CF82E190E2D5CFCF3019F41D
:1047100082E090E205C0C03109F037CF8CEF9FE115
:104720000E94E02D5ECEC431A1F681E69FE1D7CF95
:10473000C33109F02ACF89E79FE1D1CFC53119F400
:104740008BE49FE1CCCFCF3F09F01FCF8091BB0519
:104750009091BC05A091BD05B091BE0588279C70C5
:10476000AA27BB272AE0B695A795979587952A95FE
:10477000D1F782309105A105B10571F08330910523
:10478000A105B10569F040E00197A105B10511F05F
:1047900060E008C064E102C044E160E080E003C082
:1047A00044E164E184E10E94742082E02BCEDF9139
:1047B000CF911F910F91FF90EF90DF90CF90BF901E
:1047C00008954F925F926F927F928F929F92AF92D5
:1047D000BF92CF92DF92EF92FF9280910805909165
:1047E0000905A0910A05B0910B052FB7F894C09068
:1047F0002502D0902602E0902702F09028022FBFD9
:10480000C81AD90AEA0AFB0A0E947C184B015C010B
:10481000609308057093090580930A0590930B0532
:10482000A091DF04EFEDF4E08A2F90E04FEF5FEF0F
:1048300060E070E04C195D096E097F09A91799F0D5
:10484000218D328D2901612C712C44155505660589
:10485000770510F4815004C02C0D3D1D328F218F3F
:104860009F5F3296EBCF8093DF0480910C0581111E
:1048700008C08091EA05982F937019F08695869567
:1048800001C080E0909114019130D9F028F092306D
:1048900031F1933089F15BC0109211018092BB0518
:1048A0009092BC05A092BD05B092BE0589E2EFEDE5
:1048B000F4E0AFEBB5E001900D928A95E1F781E06D
:1048C00018C0FF90EF90DF90CF90BF90AF909F9077
:1048D0008F907F906F905F904F900C948D2180937C
:1048E00010018091EA05837080930F010E940D19D9
:1048F00083E0809314012BC08091E905882351F057
:1049000046E050E06CE170E08AEE95E00E94A13450
:104910001092E9054091BB055091BC056091BD0521
:104920007091BE052FB7F8948091250290912602D0
:10493000A0912702B09128022FBF841B950BA60BD4
:10494000B70B4097A105B10510F010921401FF902C
:10495000EF90DF90CF90BF90AF909F908F907F901F
:104960006F905F904F90089580E008959091290294
:1049700092FF0DC0282F2871283019F4877F84609A
:1049800006C0282F2471243011F48B7F886093FF98
:104990000DC0282F2871283119F4877E846106C044
:1049A000282F2471243111F48B7E886120912A02F2
:1049B00020FF0DC0382F3871383019F4877F81609F
:1049C00006C0382F3171313011F48E7F886021FF9D
:1049D0000DC0282F2871283119F4877E816106C007
:1049E000282F2171213111F48E7E886194FD877EFC
:1049F0000895F894E82FE295EF70F0E031A1282FA8
:104A00002F7081E090E001C0880F2A95EAF7982F77
:104A10009095932391A392A1892B82A378940895D2
:104A2000CF93DF938238910569F1B0F4813391051A
:104A300009F46FC048F48932910509F465C08A32DF
:104A4000910509F46BC06FC08533910509F457C017
:104A500089339105B9F067C0833E910571F138F44F
:104A6000803E9105B1F0823E910511F15CC0863E19
:104A70009105B9F1873E9105C9F1843E910509F090
:104A800052C024C02091290220FD2EC121FD2CC13D
:104A90004AC08091290280FD21C180912A0280FFB5
:104AA00023C18091290284FD16C183EE90E030C1BC
:104AB0008091290282FF15C1F4CF8091290282FDE5
:104AC00010C180912A0280FD0FC1EBCF80912A0294
:104AD00081FF10C18091290284FDFDC087EE90E026
:104AE00017C18091290283FF02C1F4CF809129026E
:104AF00083FDFDC080912A0281FDFCC0EBCF809137
:104B0000290285FDFAC0FCC08091290285FDF8C00C
:104B1000F4C08091290286FDF6C0F8C08091290278
:104B200086FDF4C0F0C0811522E5920790F581154D
:104B300031E5930708F09BC08F3F910509F0C8F459
:104B4000803F910508F070C0853A910550F484309B
:104B5000910508F0DDC0019709F0BDC081E090E04B
:104B6000D7C09C01205E31092830310508F0B3C060
:104B7000CFC0811540E5940708F05BC0811520E4A3
:104B8000920708F053C0811530E2930708F4C0C0C3
:104B9000A2C0EC01811546E5940718F5C11585E51D
:104BA000D80708F07DC0C11524E5D20708F073C00E
:104BB000AE01437055272C2F26952695C115D34558
:104BC00008F05AC081E090E002C0880F991F4A9512
:104BD000E2F740E2249F90011124822B932B9C68E2
:104BE00097C081154AE5940778F4C11589E5D8077F
:104BF00008F05FC0C11528E5D20708F46CC09C2FEF
:104C00008827806F906A84C090568115904208F082
:104C100062C08D2F8F710E94B624282F2F71CE0174
:104C200099279062922B74C0906572C09F70906AB1
:104C30006FC09C0174E0369527957A95E1F7922F25
:104C40009370482F437021E030E002C0220F331FE1
:104C50004A95E2F73C68392B8F70982F9695969578
:104C600040E2949FC0011124822B932B51C0982FB6
:104C70008827816F906A4CC081E090E002C0880F65
:104C8000991F4A95E2F740E2249F90011124822B5C
:104C9000932B9A683DC09C2F8827846F906A38C0F8
:104CA0008C2F0E94B6248F7190E0982F88279062F5
:104CB0002FC08C2F8F700E94B62494E0D695C79594
:104CC0009A95E1F7CF70D0E0DC2FCC27D0699E0118
:104CD000282BC9011DC080E090E01AC089E390E054
:104CE00017C082EE90E014C080EE90E011C086EE16
:104CF00090E00EC084EE90E00BC089E290E008C026
:104D000085E390E005C08AE290E002C081E390E094
:104D1000DF91CF910895CF9384E090E00E94933487
:104D2000C82F82E290E00E9493342C2F30E0A9013A
:104D3000582BCA01CF91089580E090E00E949B34E7
:104D4000893E9E4F11F40C94121D80E0089569EE87
:104D50007EEF80E090E00E94CF3460E082E090E05F
:104D60000E94B13460E083E090E00E94B134109280
:104D70008C0560E084E090E00E94B13460E082E263
:104D800090E00E94B13460E085E090E00E94B13490
:104D900060E086E090E00E94B1346FEF87E090E041
:104DA0000E94B13440E050E0BA0188E090E00E94F7
:104DB000C33460E08DE090E00E94B13440E050E008
:104DC000BA0188E190E00E94C33460E087E190E09E
:104DD0000E94B13440E050E0BA018CE190E00E94C2
:104DE000C33460E070E080E290E00E94CF3440E0A5
:104DF00050E0BA0188E190E00E94C33480E00E9454
:104E0000E51C0E94031D40E050E0BA018FE090E0F5
:104E10000E94C33440E050E0BA0183E190E00C947A
:104E2000C33480918B05882331F010928B0510924A
:104E30008A05109289050895809590912904892307
:104E40008093290408958095909128048923809364
:104E5000280408951092680510926705109266055F
:104E60000895209168058095822380936805982F86
:104E7000977099F430E0482F082E000C550B24173A
:104E8000350759F090912A0292FD07C085958595C6
:104E900085950E94B52B0C942A270895CF93C09135
:104EA0002A02C2FB992790F9981799F080FBC2F962
:104EB000C0932A026091290284E090E00E94B134FC
:104EC0006C2F82E290E00E94B13482E0CF910C948A
:104ED0003127CF9108958091650581111092650564
:104EE00008958091640590913305891719F08F5FBB
:104EF0008770FBCF08950F931F93CF93DF9380911B
:104F0000320582958F7009F05DC080912F0588234E
:104F100009F458C0809164051091330560912D0506
:104F200070912E05C0913005D091310591E06F3F11
:104F300009F090E0292F06E0811709F443C020977B
:104F400021F07F3F21F030E003C031E001C0322F7B
:104F500090E030FD34C0089FF001099FF00D11244E
:104F6000DF01AC5CBA4F11963C911197371327C003
:104F70003C91361324C012963C91129731111FC0F8
:104F800013964D915C9114974C1B5D0B483C510559
:104F9000B0F4809132058F70806180933205E75CB8
:104FA000FA4F80818F70806180838DE295E00E944E
:104FB0001704DF91CF911F910F910C9471270196E7
:104FC0008770BACFDF91CF911F910F910895909183
:104FD000280480912904892B80930D0580918B05ED
:104FE000882361F10E9488182091890530918A05F3
:104FF000821B930B8838934110F00E9411279091E7
:105000000D0580918B05892B80930D0580910E01F4
:10501000882331F08091290287FF02C08EE101C010
:1050200086E0EFE0F5E090E0815028F02191222326
:10503000D9F39F5FF9CF91110E94112740E250E010
:1050400069E675E08DE095E00E944F35892B21F1EE
:1050500080E2EDE0F5E0A9E6B5E001900D928A95D9
:10506000E1F7E091DC04F091DD043097A9F0809144
:105070000E01882359F08091290287FF07C0809193
:105080000D0580930E0586E080930D050280F38167
:10509000E02D8DE095E00994089590912A0292FD0B
:1050A00010C098E0899F90011124262B2093680559
:1050B0000E94C12B0E948818909367058093660513
:1050C00008950C94C12B8F929F92AF92BF92CF9272
:1050D000DF92EF92FF920F931F93CF93DF93CDB7A1
:1050E000DEB728970FB6F894DEBF0FBECDBFAE0176
:1050F0004F5F5F4F7A0188E0DA011D928A95E9F7E8
:1051000000E211E0CC24C394D12CAA24A394B12CA6
:105110004E01B9E08B0E911CF80180818F3F09F49C
:105120004AC0F894E82FE295EF70F0E021A18F706B
:10513000A50102C0440F551F8A95E2F7CA01922FBC
:10514000982B91A392A18095892382A3789400C083
:105150006CE271E0F701A60140955095DB012D91BD
:10516000BD012F3FA9F0822F82958F7090E0DC0166
:1051700090968C9190E02F7002C0959587952A9516
:10518000E2F780FD05C0808191818C299D2904C0B2
:1051900080819181842395239183808332968E161A
:1051A0009F06E1F6F80180818F3F11F00E94F924FB
:1051B000F0EAFA95F1F7CC0CDD1C0F5F1F4F41E0D0
:1051C0000C32140709F0A8CF48E050E0B70187E09F
:1051D00092E00E944F3511E0009709F410E0892B0E
:1051E00089F088E0F701A7E0B2E001900D928A957E
:1051F000E1F781E080938F050E94881890938E05D7
:1052000080938D0580918F05882351F180918D05C4
:1052100090918E050E946D18059710F180910702FC
:105220009091080290931E0280931D0280910902C2
:1052300090910A029093200280931F0280910B02AA
:1052400090910C02909322028093210280910D0292
:1052500090910E02909324028093230210928F0566
:10526000812F28960FB6F894DEBF0FBECDBFDF9119
:10527000CF911F910F91FF90EF90DF90CF90BF9053
:10528000AF909F908F900895109229040E94E72775
:10529000E7EFF5E086E0DF011D928A95E9F71092CD
:1052A000F1051092F0051092F2050C945E33CF9246
:1052B000DF92FF920F931F93CF93DF936C010091C6
:1052C000E80580918C05082BC7E0D0E010E0C8010C
:1052D0000C2E02C0959587950A94E2F780FD04C0D4
:1052E0002197A8F7F12C09C0FC2EB6018C2F0E9443
:1052F0006F1C0E941025019799F38F2DDF91CF919C
:105300001F910F91FF90DF90CF900895CF93DF937F
:10531000EC010E945729BE010E946F1C0E941025BB
:10532000DF91CF910895FC01808191810E948629AF
:1053300092959F70963079F010F4925001C09A5077
:10534000923068F4803F69F018F4883E40F409C058
:10535000843F29F406C0883E20F0813F11F080E0B0
:10536000089581E008959F92AF92BF92CF92DF920D
:10537000EF92FF920F931F93CF93DF93CDB7DEB7DA
:1053800061970FB6F894DEBF0FBECDBF8C0185E0EC
:10539000F801DE011D9601900D928A95E1F7F80162
:1053A000E28090912D0560912E054091300550913D
:1053B00031054115510531F06F3F31F481E09F3FD8
:1053C00019F403C081E001C080E0F82FF1709F2E36
:1053D00080FD1AC1F80130812181C380D4808DE223
:1053E000A82E85E0B82EF0902F05F601E41BF50BF2
:1053F000FF2009F4C6C080913205E83CF10508F0B1
:1054000091C0482F407F09F050C0621311C0931320
:105410000FC0FE2CE1100CC08F70806180933205AC
:10542000C5010E94170480913205F801858329C1C6
:10543000CD2831F02F3F31F481E03F3F19F403C014
:1054400081E001C080E080FD03C081E08E2502C0C4
:1054500080E090E0F82FF170FF2E80FF1CC080915B
:1054600064054091330556E0841709F4E8C090E0E4
:10547000589FF001599FF00D1124EC5CFA4F6181A7
:10548000261306C06081631303C06281E61203C065
:1054900001968770E9CFFE2CEE2009F4F2C08091CE
:1054A000320581608093320549C0621306C09313B0
:1054B00004C0E11002C0F80186C0C8010E9493290F
:1054C000882351F1EE2041F120913205822F8295FF
:1054D0008F7090E0029774F080912D0590912E05C9
:1054E00098878F831986DB86CA862C87CE0107961C
:1054F0000E94170486E0F801ADE2B5E001900D923C
:105500008A95E1F70E947B270AC06217C9F0C8019B
:105510000E94932981111EC0C8010E941704FF2414
:10552000F394AFC0482F407F81F78DE295E00E9451
:10553000170486E0F50111928A95E9F7F12CA1C0D4
:105540009313E5CFE110E3CFF8018583C8010E94F2
:10555000170454C0EE2001F320913205822F82956A
:105560008F7090E0029734F280912D0590912E0576
:105570009A8389831B82DD82CC822E83CE010196A1
:10558000B7CFE83CF105D0F5FE2CEE2029F26213EE
:1055900027C0931325C02091320520FD18C0822F0B
:1055A00082958F70482F50E04115510581F0F80128
:1055B00025834F30510541F08F5F982F9295907F52
:1055C000822F8F70892B8583C8010E94170486E083
:1055D000F801ADE2B5E001900D928A95E1F751C076
:1055E000C8010E949329811185CF80913205816085
:1055F00080933205C8010E94170443C086E0F5017C
:1056000011928A95E9F73DC0EE2009F485CFC801D3
:105610000E949329F82E882309F47ECF86E0F801B2
:10562000ADE2B5E001900D928A95E1F780912D05EC
:1056300090912E050E9486290E947B2722C03D87DB
:105640002E878D859E850E948629292F22952F7071
:10565000223028F49F7039F0811105C00BC024302E
:1056600028F49F7049F4805E883020F0C8010E94C1
:1056700017049F2CF92C05C0F8019581907F99F7AC
:10568000F9CF8F2D61960FB6F894DEBF0FBECDBF58
:10569000DF91CF911F910F91FF90EF90DF90CF900E
:1056A000BF90AF909F9008959E3F61F12CE0929F34
:1056B000800D1124682F669566956695982F9770D2
:1056C00083E0689FB001112440E050E080E0FB01DE
:1056D000E40FF51FEC56FA4F208130E0092E02C08E
:1056E000369527950A94E2F721703327042E01C0DE
:1056F000220F0A94EAF7822B4F5F5F4F4330510528
:1057000031F7089580E008959E3F51F12CE0929F7B
:10571000800D1124E82FE695E695E695877051E017
:1057200001C0550F8A95EAF783E0E89FF001112444
:10573000EC56FA4F20E030E070E04081CB01022EC1
:1057400002C0969587950A94E2F781708195842727
:105750008523842781932F5F3F4F2330310569F7DD
:1057600008958093E8050C94442921E030E001C0BD
:10577000220F8A95EAF720958091E80582230C9400
:10578000B12B21E030E001C0220F8A95EAF7809129
:10579000E805822B0C94B12B80938C050C94442942
:1057A0001092280480910E01882331F08091290203
:1057B00087FF02C08EE101C086E0EFE0F5E0DF0187
:1057C0001D928A95E9F70C944429882321F00E94C0
:1057D0001C270C94E7270895882339F09091290419
:1057E000892B809329040C94E7270895882321F0BE
:1057F0000E9423270C94E7270895882339F090917D
:105800002804892B809328040C94E7270895882383
:1058100009F451C09CEF980F913A30F4682F8DE055
:1058200095E00E94911A0DC090E2980F983058F4BC
:10583000877091E001C0990F8A95EAF7892F0E943D
:1058400023270C94E7279BE5980F9330A0F48091D1
:10585000900590919105892B71F11092910510920C
:105860009005E091DC04F091DD04309721F1068091
:10587000F781E02D17C098E5980F9731B0F480912B
:10588000920590919305892BB1F010929305109297
:105890009205E091DC04F091DD04309761F0008422
:1058A000F185E02D80E090E00994803F20F00E9497
:1058B0002E320C945E330895CF93882309F457C099
:1058C000C82F8CEF8C0F813AB8F580910E01882398
:1058D000E1F08091290287FF18C0EC2FE695E6954C
:1058E000E695F0E0E35FFA4F8281282F30E04C2FFD
:1058F000477081E090E002C0880F991F4A95E2F757
:1059000082239323892B59F411C0EFE0F5E08191B4
:10591000C81729F085E0E531F807C9F707C06C2FF3
:105920008DE095E00E94911A0E94E7276C2F8DE090
:1059300095E00E94B91A10C080E28C0F883078F48C
:10594000C77081E090E001C0880FCA95EAF7909196
:105950002804892B80932804CF910C94E727C03F1B
:1059600030F08C2F0E94F632CF910C945E33CF91A1
:1059700008951F93CF93DF93182F893319F0C0E058
:10598000D0E002C0C0E5D0E0812F0E945C2C2097BF
:1059900041F08FE99FE00197F1F700C000002197E7
:1059A000F6CF812FDF91CF911F910C94072C90910E
:1059B000EA05937071F08093EB056093EC05453B2D
:1059C00008F044EB4093ED058091E90581608093F8
:1059D000E90508959091EA059370A1F0811102C044
:1059E000946007C0863110F0946503C0880F880F5B
:1059F000982B9093EA05109214018091E90581603B
:105A00008093E90508958091E805982F9670963067
:105A100011F4886001C0877F0C94B12B2F923F92C4
:105A20004F925F926F927F928F929F92AF92BF92AE
:105A3000CF92DF92EF92FF920F931F93CF93DF935A
:105A4000CDB7DEB72A970FB6F894DEBF0FBECDBF35
:105A50009C838B8310911101110F812F880F880F68
:105A6000180F2AE0210F2983203310F03FE23983F9
:105A70008091BF058A838981181708F083C0A12E01
:105A8000B12CF501EB52FE4F9081809112018923D8
:105A900009F476C03090EB054090EC058FEB882E32
:105AA00085E0982E98ED692E95E0792E512C212CC9
:105AB000C501880F991FFC01E958FE4FFE83ED8355
:105AC000C501880F991F9C0128583E4F38872F83A6
:105AD000FFEF8F1A9F0A2A81221509F440C0ED8139
