:100000000C94B5030C94ED030C94ED030C94ED03E8
:100010000C94ED030C94ED030C94ED030C94ED03A0
:100020000C94ED030C94ED030C9432280C946E2781
:100030000C9446190C94ED030C94ED030C94ED0311
:100040000C94ED030C94ED030C94ED030C94ED0370
:100050000C94ED030C9460290C94ED030C94ED03C7
:100060000C94ED030C94ED030C94ED030C94ED0350
:100070000C94ED030C94ED030C94ED030C94ED0340
:100080000C94ED030C94ED030C94ED030C94ED0330
:100090000C94ED030C94ED030C94ED030C94ED0320
:1000A0000C94ED030C94ED030C94ED034305BC0597
:1000B000C505CD05D605DE05E705EF05C108C10874
:1000C000F008F0089D0A9D0A9D0A9D0A8209F6091A
:1000D000070A070A1D06BC05C505CD05D605DE05C0
:1000E000E705EF05CE0FE80FEF0F201120112710C5
:1000F00039104C108D1092102011201120119A10DF
:1001000074259B2550279B255027E7250A26502735
:100110000B271B27FD377A585A000004E6D6B44651
:100120000200210116000000742FE5A3E001BA00CF
:10013000D15D003D8889C65436C3174FE4EF0FBA2E
:1001400005F6E42125FF4D4BEFC04D1523653373B4
:10015000C2D58D9A0F078516F146C9965794F7E6D2
:1001600019DCC2B64C3D2C81A28548F44585224B52
:1001700067036F2D4D4A76B30043E685E05F6A6AF8
:10018000A21A4AD9AA0685640FF6D3A6F50A61B267
:100190006B61A87CC74F964AED01C7631D122CD135
:1001A00028087C95D88160E61BE030ED7883233504
:1001B0002494B88F01B1DDADCCB0C9664DB1F61F46
:1001C000340696EE0E66A99251E7244507353707A7
:1001D000E0C2F0AEC1048AFD53C6F26F2968BF0BBE
:1001E0002AB24E3FD3E1AEEE314F4BF954A05170DD
:1001F00031D15036F5602FEB19B867C458D98064F7
:10020000448CEF040000000015B2482D801511F851
:100210000001ED01BB030000F382DA9CB1C467FB6F
:10022000020000000004595A0010002000110121B2
:1002300000120222001303230014042400150525D4
:100240000016062600170727001808280019092994
:10025000001A0A2A001B0B2B00403050004131517C
:100260000042325200433353004434540045355564
:100270000046365600473757004838580049395924
:10028000004A3A5A004B3B5B00706080007161810C
:1002900000726282007363830074648400756585F4
:1002A00000766686007767870078688800796989B4
:1002B000007A6A8A007B6B8B00A090B000A191B19C
:1002C00000A292B200A393B300A494B400A595B584
:1002D00000A797B700A898B800A999B900AA9ABA38
:1002E00000AB9BBB2B0014001A0008001500170080
:1002F0001C0018000C00120013002A002900040042
:100300001600070009000A000B000D000E000F0088
:1003100033003400E1001D001B0006001900050039
:100320001100100036003700380028003900E000C6
:10033000E200E30001512C00000002515000510086
:1003400052004F00005CC25CC35CC55CC65CC75C0D
:10035000C85CC95CCA5C0100A65DA75D01001E0007
:100360001F00200021002200230024002500260079
:100370002700010035021E021F0220022102220274
:100380002302240225022602270201002D002E004E
:100390002F003000310001000000010001000100C9
:1003A0004B004E00010001000100010001000100AE
:1003B0000100010001000100010001000100010035
:1003C0000100010001000100010001000100010025
:1003D0000100010001000100010001000100010015
:1003E0000100010001000100010001000100010005
:1003F00001000100010001000000010001000100F6
:1004000001000100010001000100010001000100E4
:1004100001000100010001000100010001000100D4
:1004200001000100010001000100010001000100C4
:1004300001000100010001000100010001000100B4
:1004400001000100010001000100010001000100A4
:100450000100010001000100000001000100010095
:100460000100010005010906A1018506050719E043
:1004700029E7150025019508750181020507190076
:1004800029EF1500250195F0750181020508190174
:100490002905950575019102950175039101C00625
:1004A00060FF0961A1010962150026FF0095207512
:1004B0000881020963150026FF0095207508910246
:1004C000C005010906A101050719E029E715002566
:1004D00001950875018102950175088101050719CB
:1004E0000029FF150026FF00950675088100050804
:1004F0001901290595057501910295017503910171
:10050000C009025B00030100A0FA09040000010316
:1005100001010009211101000122400007058103AA
:100520000800010904010002030000000921110173
:1005300000012222000705820320000107050303B2
:10054000200001090402000103000000092111013B
:100550000001223B00070584032000011201000274
:1005600000000008504B41110200010203011C036E
:100570007600690061006C003A00660036003400C5
:100580006300320062003300630000000E0342008B
:100590004D003400300056003200000018034B00BC
:1005A00050002000520065007000750062006C0071
:1005B000690063000000040309040000000000005B
:1005C000000000000000000000000000000000002B
:1005D00000000000000000000000000000007E0F8E
:1005E00000D4FFFFFFC700000078000000000000FB
:1005F00000002A2B2800000000000000000000007E
:10060000000000000029000000002C1E34202122E0
:1006100024342627252E362D3738271E1F20212249
:10062000232425263333362E37381F0405060708C2
:10063000090A0B0C0D0E0F101112131415161718B2
:10064000191A1B1C1D2F3130232D350405060708F0
:10065000090A0B0C0D0E0F10111213141516171892
:10066000191A1B1C1D2F3130354C000101010101ED
:10067000010101010202020202020202020303035B
:10068000030303030304040404040404050505052B
:1006900005060606060607070707070808080809EB
:1006A0000909090A0A0A0B0B0B0C0C0C0D0D0D0E97
:1006B0000E0E0F0F0F10101111111212131314142C
:1006C000151516161717181819191A1A1B1B1C1DA1
:1006D0001D1E1E1F202021222223242425262627FA
:1006E0002829292A2B2C2D2D2E2F3031323233342C
:1006F00035363738393A3B3C3D3E3F404142434432
:1007000045464748494A4C4D4E4F50515354555613
:1007100058595A5B5D5E5F616264656668696B6CBF
:100720006D6F7072737577787A7B7D7E808283853A
:1007300087888A8C8E8F91939596989A9C9EA0A27A
:10074000A3A5A7A9ABADAFB1B3B5B7BABCBEC0C284
:10075000C4C6C9CBCDCFD1D4D6D8DBDDDFE2E4E748
:10076000E9EBEEF0F3F5F8FAFDFF11241FBECFEF31
:10077000DAE0DEBFCDBF04B603FE18C08091F005FD
:100780009091F105A091F205B091F3058730904B5F
:10079000A740B04B59F41092F0051092F105109259
:1007A000F2051092F305E0E0F8E3099512E0A0E00D
:1007B000B1E0E6E8F5E602C005900D92A430B1077D
:1007C000D9F725E0A4E0B2E001C01D92A03FB20736
:1007D000E1F70E942C0B0C94C1320C9400006F9234
:1007E0007F928F929F92AF92BF92CF92DF92EF92C1
:1007F000FF920F931F93CF93DF93CDB7DEB7299767
:100800000FB6F894DEBF0FBECDBFFC018081918191
:1008100023813481232B31F09F3F31F491E08F3FCE
:1008200019F403C091E001C090E090FD00C77F0182
:1008300085E0DE01119601900D928A95E1F7D701CE
:1008400012962C9189819A81222349F00E94BA2C18
:10085000182F682F89819A810E94262D03C00E943B
:10086000F62C182F69817A81812F0E944D1B8C01F3
:10087000F7018281811106C0D70112968C918111F6
:100880003EC018C180910C0190910D010196A1F319
:100890003BE7C32E34E0D32EA12CB12C99249394A2
:1008A00080910C0190910D018A159B052CF3F601A6
:1008B00086818823E9F0818592850817190739F424
:1008C0008091790490917A040817190789F0D6016C
:1008D0001F969C921F971C961C930E931B97C60104
:1008E0000E941F1AC60106960E94D8191092780419
:1008F000BFEFAB1ABB0AE6E1CE0ED11CD1CFC801C7
:1009000082519F45409708F0ADC08FEF93E00E9461
:10091000E8318111BCC0025127EFA22EBB24B39451
:10092000002379F0A114F4E0BF0609F4B0C0C501BA
:100930000E94E831811101C001502FEFA21AB20AC2
:10094000EFCF1E821F8218861986CC24CA94850197
:100950000F5F1F4FC5010E94E8318E831F828823DD
:1009600009F495C0813009F078C0450182E0880E15
:10097000911CC8010E94E831D82E8F83882309F486
:1009800086C08FEF8D0D833050F40E5F1F4FC40172
:100990000E94E8318887811160C05801D8CF8BEF61
:1009A0008D0D833070F5350193E0690E711CC40123
:1009B0000E94E8318887811102C08301EECF850152
:1009C0000C5F1F4FC3010E94E8318987882329F3F8
:1009D000288539852130AFEF3A0718F0922F80E053
:1009E00001C0C901B6E0DB1631F0E7E0DE1631F0F8
:1009F0000E94741DD2CF0E94281DCFCF0E94821C5E
:100A0000CCCFF4E0DF1611F08401C7CFC4010E94FF
:100A1000E831D82E85010C5F1F4FC50103960E9457
:100A2000E831DD20A1F1882391F1282F30E0215019
:100A30003109C29EA001C39E500D11248D2D90E05E
:100A40000197840F951F019708F4A7CFAFE9BFE086
:100A50001197F1F700C00000F6CFCE0106960E9474
:100A6000932E9BCF0031EFE51E0739F00131FFE5F2
:100A70001F0709F0E5C082E001C081E00E94652DFA
:100A80000E94D92904C0F70182818111D6C08091CA
:100A90008002877009F4CBC5D70112968C91882308
:100AA00009F4C5C58091610582FDC1C582E00E943F
:100AB000BE13BDC50031FFE51F0721F481E00E9490
:100AC000592DDECF01312FE5120711F482E0F7CF67
:100AD000680127E5D21A8FEFC816D10411F008F08B
:100AE00040C064E674E08C2D0E94541A892BC9F52D
:100AF00086E18C9DF0018D9DF00D1124E558FB4F92
:100B000086818130C9F48091640490916504892BB9
:100B100041F18091660490916704892B11F18091D5
:100B2000680490916904892BE1F480916A049091A2
:100B30006B04892B49F015C0823099F480916804C8
:100B400090916904892B69F026E12C9DC0012D9DAF
:100B5000900D112485589B4FDC0150961C920E94E9
:100B60001F1AF801E65AFD45E830F10508F06FC09C
:100B7000EA5AFF4F0C947532D70112968C91882354
:100B800009F485CF0E94FB1F82CFF7018281882361
:100B900009F47DCF0E9434197ACFD70112968C9137
:100BA000882309F474CF0E942B1971CFF701828139
:100BB000882309F46CCF0E941F1969CFD7011296C0
:100BC0008C91882309F463CF0E94131960CFF70139
:100BD0008281882309F45BCF0E94071958CFD7017F
:100BE00012968C91882399F10E94FB1830C0D7018E
:100BF00012968C918111CFC006318CE5180709F44B
:100C000025C28091770482720A3CFCE51F0709F433
:100C1000FCC408F05AC2053C9CE5190709F4E1C47C
:100C200008F0B3C4033CBCE51B0709F4D0C408F0CA
:100C3000D3C4023C1C4509F058C20E94052027CFAE
:100C4000F801E65AFD45E830F10508F498C4C801FA
:100C500097558F3F910511F008F054C020910C0179
:100C600030910D012817390724F490930D018093DA
:100C70000C01F701228136E1389F5001399FB00CF9
:100C80001124C50185589B4F6C01DC0150962C93B3
:100C90005097928116968C911697992341F11A9646
:100CA0001C930E9319978F5F16968C930E94A1291F
:100CB000F601968785878091A302878390917804B7
:100CC00080917704892B80870190F081E02D309707
:100CD00049F0D60154966D917C915597C5018F5777
:100CE0009B4F099510937A04009379040BC08823D5
:100CF00049F0F6018189882329F0C5018F579B4F60
:100D00000E94D819033FFCE51F0769F198F4083DDC
:100D10008CE51807F9F0093D9CE51907B1F1073D8D
:100D2000ACE51A0709F063CF06E221EE41EE67ED6C
:100D30007CE515C0053FBCE51B0709F1D0F0063F77
:100D4000FCE51F0709F053CF07E225EE46EE66EFFC
:100D50007CE505C007E225EE45EE68ED7CE5C701C0
:100D60000E940F1C94CE06E221EE40EE63EF7CE57C
:100D7000F6CF07E225EE44EE64EF7CE5F0CF06E225
:100D800021EE42EE65EF7CE5EACF08E221E045EE98
:100D900069ED7CE5E4CF109276040330BDE51B07D6
:100DA00058F40A3FECE51E0780F4C80182509C45C8
:100DB000449708F035C109C00136FDE51F0729F049
:100DC000053A2DE5120709F02BC10E9418139093E4
:100DD00061058093600501318CE5180709F4C6C0F0
:100DE00008F042C00930ACE51A0709F49BC000F5D1
:100DF0000530ECE51E0709F485C078F403302CE5D6
:100E0000120709F478C008F07AC002301C4509F0D6
:100E1000F7C0809160058160F1C00730ACE51A072A
:100E200009F478C008F07AC0809160058061E6C05E
:100E30000D30ECE51E0709F487C058F40B302CE5A3
:100E4000120709F479C008F07BC0809160058860C2
:100E50006FC00F309CE5190709F480C008F082C00C
:100E600080916005877FCAC00D3FBCE51B0709F470
:100E700071C000F50531FCE51F0709F485C068F471
:100E800003318CE5180709F475C008F095C00E947D
:100E9000962D809160058F77B1C00B3FACE51A07A6
:100EA000A9F108F054C00A3F1C4509F0A9C080917F
:100EB000610540C00130FDE51F0709F489C058F401
:100EC0000F3F8CE5180709F45AC008F069C08091FB
:100ED000610582602FC00136ADE51A0709F47EC0B6
:100EE000053ABDE51B0709F483C002301D4509F032
:100EF00087C060E06EC08091600582607FC0809195
:100F0000600516C080916005886078C08091610599
:100F100082604FC080916005806270C080916005E2
:100F200080646CC00E94962D80916005806866C0C8
:100F3000846064C081603DC0809160058E7F5EC02A
:100F4000809160058D7F5AC08091600516C08091A8
:100F5000610518C0809161058D7F2BC0809160056F
:100F60008F7E4CC0809160058F7D48C08091600568
:100F70008F7B44C080916005877F8B7F3FC08091CD
:100F800061058D7F8E7F15C08091600582FB2227D1
:100F900020F991E0922790FB82F990FB83F92EC013
:100FA00080916105982F909591708E7F892B90FB91
:100FB00081F98093610524C00E94962D809160057F
:100FC00087FB222720F991E0922790FB87F916C032
:100FD00061E08EE090E00E94063212C080916005D0
:100FE00084FB222720F991E0922790FB84F906C028
:100FF00080916005982F909590FB80F98093600513
:10100000609160051091610584E090E00E940632D5
:10101000612F82E290E00E9406320E94962D37CD29
:101020000631BCE51B07F9F4809177048A7A91E0D8
:1010300009F490E090930602882311F065E301C063
:1010400069E285E292E00E9497190AC08091060247
:10105000882309F498C265E385E292E00E946F1943
:101060000E94151614CD0A35FDE51F0741F150F415
:1010700001158CE51807A9F00E3D1C45B1F50E943D
:10108000341305CD0B35ADE51A07D9F00C351D45E8
:1010900061F58091610582FB882780F991E08927BD
:1010A00011C00E94962DEFEFF4E32CE0E150F040E8
:1010B0002040E1F700C000000E943C29E8CC81E01C
:1010C00001C080E00E94DB1310C00E3CECE51E075F
:1010D00009F4A9C208F46BC2063DACE51A0708F48E
:1010E00070C20D351D4509F4D2CCF7018281008113
:1010F0001181882349F0C8010E94BA2CD82E682F8C
:10110000C8010E94262D04C0C8010E94F62CD82ECA
:10111000B8018D2D0E944D1B0E94A1118C01A82E9B
:10112000F701C280D580D2949FE0D92280918002BD
:101130008770B9F0CC20A9F0812F807F803421F016
:1011400080E2800F883068F08091610582FD09C0DF
:1011500082E00E94BE13809180028770BB24B3940A
:101160008111B12C912E92948FE09822892D90E0DC
:101170008C30910508F0E1C1FC01E25AFF4F0C945C
:101180007532812F807F1F70882311F01295107F98
:10119000CC20B9F0112309F4BDC180E2800F883062
:1011A00010F0A11006C080917704182B10937704DB
:1011B00005C080917804182B109378040E941516AE
:1011C000A9C1802F0E94CF2D112309F4B6C1005E62
:1011D000812F083068F1AA2059F10E94A9132AC072
:1011E000812F807F1F70803211F01295107FAA200E
:1011F00029F0F1E0AF1609F45EC069C08091610585
:1012000082FF1BC0CC2069F0112339F08091770454
:10121000182B109377040E94151680E00E941C2E54
:101220008CC180E00E94CF2D112309F486C1812F4B
:101230000E94B0130E94151680C1CC2031F1DD2030
:1012400001F121E0D2120FC08091A302182B1817D0
:1012500009F473C10E94A1299093A2028093A10274
:101260001093A3026AC185E0D8120BC00E949E139E
:1012700080917D02181310937D02812F0E94C52D4D
:101280005CC18091A302812BF9CFDD2051F091E068
:10129000D9120DC080917704812309F44EC10E94B8
:1012A000F8130E949E13812F0E94BE2D46C1A5E017
:1012B000DA12F7CF42C1CC2029F0B5E0BD1508F411
:1012C0003CC1DBCFE4E0ED1508F437C1ECCFCC2016
:1012D00061F0DD2091F2D70115968C91159780FF72
:1012E00019C18F7015968C93C8CFDD20E1F20933B8
:1012F00009F020C1BFEFE7EEF3E0B150E040F0406D
:10130000E1F716C1812F8370A9F5C1101AC1402FD2
:10131000429546954770440F440F802F8F7090E0A0
:101320009C01042E01C0220F0A94EAF704FF08C0B2
:101330008FE090E001C0880F4A95EAF7809501C0E0
:1013400080E0169516951370123069F088F490912C
:10135000A402113019F0822B892302C0922B892B11
:101360000E94702DEEC0822B9091A4028927F8CFA5
:10137000822BF6CFCC2019F0812F817001C0869589
:10138000882309F4DEC0402F429546954770440FEC
:10139000440F802F8F7090E09C01042E01C0220F1B
:1013A0000A94EAF704FF08C08FE090E001C0880FBC
:1013B0004A95EAF7809501C080E01695169513705E
:1013C000123059F078F49091D205113019F0822B37
:1013D000892309C0922B892B06C0822B9091D205BC
:1013E000892701C0822B0E94532DABC01F70CC20D7
:1013F00039F0812F0E94652D802F0E94C52DA1C03C
:10140000802F0E94BE2D812F0E94592D9AC0802FBF
:1014100022EFA21689F12A1538F090EFA91659F09B
:10142000A1EFAA1611F171C0B3EFAB1661F1E4EFB1
:10143000AE16B9F06AC0CC2079F0F4E0FD1508F4DE
:101440007CC01F7181E090E001C0880F1A95EAF717
:101450009091D205892721C025E02D1508F46DC093
:10146000F0CF8091610582FF1BC0CC2039F0812F25
:101470008F710E94652D61C0CC20C9F3812F8F71BF
:101480000E94592D5AC0CC2039F01F7181E001C053
:10149000880F1A95EAF701C080E00E94532D4DC0D5
:1014A000CC20D9F080917D020E94B01380918002FF
:1014B0008770843039F40E94B713812F8F710E9496
:1014C000592D5BC084E08D1508F457C01F71812F22
:1014D0000E94652D63E0812F11C090917704809167
:1014E0007D02892B8093770494E09D1550F40E942F
:1014F000B7130E94F81364E0812F8F710E947B164E
:101500003CC081E00E94BE1338C0CC2029F0DD2011
:1015100009F4ADCF802F82CEDD2009F4AFCF89331F
:1015200049F4AFEFB7EEE3E0A150B040E040E1F79F
:1015300000C00000802F0E94CF2D88EF890D8430DD
:1015400010F40E94CC19BB2009F471C08091800274
:1015500080FD6DC0D70112961C9285958595859565
:101560000E94652DC7010E94EF038091800285953E
:10157000859585950E94592D5AC0B12CE2CFE65928
:10158000FF4F0C94753269E267CD073C2CE51207DA
:1015900091F160F1083CACE51A0791F1093C1C455A
:1015A00009F0A3CD4BEF58E167E079E137C00C3C7F
:1015B0002CE5120779F1A8F542E757E160E877E1F9
:1015C0002DC0003D1C4508F062CA8DE02DC04DE3E2
:1015D00059E16BEF7FE122C04BEF5FE16DE379E111
:1015E0001DC04BE259E164E379E118C044E359E1DD
:1015F0006BE279E113C043E159E16FE179E10EC09B
:101600004FE159E163E179E109C047E059E16BEF4E
:1016100078E104C040E857E162E777E10E94091CE5
:1016200036CA81E001C085E00E94C02930CA2996EF
:101630000FB6F894DEBF0FBECDBFDF91CF911F91E3
:101640000F91FF90EF90DF90CF90BF90AF909F9061
:101650008F907F906F900895CF93DF93CDB7DEB7D3
:10166000E5970FB6F894DEBF0FBECDBF84B7877F76
:1016700084BF0FB6F894A89580916000886180932C
:101680006000109260000FBE90E080E80FB6F89402
:1016900080936100909361000FBE85B7806885BF1D
:1016A00085B7806885BF85E491E1909305028093BA
:1016B00004020E94691B0E94B2270E94D1278091D8
:1016C000E20084608093E20078948091A4058823EE
:1016D000A1F01091E9001F709091EC00892F8170AA
:1016E00090FD80E8182B1092E9008091E80083FDBE
:1016F0000E948C241F701093E90082E084BD93E067
:1017000095BD9AEF97BD80936E000E94F01B8111EA
:1017100002C00E94E11B00E211E06CE2E62E61E0F3
:10172000F62ED8018D918D018F3F11F00E948A1104
:10173000E016F106B1F70CE211E050E3E52E51E0BE
:10174000F52EF80181918F018F3F11F00E948A11CF
:10175000E016F106B1F788E0EDE1F2E0DF01282FB5
:101760001D922A95E9F7E7E0F2E0DF011D928A95E4
:10177000E9F70E942913811102C00E94341382E00C
:1017800090E00E94E83180930F020E94181390931A
:101790006105809360050E949116EFE3FCE93197A3
:1017A000F1F700C000000E94911680911D0280FF99
:1017B00008C06FEF7FEF80E090E00E9424320E942B
:1017C0003C2983E090E00E94E8310E94702D0E9445
:1017D00022181092A905E2ECF5E082ED95E02FEFDA
:1017E0003FEF219331938E179F07D9F710922E0563
:1017F000E7E4F5E087E595E02FEF3FEF21933193A4
:101800008E179F07D9F70E942913811104C00E94E7
:1018100034130E94152046E050E06CE170E084ED46
:1018200095E00E94D8311092D3058091D4058C7F29
:1018300011F40E94152080E091E090932C05809394
:101840002B0545E2242E42E0342E8091A4058530FC
:1018500009F05FC000E433E0F32E10E18091A405AD
:10186000853009F050C08091A405843009F439C056
:101870000E94BF2280915B0581110DC00E946B20E8
:1018800010920F018091D405837080930E010E9405
:10189000EB17F0921401F1E0F0935B0510922D0527
:1018A00028E130E00FB6F894A895209360000FBEB1
:1018B0000093600083B7817F846083BF83B78160BA
:1018C00083BF7894889583B78E7F83BF0FB6F894D3
:1018D000A8958091600088618093600010926000FC
:1018E0000FBE80918605882309F4B8CF0E94911617
:1018F000EDE1F2E081919191892B09F0A6C42E16B9
:101900003F06C1F7ABCF0E94962D0E94CC191092D2
:101910005B050E94911681110E949529EDE1F2E08C
:10192000A0E1B2E000E010E0402FA190B1908D91D5
:101930009D918A259B25009709F4B0C0F12CCC24F9
:10194000C394D12C9C012C213D21232B09F4A0C050
:10195000FBA64CA7AC20BD2081E0A114B10409F482
:1019600080E08DA70E94A1298160782F9FA78EA774
:101970004BA55CA56DA58FA50E94732FF801EE0FF6
:10198000FF1FE05FFD4F80819181C826D926D1825B
:10199000C082AB2889F08CE0809FF001819FF00D20
:1019A0001124E95BFE4FEF0DF11D80818F3F21F087
:1019B0008DABDD24D39401C0D12C0D2D10E080918E
:1019C0002E05D801A80FB11D1997ACF188E090E061
:1019D0007C01E01AF10AB8016F5F7F4F625D7A4FB8
:1019E000A7018FE295E00E94B132B801675F7F4F97
:1019F000625D7A4FA70187E395E00E94B132A701AB
:101A0000440F551FB801660F771F675E7F4F625DF9
:101A10007A4F87E495E00E94B132B8016F5E7F4F44
:101A2000625D7A4FA7018FE395E00E94B13288E0B2
:101A30008D1980932E0580912E0590E0EDA9AE2F93
:101A4000B0E09D01220F331F29583E4FAA0FBB1F44
:101A5000BD0168587E4F41E0480F9D15B0F490E0FD
:101A6000FC01E25DFA4FD9015C915183DB015C918D
:101A70005187BDA9B18B880F991FFC01E25DFA4F18
:101A8000128E118E91E0842FE6CF80932E051CC01C
:101A9000F394CC0CDD1C2CE0F21254CF0F5F1F4FDF
:101AA0000430110509F040CF8FEF88AB89AB1AAA3B
:101AB0000E94A1298160782F9CAB8BAB48A959A9C2
:101AC0006AA98CA90E94732F80910C0190910D013D
:101AD000019659F1B12CA6E1AA2E1EC0A89EF001D4
:101AE000A99EF00D1124E558FB4FC288D388C1147C
:101AF000D10419F4F8ECCF2ED12CA89E7001A99E28
:101B0000F00C1124870105581B4FD80116968C91B3
:101B10001697811115C0B3948B2D90E020910C0184
:101B200030910D0128173907CCF60E94BF220E9480
:101B3000CC19909118028917A9F08093180212C04D
:101B40001D968D919C911E970E948629C816D906D4
:101B500010F7C8010E941F1AC7018F579B4F0E94A0
:101B6000D819D9CF8091A405843009F06ECE83E0D6
:101B70008093E9008091E80082FF67CE8091E800C1
:101B800085FF21C00E94092981111BC000E210E0DD
:101B9000FE0131967F0108C08091F100D7018D933D
:101BA0007D010150110969F08091E80085FDF4CFB5
:101BB0008091E8008B778093E8000E9409298823B0
:101BC00099F391E001C090E08091E8008B778093D9
:101BD000E800992309F439CEE0907204F090730480
:101BE0008981E114F10459F08E3F09F029C39A81EB
:101BF000933068F19550933008F022C328C08B30A1
:101C000009F4A9C108F5853009F47BC0A8F4823035
:101C1000D9F128F4813009F011C31A8281C08330D0
:101C200009F462C0843009F009C34C816B818A8158
:101C30000E941F1B9D8327C3873009F4FFC208F051
:101C4000FDC20E949F1AFCC2803109F4C5C08E01FA
:101C50000F5F1F4F813160F48D3009F45FC008F4CD
:101C60005BC08E3009F45EC08F3009F486C0E6C2D6
:101C7000823109F4B7C008F4B2C0833109F4DCC082
:101C80008E3F09F47FC1DAC28A81823009F4F4C23E
:101C9000833051F0813009F0D1C20E9495299B8395
:101CA0008C837D836E83CCC280916E0490916F048F
:101CB000892B09F4C5C280911D0290911E029B835D
:101CC0008C8380911F02909120029D838E8380914E
:101CD0002102909122029F83888780912302909114
:101CE000240299878A87ACC28A81823009F0A6C211
:101CF0006B817C818D819E810E947B320E94BF1B03
:101D00009FC22D813E813227232732274C816B8150
:101D10008A810E94691A94C280E162C082E08A834B
:101D200089E0F9C1EA80FB80FE24EF24FE24AC8028
:101D3000B12CBDE1AB16B10408F082C26801C70145
:101D400089509E4F9601201B310B2A153B0508F048
:101D500077C2E9E0EE16E2E0FE0630F40E94E831D8
:101D6000D60114968C9302C0F6011482FFEFEF1A8D
:101D7000FF0A2FEFC21AD20AE2CF80916E0490912F
:101D80006F04892B09F45CC2EA80FB80FE24EF24F7
:101D9000FE24CC80D12C3DE1C316D10408F050C202
:101DA0005801C70189509E4F9501201B310B2C15FE
:101DB0003D0508F045C259E0E51652E0F50628F465
:101DC000D50114966C910E940632BFEFEB1AFB0A04
:101DD000EFEFAE1ABE0AE5CF0E94441A31C284E08A
:101DE0008A832EC2EA80FB80FE24EF24FE24AC808E
:101DF000B12CFDE1AF16B10408F022C26801C701A1
:101E000087969601201B310B2A153B0508F018C256
:101E100020E8E21621E0F20630F40E94E831D60113
:101E200014968C9302C0F6011482FFEFEF1AFF0A9A
:101E30002FEFC21AD20AE3CFEA80FB80FE24EF2400
:101E4000FE24AC80B12C3DE1A316B10408F0F8C12A
:101E500050E8E51651E0F50608F0F2C180E891E09F
:101E60008E199F098A159B0508F4EAC1370187E29C
:101E7000680E711C80916E0490916F04892B11F093
:101E8000680160C0E0FE0FC0C70186960E94E8317D
:101E900090E0982F88272D81822B81159C4531F465
:101EA0008FEF8D8303C0C12CD12C03C0CC24C394ED
:101EB000D12CC5018E0D9F1D450180FF1BC0B1E0D7
:101EC0008B1A910855E0452E512C4C0E5D1E480C86
:101ED000591CC3018A0D9B1D0E94E831F20120812B
:101EE00030E0322F2227282B21153C4519F48FEFA3
:101EF000D2018C93F801EC0DFD1D2FEFCF01801B5B
:101F0000910B8815990508F0BBCF848190E0982F3C
:101F100088273581832B81159C4511F424832583E3
:101F20003296ECCFE0E8EE16E1E0FE0628F4D601AA
:101F300014966C910E940632BFEFEB1AFB0AEFEF8A
:101F4000CE1ADE0AC70187969601201B310B2A158F
:101F50003B0540F375C180916E0490916F04892B0D
:101F600009F46EC1CE0101960E94812CFFEF21EE93
:101F700034E0F15020403040E1F700C000000E9402
:101F80003C295EC1EA818E2F90E08E30910508F0E9
:101F900057C1FC01EE58FF4F0C94753288E0E5E123
:101FA000F1E0DE01919601900D928A95E1F780E2D1
:101FB000D8011D928A95E9F785E0898388E0FE01C2
:101FC000B196DE01159601900D928A95E1F738C120
:101FD00084E18983B1E0BA831B821C8231C18C8188
:101FE00090E0982F88272B81820F911D092E000CDD
:101FF000AA0BBB0B35E0880F991FAA1FBB1F3A9590
:10200000D1F7AC01BD01405E5F4F6F4F7F4F481766
:1020100059076A077B0708F413C18431E1E09E0782
:10202000A105B10508F00CC14531F1E05F0761057C
:10203000710520F044E151E060E070E0481B590B6D
:10204000BC016C5E7E4FC8010E94CF31F9C040E2F6
:1020500050E06FEF70E0C8010E94BA3280916E04C8
:102060008983EA8221E02B831C8282E08D838BE0CE
:102070000AC181E090E0909373048093720482E33C
:1020800090E090931C0280931B020E94A1299093E0
:102090001A0280931902D4C0EF28A9F110912202EC
:1020A00013FB882780F910911F02182380911902D1
:1020B00090911A020E94862985369105F0F011232D
:1020C000E1F00E94A12990931A0280931902809155
:1020D0001B0290911C02019790931C0280931B029B
:1020E000892B89F4109273041092720481E090E0BD
:1020F00090936F0480936E0406C082E390E0909307
:102100001C0280931B0280916E048983809172046B
:102110008A8380911B028B8393C010926F0410926C
:102120006E048EC040E250E06FEF70E0C8010E9484
:10213000BA3286C08B81813059F018F08230F9F0C4
:102140007FC080E2D8011D928A95E9F788E077C0C8
:102150008C811AE07E01B1E2EB0EF11CF701212F18
:1021600011922A95E9F7B7010E94541A8983F70161
:10217000DE01129601900D921A95E1F761C06C8113
:102180008AE0FE013596DE01919601900D928A95C6
:10219000E1F789A19AA181153CE5930741F42091CB
:1021A0006E0430916F04232B11F480E090E09AA329
:1021B00089A38BA19CA181155CE5950741F4209131
:1021C0006E0430916F04232B11F480E090E09CA307
:1021D0008BA38DA19EA18115ACE59A0741F42091B6
:1021E0006E0430916F04232B11F480E090E09EA3E5
:1021F0008DA38FA198A58115BCE59B0741F4209183
:102200006E0430916F04232B11F480E090E098A7C6
:102210008FA3683070F4EAE06E9FB0011124695515
:102220007E4F4AE050E0CE0181960E942A3280E043
:1022300001C08FEF89830E94691B02C08FEF8983E1
:10224000CE0101960E94812C00CB19BD82E189BD8F
:1022500009B400FEFDCF8091D8008F7D8093D80017
:102260008091E00082608093E0008091E00081FD39
:10227000FCCF0E94962DF2CA86E290E00E94E831DF
:102280001B821C821D828E83DBCF80E0089590919B
:10229000600592FF0DC0282F2871283019F4877F20
:1022A000846006C0282F2471243011F48B7F88604D
:1022B00093FF0DC0282F2871283119F4877E84617F
:1022C00006C0282F2471243111F48B7E886120915F
:1022D000610520FF0DC0382F3871383019F4877F21
:1022E000816006C0382F3171313011F48E7F8860E3
:1022F00021FF0DC0282F2871283119F4877E8161B4
:1023000006C0282F2171213111F48E7E886194FD41
:10231000877E0895F894E82FE295EF70F0E031A100
:10232000282F2F7081E090E001C0880F2A95EAF7EE
:10233000982F9095932391A392A1892B82A37894AF
:102340000895CF93DF938238910569F1B0F481331A
:10235000910509F46FC048F48932910509F465C00C
:102360008A32910509F46BC06FC08533910509F479
:1023700057C089339105B9F067C0833E910571F16B
:1023800038F4803E9105B1F0823E910511F15CC0B8
:10239000863E9105B9F1873E9105C9F1843E9105CC
:1023A00009F052C024C02091600520FD2AC121FD02
:1023B00028C14AC08091600580FD1DC180916105E2
:1023C00080FF1FC18091600584FD12C183EE90E003
:1023D0002CC18091600582FF11C1F4CF809160050E
:1023E00082FD0CC18091610580FD0BC1EBCF809116
:1023F000610581FF0CC18091600584FDF9C087EE05
:1024000090E013C18091600583FFFEC0F4CF8091FE
:10241000600583FDF9C08091610581FDF8C0EBCFB7
:102420008091600585FDF6C0F8C08091600585FD4E
:10243000F4C0F0C08091600586FDF2C0F4C08091C8
:10244000600586FDF0C0ECC0811523E59207A8F574
:10245000811532E5930708F099C0811540E2940791
:10246000D0F4811521E0920708F0DFC0853A91058C
:1024700050F48430910508F0D8C0019709F0B8C035
:1024800081E090E0D2C09C01205E31092830310506
:1024900008F0AEC0CAC0811531E5930708F071C0DD
:1024A000811540E5940708F04EC0811520E492079D
:1024B00008F49EC09F70906AB8C0EC01811536E5A3
:1024C0009307F0F4811545E5940708F078C0C1152D
:1024D00084E5D80708F06EC09E012370332781E0A1
:1024E00090E002C0880F991F2A95E2F7C695C6951D
:1024F00020E2C29FE00111248C2B9D2B9A6895C08D
:1025000081152AE5920778F4811539E5930708F0DB
:102510005EC0811548E5940708F46AC0982F8827A3
:10252000806F906A82C090568115904208F060C01A
:102530008D2F8F710E944711282F2F71CE0199275F
:102540009062922B72C09C0174E0369527957A9523
:10255000E1F7922F9370482F437021E030E002C0E2
:10256000220F331F4A95E2F73C68392B8F70982F62
:102570009695969540E2949FC0011124822B932B4F
:1025800054C0982F8827816F906A4FC0AC01437068
:10259000552721E030E002C0220F331F4A95E2F7B1
:1025A0008695869540E2849FC0011124822B932B4F
:1025B0009C683BC09C2F8827846F906A36C00E941D
:1025C00047118F7190E0982F882790622EC08F70EE
:1025D0000E94471194E0D695C7959A95E1F7CF7080
:1025E000D0E0DC2FCC27D0699E01282BC9011DC06B
:1025F00080E090E01AC089E390E017C082EE90E09E
:1026000014C080EE90E011C086EE90E00EC084EE23
:1026100090E00BC089E290E008C085E390E005C03F
:102620008AE290E002C081E390E0DF91CF910895CB
:10263000CF9384E090E00E94E831C82F82E290E0DE
:102640000E94E8312C2F30E0A901582BCA01CF910C
:10265000089580E090E00E94F031893E9E4F11F491
:102660000C94F01B80E0089569EE7EEF80E090E02E
:102670000E94243260E082E090E00E94063260E036
:1026800083E090E00E9406321092A40260E084E0B1
:1026900090E00E94063260E082E290E00E94063202
:1026A00060E085E090E00E94063260E086E090E025
:1026B0000E9406326FEF87E090E00E94063240E011
:1026C00050E0BA0188E090E00E94183260E08DE0AE
:1026D00090E00E94063240E050E0BA0188E190E0CC
:1026E0000E94183260E087E190E00E94063240E0EC
:1026F00050E0BA018CE190E00E94183260E070E096
:1027000080E290E00E94243240E050E0BA0188E18B
:1027100090E00E94183280E00E94C31B0E94E11BDF
:1027200040E050E0BA018FE090E00E94183240E0B3
:1027300050E0BA0183E190E00C9418328091A3023A
:10274000882331F01092A3021092A2021092A102EB
:102750000895809590917804892380937804089552
:10276000809590917704892380937704089510923F
:10277000800210927F0210927E02089520918002C2
:102780008095822380938002982F977099F430E08F
:10279000482F082E000C550B2417350759F090913F
:1027A000610592FD07C08595859585950E94592DF7
:1027B0000C94B7130895CF93C0916105C2FB99277C
:1027C00090F9981799F080FBC2F9C0936105609168
:1027D000600584E090E00E9406326C2F82E290E077
:1027E0000E94063282E0CF910C94BE13CF910895DF
:1027F00080917D02811110927D02089580917C026A
:1028000090914B02891719F08F5F8770FBCF089565
:102810000F931F93CF93DF9380914A0282958F701D
:1028200009F05DC080914702882309F458C0809167
:102830007C0210914B026091450270914602C0915A
:102840004802D091490291E06F3F09F090E0292FB2
:1028500006E0811709F443C0209721F07F3F21F063
:1028600030E003C031E001C0322F90E030FD34C0D1
:10287000089FF001099FF00D1124DF01A45BBD4FFB
:1028800011963C911197371327C03C91361324C001
:1028900012963C91129731111FC013964D915C9185
:1028A00014974C1B5D0B483C5105B0F480914A02D3
:1028B0008F70806180934A02EF5AFD4F80818F7044
:1028C0008061808385E492E00E94EF03DF91CF91E5
:1028D0001F910F910C94FE1301968770BACFDF9170
:1028E000CF911F910F9108959F92AF92BF92CF9277
:1028F000DF92EF92FF920F931F93CF93DF93CDB7A9
:10290000DEB761970FB6F894DEBF0FBECDBF8C0166
:1029100085E0F801DE011D9601900D928A95E1F7A0
:10292000F801E28090914502609146024091480290
:10293000509149024115510531F06F3F31F481E06A
:102940009F3F19F403C081E001C080E0F82FF170CF
:102950009F2E80FD1AC1F80130812181C380D4806F
:1029600085E4A82E82E0B82EF0904702F601E41B21
:10297000F50BFF2009F4C6C080914A02E83CF1053E
:1029800008F091C0482F407F09F050C0621311C079
:1029900093130FC0FE2CE1100CC08F7080618093E8
:1029A0004A02C5010E94EF0380914A02F801858323
:1029B00029C1CD2831F02F3F31F481E03F3F19F498
:1029C00003C081E001C080E080FD03C081E08E256E
:1029D00002C080E090E0F82FF170FF2E80FF1CC055
:1029E00080917C0240914B0256E0841709F4E8C0C4
:1029F00090E0589FF001599FF00D1124E45BFD4FCA
:102A00006181261306C06081631303C06281E612F0
:102A100003C001968770E9CFFE2CEE2009F4F2C0C6
:102A200080914A02816080934A0249C0621306C0C5
:102A3000931304C0E11002C0F80186C0C8010E94CF
:102A4000762D882351F1EE2041F120914A02822F08
:102A500082958F7090E0029774F08091450290917A
:102A6000460298878F831986DB86CA862C87CE011B
:102A700007960E94EF0386E0F801A5E4B2E001901A
:102A80000D928A95E1F70E9408140AC06217C9F0F6
:102A9000C8010E94762D81111EC0C8010E94EF035B
:102AA000FF24F394AFC0482F407F81F785E492E084
:102AB0000E94EF0386E0F50111928A95E9F7F12C67
:102AC000A1C09313E5CFE110E3CFF8018583C801DE
:102AD0000E94EF0354C0EE2001F320914A02822F9E
:102AE00082958F7090E0029734F280914502909128
:102AF00046029A8389831B82DD82CC822E83CE019B
:102B00000196B7CFE83CF105D0F5FE2CEE2029F276
:102B1000621327C0931325C020914A0220FD18C0DC
:102B2000822F82958F70482F50E04115510581F01A
:102B3000F80125834F30510541F08F5F982F929512
:102B4000907F822F8F70892B8583C8010E94EF03AD
:102B500086E0F801A5E4B2E001900D928A95E1F7D4
:102B600051C0C8010E94762D811185CF80914A0203
:102B7000816080934A02C8010E94EF0343C086E04F
:102B8000F50111928A95E9F73DC0EE2009F485CF51
:102B9000C8010E94762DF82E882309F47ECF86E0A6
:102BA000F801A5E4B2E001900D928A95E1F78091D9
:102BB0004502909146020E94E92C0E94081422C00E
:102BC0003D872E878D859E850E94E92C292F229591
:102BD0002F70223028F49F7039F0811105C00BC08E
:102BE000243028F49F7049F4805E883020F0C801BA
:102BF0000E94EF039F2CF92C05C0F8019581907F6E
:102C000099F7F9CF8F2D61960FB6F894DEBF0FBEFE
:102C1000CDBFDF91CF911F910F91FF90EF90DF908B
:102C2000CF90BF90AF909F9008959091770480913E
:102C30007804892B809325028091A302882361F177
:102C40000E94A1292091A1023091A202821B930B24
:102C50008838934110F00E949E1390912502809134
:102C6000A302892B8093250280911001882331F0E3
:102C70008091600587FF02C08EE101C086E0E7E237
:102C8000F2E090E0815028F021912223D9F39F5F58
:102C9000F9CF91110E949E1340E250E061E872E08A
:102CA00085E292E00E94A432892B21F180E2E5E2E4
:102CB000F2E0A1E8B2E001900D928A95E1F7E0918F
:102CC0002B05F0912C053097A9F0809110018823F5
:102CD00059F08091600587FF07C08091250280939D
:102CE000260286E0809325020280F381E02D85E2B2
:102CF00092E0099408959091610592FD10C098E0CA
:102D0000899F90011124262B209380020E94652D1B
:102D10000E94A12990937F0280937E0208950C94D3
:102D2000652D8F929F92AF92BF92CF92DF92EF92DA
:102D3000FF920F931F93CF93DF93CDB7DEB7289702
:102D40000FB6F894DEBF0FBECDBFAE014F5F5F4F31
:102D50007A0188E0DA011D928A95E9F700E211E034
:102D6000CC24C394D12CAA24A394B12C4E01B9E055
:102D70008B0E911CF80180818F3F09F44AC0F894B2
:102D8000E82FE295EF70F0E021A18F70A50102C05D
:102D9000440F551F8A95E2F7CA01922F982B91A3F1
:102DA00092A18095892382A3789400C06CE271E09F
:102DB000F701A60140955095DB012D91BD012F3FF4
:102DC000A9F0822F82958F7090E0DC0190968C9113
:102DD00090E02F7002C0959587952A95E2F780FDC7
:102DE00005C0808191818C299D2904C080819181B9
:102DF000842395239183808332968E169F06E1F675
:102E0000F80180818F3F11F00E948A11F0EAFA9553
:102E1000F1F7CC0CDD1C0F5F1F4F41E00C321407A3
:102E200009F0A8CF48E050E0B70187E092E00E94A7
:102E3000A43211E0009709F410E0892B89F088E0B2
:102E4000F701A7E0B2E001900D928A95E1F781E0E9
:102E50008093A7020E94A1299093A6028093A502C5
:102E60008091A702882351F18091A5029091A6023A
:102E70000E948629059710F180910702909108021F
:102E800090931E0280931D028091090290910A0284
:102E90009093200280931F0280910B0290910C026C
:102EA000909322028093210280910D0290910E0254
:102EB00090932402809323021092A702812F2896D8
:102EC0000FB6F894DEBF0FBECDBFDF91CF911F913B
:102ED0000F91FF90EF90DF90CF90BF90AF909F90B9
:102EE0008F900895E4EDF5E0248130E1231B08F490
:102EF00020E024838091D30581608093D3050895D9
:102F0000E4EDF5E0248130E1230F08F42FEF248372
:102F10008091D30581608093D3050895FF920F932C
:102F20001F93CF93DF9300D000D0CDB7DEB78F32A1
:102F3000910568F5122F042FF62EBC01660F771F3E
:102F4000660F771F685D7D4F44E050E0CE0101962B
:102F50000E94CF31898183702A81E82FF0E030EC24
:102F6000839FC001112484529D4FDC01A20FB11D2B
:102F7000FC922B81DC01A20FB11D0C932C81DC0192
:102F8000A20FB11D1C93E652FD4F81E080830F908C
:102F90000F900F900F90DF91CF911F910F91FF90A5
:102FA0000895FF920F931F93CF93DF93182F062F4F
:102FB000F42EC0E0D0E02F2D402F612FCE010E94D3
:102FC0008E172196CF32D105B1F7DF91CF911F91A6
:102FD0000F91FF9008950F931F93CF938091DA0282
:102FE000882331F165EC8EEF0E94A72C61E08DEF14
:102FF0000E94A72C0CED12E0C0E0C0939005E1E91F
:10300000F5E0D8018D91819385E0E13AF807D1F799
:1030100024E630E041E150E060E975E080EA0E949A
:103020009431892B59F4C05F005F1F4FC03C29F7D2
:103030001092DA02CF911F910F91089581E0809351
:10304000D802F6CFAF92BF92CF92DF92EF92FF926B
:103050000F931F93CF93DF9300D000D0CDB7DEB78F
:103060000E94DD3065EC8EEF0E94A72C60E08DEFB2
:103070000E94A72C10E060E0812F0E94A72C1F5F08
:103080001831C9F765EC8EEF0E94A72C61E08DEF37
:103090000E94A72C10E060E0812F0E94A72C1F5FE8
:1030A000103CC9F765EC8EEF0E94A72C63E08DEF12
:1030B0000E94A72C60E08FE00E94A72C60E080E1D6
:1030C0000E94A72C6FEF81E00E94A72C61E080E0B6
:1030D0000E94A72C8FE39CE90197F1F700C0000044
:1030E00008E212E094EEC92E92E0D92E28E1A22E39
:1030F000EE24E394F12CBB24B39444E050E0B801F7
:10310000CE0101960E94CF316A815B814C81898119
:10311000837090E0762F769576957695A89E9001AF
:10312000A99E300D112428553D4FF901E70FF11DDF
:103130006770D70102C0AA0FBB1F6A95E2F7BD01F5
:103140007081672B6083652F669566956695F9019A
:10315000E60FF11D5770B70101C0660F5A95EAF7E7
:103160005081652B6083542F569556955695F901DD
:10317000E50FF11D4770970102C0220F331F4A95DA
:10318000E2F7A9012081422B4083FC01E852FD4F68
:10319000B0820C5F1F4FC016D10609F0AECF8091F0
:1031A000D802811111C01092D8020F900F900F9089
:1031B0000F90DF91CF911F910F91FF90EF90DF90D3
:1031C000CF90BF90AF90089565EC8EEF0E94A72C32
:1031D00060E08DEF0E94A72C88EAE82E82E0F82EAE
:1031E00010E0D7016D917D01812F0E94A72C1F5FF8
:1031F0001831B9F7D8CFE4EDF5E0438120E1421B67
:1032000008F440E08181628190E00C94AD29E4ED06
:10321000F5E0438120E1420F08F44FEF81816281A4
:1032200090E00C94AD29E4EDF5E0628120E1621BB1
:1032300008F460E08181438190E00C94AD29E4EDD5
:10324000F5E0628120E1620F08F46FEF8181438134
:1032500090E00C94AD29E4EDF5E0818190E04381AC
:10326000628108970C94AD29E4EDF5E0818190E04E
:103270004381628108960C94AD298091D40586958E
:103280008695815009F485E10C94C0291F920F9214
:103290000FB60F9211248F939F93AF93BF9380919A
:1032A0002D05811113C080915C0590915D05A09161
:1032B0005E05B0915F054196A11DB11D80935C052F
:1032C00090935D05A0935E05B0935F05BF91AF91AC
:1032D0009F918F910F900FBE0F901F901895209186
:1032E00010012223C9F02091600527FF15C0262F69
:1032F0002695269526952E31C8F4FC01E20FF11D86
:10330000677081E090E001C0880F6A95EAF78095C8
:103310009281892382830895FC010696228162139B
:1033200001C012823196E817F907C1F7089520917C
:1033300010012223C1F02091600527FF14C0262F21
:103340002695269526952E3130F5FC01E20FF11DCC
:10335000677081E090E001C0880F6A95EAF792817A
:10336000892B82830895FC0132962FEF30E0419142
:10337000641789F02F3F19F4411101C0232F3F5FDB
:103380003630A9F72F3F39F0FC01E20FF11D27FD80
:10339000FA95628308950895E0912B05F0912C052C
:1033A000309721F00190F081E02D099480E008959C
:1033B000EF92FF920F931F93CF93DF93FC0122852F
:1033C000211136C0EC01E380F480F7E5FF1A26E115
:1033D0002E9DC0012F9D900D1124DC01A558BB4FDF
:1033E0001496ED91FC9115978F579B4F309729F0CC
:1033F00054966D917C915597099586E18E9D80013B
:103400008F9D100D112405581B4FF80187810E94D4
:10341000B013F80180850E94A9130E941516188226
:1034200019861B861E821D8210927A0410927904DE
:10343000DF91CF911F910F91FF90EF900895CF935F
:10344000DF93FC01218921111CC0EC0181E0818BFB
:10345000909177048781892B8093770490917804E9
:103460008085892B809378040E941516EA81FB8160
:10347000CE010696309729F06C897D89DF91CF9136
:103480000994DF91CF910895CF93DF93C7EFD1E0F7
:1034900060E0CE010E9406322196C11584E0D80773
:1034A000B9F7DF91CF910895883080F49B01982F70
:1034B0008AE0989FB001112469557E4F4AE050E0A0
:1034C000C9010E94D83180E090E008958FEF9FEF0E
:1034D00008950F931F93CF93DF93843058F5643092
:1034E00048F54C3038F521159CE5390731F4E09169
:1034F0006E04F0916F04EF2BE9F08901C42FD0E046
:10350000CC0FDD1F98E1699FC00DD11D112490E6FD
:10351000899FC00DD11D1124612FCE0187960E9475
:103520000632602FCE018896DF91CF911F910F91C7
:103530000C940632DF91CF911F910F9108956F92F5
:103540007F928F929F92AF92BF92CF92DF92EF9233
:10355000FF920F931F93CF93DF93CDB7DEB72A97D8
:103560000FB6F894DEBF0FBECDBFA0906E04B09032
:103570006F0481E090E090936F0480936E04612C5F
:10358000C12CD12C712CE12CF12C00E010E0460173
:103590008E0C9F1CF801EE0FFF1FE80DF91DEC517A
:1035A000FD4F25913491402F672D862D0E94691A79
:1035B0000F5F1F4F0C30110569F788E1E80EF11C11
:1035C000739484E07812E1CF80E6C80ED11C639436
:1035D00084E06812D7CF1A8219821C821B821E8255
:1035E0001D8218861F8288EC90E09A87898707EAF7
:1035F00011E04AE050E0B801CE0101960E942A3263
:10360000065F1F4F073F81E0180799F7B0926F04DC
:10361000A0926E042A960FB6F894DEBF0FBECDBFFF
:10362000DF91CF911F910F91FF90EF90DF90CF909E
:10363000BF90AF909F908F907F906F9008950F9361
:103640001F93CF93DF93843008F56430F8F44C3047
:10365000E8F4C42FD0E0CC0FDD1F28E1629FC00D3D
:10366000D11D112430E6839FC00DD11D1124CE0140
:1036700087960E94E83190E0182F0027CE018896A7
:103680000E94E8319801282BC90102C080E090E037
:10369000DF91CF911F910F910895462F20917204D1
:1036A00030917304232B91F47E3F39F46E3F71F413
:1036B00080917004909171040895843038F47430CE
:1036C00028F46C3018F4672F0C941F1B80E090E0F6
:1036D00008958F929F92AF92BF92CF92DF92EF9216
:1036E000FF920F931F93CF93DF93CDB7DEB72A9747
:1036F0000FB6F894DEBF0FBECDBF0BE714E0E12C90
:10370000F12C8EE7C82E8DE1D82E99EAA92E9DE1E5
:10371000B92E25ED822E2CE1922EF801D182C082A5
:10372000B382A28295828482F58AE48ABE016F5FA9
:103730007F4F8E2D0E94541A892B29F489859A85F2
:10374000F801938B828BFFEFEF1AFF0A0A5E1F4F7F
:1037500088E0E816F10409F72A960FB6F894DEBF60
:103760000FBECDBFDF91CF911F910F91FF90EF90D2
:10377000DF90CF90BF90AF909F908F90089586E29A
:1037800090E00C940632CF93C82F811102C06FEFE6
:1037900001C06AEA83E290E00E940632C11102C0D1
:1037A0006FEF01C060EE84E290E00E940632C1112A
:1037B00002C06FEF01C06DE085E290E0CF910C9404
:1037C000063280E00E94C31B60E070E0CB010E94E3
:1037D000BF1B0E949F1A0E94441A81E00C94C31BD5
:1037E00083E290E00E94E8318A3A81F484E290E03A
:1037F0000E94E831803E51F485E290E00E94E83179
:1038000091E08D3009F090E0892F01C080E0817057
:103810000895882311F0FA0101C0FB0109940F9368
:103820001F93CF93DF93C42FD22FFC018281882373
:10383000C9F0409376040E94A12990937504809367
:10384000740480E28C0F883008F057C0C77081E0A4
:1038500001C0880FCA95EAF7DF91CF911F910F91B0
:103860000C94C52D80917604481330C08091740467
:10387000909175040E948629883C910538F510E2E4
:103880001D0FCD17B9F080E28C0F883040F4C7705F
:1038900081E001C0880FCA95EAF70E94BE2D18305A
:1038A00028F581E09D2F977001C0880F9A95EAF75F
:1038B0000E94C52D802F0E94752E1830F0F4D7700D
:1038C00081E001C0880FDA95EAF70AC080E28C0F28
:1038D000883098F4C77081E001C0880FCA95EAF774
:1038E000DF91CF911F910F910C94BE2D802FDF910E
:1038F000CF911F910F910C94752EDF91CF911F9155
:103900000F9108950F931F93CF93DF9300D000D0B2
:103910001F92CDB7DEB78C01909371048093700431
:10392000011580E2180738F5802F0E94CF2DC801BD
:10393000805E9109089718F00115110571F4C8010E
:103940000E94462F0F900F900F900F900F90DF91D5
:10395000CF911F910F910C94BE2DC8010E94462F4C
:103960000F900F900F900F900F90DF91CF911F91BC
:103970000F910C94AD2D8EEF89838A831B820E9458
:10398000A1298160782F9D838C8349815A816B8125
:103990008D810E94732F0F900F900F900F900F90BA
:1039A000DF91CF911F910F9108950F931F93CF93A4
:1039B000DF938C01EB0164E674E08C2F0E94541AB3
:1039C000892B09F040C0DD27C45ADB4F8881F801FC
:1039D00010821882833079F048F4813041F18230CE
:1039E00091F5809166049091670409C0843051F08C
:1039F0008530E9F028C080916804909169040097AF
:103A0000B1F01BC080916A0490916B040097A9F4F7
:103A1000209164043091650480916604909167045C
:103A20002115310541F0009741F4C90106C080918C
:103A3000640490916504009731F0DF91CF911F915C
:103A40000F910C94821CDF91CF911F910F910895DB
:103A50000F931F93CF93DF9300D000D01F92CDB769
:103A6000DEB78C019093710480937004011580E29D
:103A70001807F8F4C801805E9109089718F001153D
:103A8000110531F4C8010E94462F0E94C52D05C0C2
:103A9000C8010E94462F0E94B42D802F0F900F90D6
:103AA0000F900F900F90DF91CF911F910F910C9479
:103AB0001C2E8EEF89838A8381E08B830E94A1294B
:103AC0008160782F9D838C8349815A816B818D81A0
:103AD0000E94732F0F900F900F900F900F90DF9117
:103AE000CF911F910F910895CF93DF93EC010E9426
:103AF000281DCE01DF91CF910C94821C0F931F9350
:103B0000CF93DF938C01862F64E674E00E94541AF1
:103B1000892BD1F4C0916404D09165042097A1F061
:103B2000F8018081833039F4CE010E94741DCE01EA
:103B30000E94741D02C0843038F0CE01DF91CF9115
:103B40001F910F910C94741DDF91CF911F910F91D4
:103B500008950F931F93CF93DF938C01EB0164E6DD
:103B600074E08C2F0E94541A892B09F06DC0DD2758
:103B7000F8018081813041F49185911115C09285C1
:103B8000992391F082E010C0823049F4F8018185D8
:103B9000811107C08285811106C083E005C086E0DF
:103BA00003C085E001C084E0C45ADB4F88838330C2
:103BB000B1F028F4813071F0823031F045C08430AA
:103BC000A9F0853079F140C0809166049091670436
:103BD0000097A1F5809164049091650420C08091C4
:103BE0006804909169040097E9F028C080916A0404
:103BF00090916B04009711F5809164049091650495
:103C0000009749F00E94741D8091660490916704AA
:103C1000009781F013C0809166049091670400972B
:103C200099F00CC08091640490916504009761F054
:103C30000E94741D8091640490916504DF91CF917E
:103C40001F910F910C94281DDF91CF911F910F911F
:103C50000895EF92FF920F939701201B31092F3F98
:103C6000310519F010F02FEF30E02095382F320F8A
:103C700008F43FEF832F0F91FF90EF900895EF929C
:103C8000FF920F939701201B31092F3F310519F047
:103C900010F02FEF30E0322F3095482F430F08F40B
:103CA0004FEF842F620F0F91FF90EF900895EF92E6
:103CB000FF920F93972F093438F4B701601B7109F5
:103CC0006F3F710519F010F06FEF70E0485F5F4FC4
:103CD0004131510540F0A901485F5F4F4131510525
:103CE00010F06FEF70E06095482F460F08F44FEF2B
:103CF000842F37FF02C02D5F3F4F359527953595AF
:103D000027956091D505620F792F0F91FF90EF9065
:103D10000895EF92FF920F93E00EF11CF90137FF27
:103D200003C0F195E195F10924E0EE0FFF1F2A95FC
:103D3000E1F7EF3FF10519F014F0EFEFF0E09A0131
:103D400057FF03C031952195310994E0220F331FAD
:103D50009A95E1F72E173F070CF4F901EE0DFF1DC0
:103D6000EF3FF10519F010F0EFEFF0E02E2F209566
:103D7000382F320F08F43FEF832F0F91FF90EF9011
:103D80000895EF92FF920F93970195E0099F200D00
:103D9000311D11242F3F310519F010F02FEF30E0C5
:103DA0002095382F320F08F43FEF832F0F91FF90AB
:103DB000EF90089522E8241B08F420E0620F089594
:103DC0004095282F429F412D1124842F0895E42FE0
:103DD000F0E0EE0FFF1FE95BFE4F61A9621B089543
:103DE000E42FF0E0EE0FFF1FE958FE4F6081621BE9
:103DF0000895622F0895E42FF0E0EE0FFF1FE958B9
:103E0000FE4F408134EE439F412D1124E82FF0E016
:103E100050E0445E5F4FDA01A21BB1099D01B7FF7C
:103E200003C031952195310993E0220F331F9A95F4
:103E3000E1F7AF01421B530B9A0157FF02C020E08C
:103E400030E0582F259F212D1124822F0895E42F33
:103E5000F0E0EE0FFF1FE958FE4F408134EE439F24
:103E6000412D1124E72FF0E050E0445E5F4FDA016E
:103E7000A21BB1099D01B7FF03C0319521953109FE
:103E800093E0220F331F9A95E1F7AF01421B530BCA
:103E90009A0157FF02C020E030E0279F212D112416
:103EA000722F08950C94D117FC019B01009721F407
:103EB00077FF2BC080E80895AC0197FF04C044272A
:103EC0005527481B590BB901640F751F37FD0CC0EE
:103ED000241B350BC901A5E0880F991FAA95E1F7AE
:103EE0000E94423280E20CC0CB0165E0880F991F2E
:103EF0006A95E1F7BA01621B730B0E94423280E6B9
:103F0000861BF7FF03C08195089580E00895EF9226
:103F10000F931F93CF93DF93D62FC72F182FC9016D
:103F20000E19010FBA010E94541F081B202F219F58
:103F3000212D1124822F6D2F7C2FDF91CF911F9186
:103F40000F91EF900895EF920F931F93CF93DF930C
:103F5000D62F172FC82FC9010E19070FBA010E94BB
:103F6000541F702F781B719F712D11246D2F8C2F72
:103F7000DF91CF911F910F91EF900895FF920F93D2
:103F80001F93CF93DF93F62ED72F182FC901C12F80
:103F9000C01BBA010E94541F982F990F890FC81B8C
:103FA0002C2F219F212D1124822F6F2D7D2FDF910A
:103FB000CF911F910F91FF900895FF920F931F9340
:103FC000CF93DF93F62E172FD82FC901C72FC01B11
:103FD000BA010E94541F982F990F890F7C2F781BCC
:103FE000719F712D11246F2D8D2FDF91CF911F9116
:103FF0000F91FF9008958091D405869586958F5FE7
:10400000863108F081E00C94C029E4EDF5E0908160
:1040100081E089278083109214018091D30581600B
:104020008093D30508950C948E17E4EDF5E085E3B5
:10403000808380911D0190911E01A0911F018183B9
:104040009283A3838FE784838FEF858346E050E0DC
:104050006CE170E0CF010E94F6311092D305089513
:10406000BC018230910508F40895613E8EE1780725
:1040700048F49B0195E0369527959A95E1F748E03D
:10408000420F01C04FEF91E0242F30E0290F311D86
:1040900035952795229FF001239FF00DF00D1124F7
:1040A0006E177F0718F44FEF420F04C02F3F39F00F
:1040B00091E0920F491740F78FEF890F08958FEF26
:1040C000089520E030E0869F212D969F200D311D20
:1040D0001124C9010895BF92CF92DF92EF92FF920F
:1040E0000F931F93CF93DF93C82F80910F018C13F1
:1040F0000DC02091D405237030E040910E0150E0B6
:1041000081E02417350719F480E001C081E0817057
:10411000809313018091D90590911201981739F07D
:104120008093120140E060E080E00E94521FCB309B
:1041300029F487E89FE10E947B2B31C0CC3008F046
:10414000A1C1C53009F43FC008F07BC1C23009F4F9
:10415000A4C008F0F1C0CC2309F494C0C13009F028
:10416000F2C0D0911101DD0F8D2F880F880FD80F6D
:104170001AE01D0F103308F01FE26091D505709111
:10418000D6058091D7050E944D30062FF72EE82ED8
:10419000D11708F4BFC081E01F3208F07CC09091B5
:1041A00011019F5F909311018111DFC182E0809323
:1041B0001401809113018111D8C1C111D6C183E0CE
:1041C00080931401D2C1D0911101DD0F8D2F880F82
:1041D000880FD80F1AE01D0F103308F01FE2F0907F
:1041E000D5050091D605E090D7056091D805669574
:1041F000669566958091A5059091A6050E9461201F
:10420000382F982F36FD9095E92FEF739F7036FD6C
:104210009F5FE295EF70EE0FF0E0E05DFE4F818171
:10422000899F802D212D112482958F702295207FCA
:10423000822B9081890F37FD819587FD8195880FAD
:10424000282F3E2D239F212D1124822F6F2D702F7B
:104250000E944D30062FF72EE82ED11708F09BCF85
:10426000ED2FF0E0DF01AB52BE4F8C919091120127
:10427000982331F02E2D402F6F2DCF010E94132057
:10428000DF5FEBCF80911301882329F040E060E0ED
:1042900080E00E94521F80E082CFD0911101DD0F9B
:1042A0008D2F880F880FD80F1AE01D0F103308F0DC
:1042B0001FE2F090D6050091D705E090D505B70133
:1042C000802F0E944D30D62EC72EB82E6091D80573
:1042D0006E0D7F2D802F0E944D30062FF72EE82E79
:1042E000D11708F058CF8D2F90E0FC01EB52FE4F14
:1042F000308120911201232359F030FF04C02E2D6C
:10430000402F6F2D03C02B2D4D2D6C2D0E9413209F
:10431000DF5FE6CFED2FF0E0DF01AB52BE4F8C91B7
:1043200090911201982331F02E2D402F6F2DCF0147
:104330000E941320DF5F2CCF80911101C33049F020
:10434000C43009F440C0809111018F5F8093110146
:104350002DCF880FD82FDD0FDD0FD80F1AE01D0FDE
:10436000103308F01FE2D090D605C090D7052091F9
:10437000D80500E4029F012D1124D11708F00BCFBE
:10438000ED2EF12CF701EB52FE4F9081809112013E
:104390008923B9F0F701EE0FFF1FE95BFE4F81A9FA
:1043A00082958F706091D505809F600D11247D2DC1
:1043B0008C2D0E944D30462F282F672FC7010E9459
:1043C0001320DF5FDACF880FD82FDD0FDD0FD80F76
:1043D0001AE01D0F103308F01FE2D090D605C090F0
:1043E000D7052091D80500E4029F012D1124D11793
:1043F00008F0D1CEED2EF12CF701EB52FE4F90815B
:10440000809112018923D9F0F701EE0FFF1FE958BF
:10441000FE4F6081069FB001112445E075956795B8
:104420004A95E1F78091D505680F7D2D8C2D0E946E
:104430004D30462F282F672FC7010E941320DF5FC2
:10444000D6CFC83019F48DED9FE106C0C93038F0E1
:10445000C93091F48EEB9FE10E94F82BA0CEC630BC
:1044600019F487E29FE105C0C73009F06CCF8BEFEC
:104470009EE10E942C2B93CECA3009F064CF83EAD0
:104480009FE159CEC13161F481EC9EE106C0C53196
:1044900098F5C23159F589E89EE10E94E4297FCE62
:1044A000C231F8F4CE3019F487EE9EE1E2CFCF307E
:1044B00058F4CC3019F489EF9EE1DBCFCD3009F010
:1044C00042CF80EF9EE1D5CFCF3019F480EE9EE150
:1044D00005C0C03109F037CF8AED9EE10E94B62AAF
:1044E0005ECEC431A1F68FE39EE1D7CFC33109F090
:1044F0002ACF87E59EE1D1CFC53119F489E29EE14B
:10450000CCCFCF3F09F01FCF8091A5059091A60594
:10451000A091A705B091A80588279C70AA27BB2762
:104520002AE0B695A795979587952A95D1F7823079
:104530009105A105B10571F083309105A105B10583
:1045400069F040E00197A105B10511F060E008C0F5
:1045500064E102C044E160E080E003C044E164E162
:1045600084E10E94521F82E02BCEDF91CF911F91F8
:104570000F91FF90EF90DF90CF90BF9008954F92F2
:104580005F926F927F928F929F92AF92BF92CF92E3
:10459000DF92EF92FF928091570590915805A0917C
:1045A0005905B0915A052FB7F894C0905C05D0908A
:1045B0005D05E0905E05F0905F052FBFC81AD90A2F
:1045C000EA0AFB0A0E9495294B015C01609357059A
:1045D000709358058093590590935A05A0912E0524
:1045E000EEE2F5E08A2F90E04FEF5FEF60E070E0E1
:1045F0004C195D096E097F09A91799F0218D328D3B
:104600002901612C712C441555056605770510F4B8
:10461000815004C02C0D3D1D328F218F9F5F32963B
:10462000EBCF80932E0580915B05811108C08091AE
:10463000D405982F937019F08695869501C080E077
:10464000909114019130D9F028F0923031F19330EB
:1046500089F15BC0109211018092A5059092A60588
:10466000A092A705B092A80589E2EEE2F5E0A9EADA
:10467000B5E001900D928A95E1F781E018C0FF90B6
:10468000EF90DF90CF90BF90AF909F908F907F90F2
:104690006F905F904F900C946B2080930F018091EE
:1046A000D405837080930E010E94EB1783E0809302
:1046B00014012BC08091D305882351F046E050E0CF
:1046C0006CE170E084ED95E00E94F6311092D30524
:1046D0004091A5055091A6056091A7057091A80588
:1046E0002FB7F89480915C0590915D05A0915E05CF
:1046F000B0915F052FBF841B950BA60BB70B40979E
:10470000A105B10510F010921401FF90EF90DF9019
:10471000CF90BF90AF909F908F907F906F905F9061
:104720004F9008958091880587FF11C08091E8001F
:1047300082FD05C08091A4058111F8CF11C0809140
:10474000E8008B770BC08091A405882349F0809105
:10475000E80080FFF8CF8091E8008E778093E80032
:104760000895982F973068F59093E900981739F0DD
:104770007091EC002091ED005091F00003C0242FC7
:10478000762F50E021FD02C09F5FECCF3091EB000F
:104790003E7F3093EB003091ED003D7F3093ED0094
:1047A0003091EB0031603093EB007093EC0020937C
:1047B000ED005093F0002091EE0027FDE5CF80E062
:1047C00008958F708093E90081E0089520918E050F
:1047D00030918F052617370748F06115710539F4B8
:1047E0002091E8002E772093E80001C0B901FC0178
:1047F00020E06115710579F18091A4058823F1F11C
:104800008530F1F18091E80083FD3CC08091E800A3
:1048100082FD2EC08091E80080FFEBCF2091F30055
:104820008091F20090E0922B6115710551F0883073
:10483000910538F421912093F1006150710901969E
:10484000F3CF21E0089709F020E08091E8008E770F
:104850008093E800CECF2111CFCF0AC08091A4056C
:10486000882361F0853061F08091E80083FD0AC003
:104870008091E80082FFF2CF80E0089582E0089501
:1048800083E0089581E008950895089508950895B6
:10489000809164050895CF93DF9320911001222326
:1048A00039F02091600527FF03C060E224E002C0D8
:1048B00068E021E02093E9002FEF3091E8002150DB
:1048C00035FD06C035ED3A95F1F700002111F5CF21
:1048D0002091E80025FF1DC0EC018091100181119D
:1048E00005C040E050E068E070E003C070E040E0E8
:1048F00050E0CE010E94552C8091E8008E77809385
:10490000E80080E2FE01A5E6B5E001900D928A95EF
:10491000E1F7DF91CF9108951F93CF93DF93CDB748
:10492000DEB7AA970FB6F894DEBF0FBECDBFE8E89A
:10493000F5E080E995E02091F10021938E179F0723
:10494000D1F780918905833009F463C030F4813058
:1049500071F0823009F49DC0B4C08A3009F489C076
:104960008B3009F46EC0893009F0ABC020C0809153
:104970008805813A09F0A5C08091E800877F80937F
:10498000E80080918C0590918D05892B21F460E2DF
:1049900085E695E003C060E080E090E070E00E9472
:1049A000E6238091E8008B778093E8008AC08091AD
:1049B0008805813209F085C080918C0590918D0524
:1049C000009719F0029709F07CC08091E800877F7A
:1049D0008093E8008091E80082FD05C08091A405E5
:1049E0008111F8CF6EC02091F3008091F20090E029
:1049F000922B029731F48091F100813011F08630D2
:104A000021F48091F100809364058091E8008B7718
:104A100054C080918805813A09F053C080918C057B
:104A200090918D05892B09F04CC08091E800877F1B
:104A30008093E8008091E80080FFFCCF8091100116
:104A400037C0809188058132E1F580918C05909185
:104A50008D05892BB1F58091E800877F8093E80070
:104A60000E94922380918A05809310010E94962DC6
:104A700028C080918805813221F58091E800877FE8
:104A80008093E8000E94922380918B0580936305B8
:104A900018C080918805813AA1F48091E800877F51
:104AA0008093E8008091E80080FFFCCF809163054F
:104AB0008093F1008091E8008E778093E8000E9457
:104AC00092238091E80083FFEBC18091880590914B
:104AD0008905492F50E04A30510508F0E1C1FA013B
:104AE000E058FF4F0C947532803821F0823809F07D
:104AF000D7C108C08091850590918605992389F0DA
:104B000082600FC080918C058F70873008F0C8C11B
:104B10008093E9008091EB0085FB882780F9109253
:104B2000E9009091E800977F9093E8008093F1006E
:104B30001092F1007CC1282F2D7F09F0B1C188238C
:104B400019F0823061F0ACC180918A05813009F0A2
:104B5000A7C1933009F080E0809386052EC0809134
:104B60008A0581112AC080918C058F702FEF280F44
:104B7000263008F095C18093E9002091EB0020FFDA
:104B80001CC0933021F48091EB00806214C090919E
:104B9000EB0090619093EB0021E030E0A90102C0AE
:104BA000440F551F8A95E2F74093EA001092EA00FD
:104BB0008091EB0088608093EB001092E900809177
:104BC000E800877F8093E8000E94922369C18111E9
:104BD00067C110918A051F778091E3008078812B4F
:104BE0008093E3008091E800877F8093E8000E9433
:104BF00092238091E80080FFFCCF8091E3008068E1
:104C00008093E300111102C082E001C083E0809331
:104C1000A40546C18058823008F042C120918A051F
:104C200030918B052C3D53E0350779F583E08A837D
:104C30008AE289834FB7F894DE01139620E03EE0C4
:104C400051E2E32FF0E050935700E49120FF03C0BE
:104C5000E295EF703F5FEF708E2F90E0EA3010F03A
:104C6000C79601C0C0968D939D932F5F243149F75D
:104C70004FBF8091E800877F8093E8006AE270E090
:104C8000CE0101960E94E623C0C080918C059091D0
:104C90008D05432F552743305105B1F068F441305D
:104CA000510509F40CC14230510509F0F9C08BE5FA
:104CB00090E0E1E0F5E057C04132510589F1423220
:104CC000510509F43CC0ECC0C90199278130910518
:104CD000B9F070F082309105D9F0039709F0E0C087
:104CE000EEE6F5E0E4918E2F90E0EEE6F5E038C0D8
:104CF000E6EBF5E0E4918E2F90E0E6EBF5E030C0D6
:104D0000ECE9F5E0E4918E2F90E0ECE9F5E028C0C5
:104D1000ECE8F5E0E4918E2F90E0ECE8F5E020C0BF
:104D20008330910508F0BCC0880F991FFC01EF5B30
:104D3000FE4F0190F081E02D89E090E014C08330B7
:104D4000910508F0ADC0FC01EE0FFF1FE55CFE4FC2
:104D50000190F081E02DDC01A85CBE4F8C9190E0C9
:104D6000009709F49DC02091E800277F2093E80078
:104D700020918E0530918F052817390708F4C90155
:104D800040E0009789F12091A405222309F43DC059
:104D90002530D9F12091E80023FD37C02091E800AB
:104DA00022FD2FC02091E80020FFEBCF4091F300BF
:104DB0002091F20030E0342B009759F02830310573
:104DC00040F444914093F100319601972F5F3F4F9B
:104DD000F3CF41E02830310509F040E02091E800B0
:104DE0002E772093E800CDCF4111CDCF0AC080911E
:104DF000A405882351F0853041F08091E80083FDBF
:104E000004C08091E80082FFF2CF8091E8008B77A8
:104E10008093E80045C0803809F042C08091E800E6
:104E2000877F8093E800809187058093F1008091CF
:104E3000E8008E77C7CE811133C080918A059091AA
:104E40008B059927029764F58091E800877F80930E
:104E5000E80010918A05109387050E949223111192
:104E600006C08091E30087FD02C081E001C084E0BC
:104E70008093A40542E061EC81E00E94B12342E20C
:104E800061EC84E00E94B12342E261EC82E00E9486
:104E9000B12342E260EC83E00E94B1238091A4053B
:104EA0008091E80083FF10C08091E800877F8093A5
:104EB000E8008091EB0080628093EB0005C082E106
:104EC00090E0ECE5F5E04FCFAA960FB6F894DEBF80
:104ED0000FBECDBFDF91CF911F9108951F920F920A
:104EE0000FB60F9211242F933F934F935F936F93BD
:104EF0007F938F939F93AF93BF93CF93DF93EF9362
:104F0000FF93C091E900CF708091EC00D82FD17051
:104F100080FDD0E81092E9008091F000877F8093B7
:104F2000F00078940E948C241092E9008091F000A7
:104F300088608093F000CD2BCF70C093E900FF9183
:104F4000EF91DF91CF91BF91AF919F918F917F9121
:104F50006F915F914F913F912F910F900FBE0F90E6
:104F60001F901895E8EDF0E080818E7F808310928D
:104F7000E2001092DA001092E100A0EEB0E08C9115
:104F800081608C9380818F77808319BCA7EDB0E01E
:104F90008C918E7F8C9380818F7E808310926205AE
:104FA0000895CF92DF92EF92FF920F931F93CF93CA
:104FB000DF93C8EDD0E088818F7E8883E7EDF0E055
:104FC00080818160808384E082BF81E0809362057C
:104FD00088818E7F888302EE10E0F80110821092A3
:104FE000DA0081EEC82ED12CF601108288818F77ED
:104FF000888388818068888388818F7D888319BCB5
:105000001092A405109287051092860510928505CE
:1050100090EEE92EF12CF70180818B7F80838881CF
:105020008160888342E060E080E00E94B123F60165
:1050300080818E7F8083F801808181608083808180
:1050400088608083F70180818E7F80838881806182
:105050008883DF91CF911F910F91FF90EF90DF90A8
:10506000CF9008951F920F920FB60F9211242F9395
:105070003F934F935F936F937F938F939F93AF93E0
:10508000BF93EF93FF938091E10082FF09C080916D
:10509000E20082FF05C08091E1008B7F8093E100F8
:1050A0008091DA0080FF2AC08091D80080FF26C05E
:1050B0008091DA008E7F8093DA008091D90080FFA2
:1050C00018C080E189BD82E189BD09B400FEFDCF31
:1050D00081E08093A4058091620581110FC00E9438
:1050E000B2270E94D1278091E20084608093E20081
:1050F00005C019BC1092A405109262058091E100D0
:1051000080FF17C08091E20080FF13C08091E20011
:105110008E7F8093E2008091E20080618093E200C4
:105120008091D80080628093D80019BC85E080937C
:10513000A4058091E10084FF30C08091E20084FFEB
:105140002CC080E189BD82E189BD09B400FEFDCF9C
:105150008091D8008F7D8093D8008091E1008F7E70
:105160008093E1008091E2008F7E8093E200809145
:10517000E20081608093E20080918705882311F02E
:1051800084E007C08091E30087FD02C081E001C098
:1051900083E08093A4058091A4058091E10083FFC2
:1051A00027C08091E20083FF23C08091E100877FC8
:1051B0008093E10082E08093A4051092870580919E
:1051C000E1008E7F8093E1008091E2008E7F8093EA
:1051D000E2008091E20080618093E20042E060E0C2
:1051E00080E00E94B1238091F00088608093F000FD
:1051F000FF91EF91BF91AF919F918F917F916F91AF
:105200005F914F913F912F910F900FBE0F901F9084
:1052100018952091E4003091E50095E64091EC006E
:10522000842F817040FF23C08091E80080FD1DC065
:105230008091A405882399F0853099F08091EB0046
:1052400085FD11C04091E4005091E5002417350719
:1052500029F3915011F09A01E1CF84E0089582E0A2
:10526000089583E0089581E0089580E008954091D5
:10527000E80042FFDDCF089581E08093E00080E206
:105280008093D8001092C9008FE19EE40197F1F756
:1052900000C0000087E090EBDC018093F005909364
:1052A000F105A093F205B093F3059CE088E10FB6F9
:1052B000F894A895809360000FBE90936000FFCF94
:1052C00078941F920F920FB60F9211248F939F9391
:1052D000AF93BF9380915C0590915D05A0915E05B1
:1052E000B0915F050196A11DB11D80935C0590935F
:1052F0005D05A0935E05B0935F05BF91AF919F914F
:105300008F910F900FBE0F901F9018959C014FB773
:10531000F89480915C0590915D05A0915E05B09137
:105320005F054FBF821B930B08952FB7F8946091D0
:105330005C0570915D0580915E0590915F052FBFC2
:1053400008952FB7F89480915C0590915D05A09128
:105350005E05B0915F052FBF08959091D4059370BD
:1053600071F08093D5056093D605453B08F044EB7A
:105370004093D7058091D30581608093D30508952C
:105380009091D4059370A1F0811102C0946007C080
:10539000863110F0946503C0880F880F982B909386
:1053A000D405109214018091D30581608093D305B8
:1053B00008958091D205982F9670963011F48860E8
:1053C00001C0877F0C94532D2F923F924F925F9292
:1053D0006F927F928F929F92AF92BF92CF92DF9205
:1053E000EF92FF920F931F93CF93DF93CDB7DEB76A
:1053F0002A970FB6F894DEBF0FBECDBF9C838B8378
:1054000010911101110F812F880F880F180F2AE0BA
:10541000210F2983203310F03FE239838091A905C1
:105420008A838981181708F083C0A12EB12CF50159
:10543000EB52FE4F908180911201892309F476C0CE
:105440003090D5054090D60589EA882E85E0982EC3
:1054500092EC692E95E0792E512C212CC501880FF4
:10546000991FFC01E958FE4FFE83ED83C501880FAB
:10547000991F9C0128583E4F38872F83FFEF8F1AC2
:105480009F0A2A81221509F440C0ED81FE81F08136
:105490002F2F30E0F4018081281B31093A872987BA
:1054A000EF81F885C080D12CF4018085C81AD1081D
:1054B000C901889F9001899F300D300D1124CC9C2B
:1054C000C001CD9C900D900D1124820F931F0E945E
:1054D0003020082F6091D80521E0620F08F46FEFAB
:1054E000F301819191913F010E9461207C0196011D
:1054F00049855A85632D742D852DEB81FC81099595
:10550000362E472E582E2394B9CF2091D705352D0E
:10551000329F312D1124832F632D742D0E944D3025
:10552000462F282F672FC5010E9413201F5F79CFB8
:1055300081E099819F3208F080E02A960FB6F894B6
:10554000DEBF0FBECDBFDF91CF911F910F91FF90B6
:10555000EF90DF90CF90BF90AF909F908F907F9013
:105560006F905F904F903F902F900895CF92DF9271
:10557000EF92FF920F931F93CF93DF938C01C09113
:105580001101CC0F8C2F880F880FC80FDAE0DC0FC9
:10559000D03308F0DFE22091D80531E0230F08F482
:1055A0002FEF30E040E050E06FEF7FEF80E090E0E1
:1055B0000E9456327901CD1708F041C0CC2ED12C73
:1055C000F601EB52FE4F9081809112018923A9F1DF
:1055D0009091A905915097FD15C0492F092E000CF7
:1055E000550BFA01E755FA4F8189C813F3CF440FE1
:1055F000551FFA01E755FA4F218D328D2E153F05C3
:1056000048F701C097016091D80541E0640F08F4A4
:105610006FEFC9010E946120AC016091D5057091C6
:10562000D6058091D705F80109950E944D30462F87
:10563000282F672FC6010E941320CF5FBCCF81E0C7
:10564000DF3208F080E0DF91CF911F910F91FF9042
:10565000EF90DF90CF900895DF92EF92FF920F933B
:105660001F93CF93DF938C01C0911101CC0F8C2F2E
:10567000880F880FC80FDAE0DC0FD03308F0DFE2C4
:105680006091D8056695669521E0620F08F46FEF8A
:105690008091A5059091A6050E946120D82ECD1776
:1056A000F0F4EC2EF12CF701EB52FE4F908180913B
:1056B0001201892391F06091D5057091D6058091F2
:1056C000D7052D2D4C2FF80109950E944D30462FFE
:1056D000282F672FC7010E941320CF5FE0CF81E002
:1056E000DF3208F080E0DF91CF911F910F91FF90A2
:1056F000EF90DF9008956F927F928F929F92AF927A
:10570000BF92CF92DF92EF920F931F93CF93DF93CD
:105710003C01C0911101CC0F8C2F880F880FC80F4E
:10572000DAE0DC0FD03308F0DFE26091D80566954F
:105730008091A5059091A6050E946120182FCD1794
:1057400008F044C08C2E912CF401EB52FE4F908156
:10575000809112018923C1F1F401EE0FFF1FE95876
:10576000FE4FC080D12C80E7C81AD108F401EE0F9B
:10577000FF1FE95BFE4FA1A8B12CE0E2AE1AB10811
:10578000CC9C9001CD9C300D300D1124AA9CC00101
:10579000AB9C900D900D1124820F931F0E9430201E
:1057A000082F6091D5057091D6058091D705E12E1F
:1057B0009501A601F30109950E944D30462F282F2F
:1057C000672FC4010E941320CF5FB9CF81E0DF3281
:1057D00008F080E0DF91CF911F910F91EF90DF9063
:1057E000CF90BF90AF909F908F907F906F900895D3
:1057F000CF92DF92EF92FF920F931F93CF93DF939D
:105800006C01C0911101CC0F8C2F880F880FC80F2D
:10581000DAE0DC0FD03308F0DFE26091D80566955E
:105820008091A5059091A6050E946120182FCD17A3
:1058300078F5EC2EF12CF701EB52FE4F9081809120
:105840001201892319F1F701EE0FFF1FE95BFE4FEB
:1058500021A930E020523109F701EE0FFF1FE9586E
:10586000FE4F408150E0405751096091D50570913D
:10587000D6058091D705012FF60109950E944D307C
:10588000462F282F672FC7010E941320CF5FCFCF4D
:1058900081E0DF3208F080E0DF91CF911F910F911E
:1058A000FF90EF90DF90CF900895EF92FF920F93CB
:1058B0001F93CF93DF937C018B010E9409298111F3
:1058C00019C0E70101151105A1F08091E80085FDDF
:1058D0000AC08091E8008E778093E8000E94092931
:1058E000882381F307C089918093F1000150110949
:1058F000E9CF80E0DF91CF911F910F91FF90EF9062
:105900000895CF932091A4052430F9F4C091E900C3
:10591000CF703091EC00232F217030FD20E8C22B96
:1059200022E02093E9002091E80020FF0BC040E036
:1059300050E060E270E00E94552C8091E8008E7784
:105940008093E800CF70C093E900CF9108958093D1
:1059500090056093910524E630E042E050E060E974
:1059600075E080EA0E94943121E0892B09F020E063
:10597000822F0895CF92DF92FF920F931F93CF93C0
:10598000DF936C010091D2058091A402082BC7E03F
:10599000D0E010E0C8010C2E02C0959587950A94BE
:1059A000E2F780FD04C02197A8F7F12C09C0FC2E76
:1059B000B6018C2F0E944D1B0E94A111019799F3F3
:1059C0008F2DDF91CF911F910F91FF90DF90CF909E
:1059D0000895CF93DF93EC010E94BA2CBE010E9480
:1059E0004D1B0E94A111DF91CF9108959E3F61F15F
:1059F0002CE0929F800D1124682F66956695669520
:105A0000982F977083E0689FB001112440E050E028
:105A100080E0FB01E40FF51FE252FA4F208130E0F5
:105A2000092E02C0369527950A94E2F72170332794
:105A3000042E01C0220F0A94EAF7822B4F5F5F4FBA
:105A40004330510531F7089580E008959E3F51F1AC
:105A50002CE0929F800D1124E82FE695E695E695BF
:105A6000877051E001C0550F8A95EAF783E0E89FFF
:105A7000F0011124E252FA4F20E030E070E0408162
:105A8000CB01022E02C0969587950A94E2F78170A9
:105A9000819584278523842781932F5F3F4F23306F
:105AA000310569F708958093D205109278040C941B
:105AB000151621E030E001C0220F8A95EAF7209503
:105AC0008091D20582230C94532D21E030E001C057
:105AD000220F8A95EAF78091D205822B0C94532DE0
