:100000000C94690A0C94A10A0C94A10A0C94A10AFC
:100010000C94A10A0C94A10A0C94A10A0C94A10AB4
:100020000C94A10A0C94A10A0C9404230C94402271
:100030000C94262B0C94A10A0C94A10A0C94A10AEE
:100040000C94A10A0C94A10A0C94A10A0C94A10A84
:100050000C94A10A0C94D92A0C94A10A0C94A10A1C
:100060000C94A10A0C94A10A0C94A10A0C94A10A64
:100070000C94A10A0C94A10A0C94A10A0C94A10A54
:100080000C94A10A0C94A10A0C94A10A0C94A10A44
:100090000C94A10A0C94A10A0C94A10A0C94A10A34
:1000A0000C94A10A0C94A10A0C94A10A111011102D
:1000B00044104410D810F610591259123E11B211C2
:1000C000C311C311541768176F172E182E18A717CE
:1000D000B317C2172E18C9172E182E182E18D1179D
:1000E00046206D2022226D202222B920DC202222EF
:1000F000DD21ED21FD377A585A000004E6D6B446DA
:100100000200210116000000742FE5A3E001880021
:10011000ED5D003D8889C65436C3174FE4E4687727
:100120001740EC062B597590EA1B9E88D5853C2B11
:100130002D4649B919FCF467F3A7C15AE35727ECD8
:10014000A65FCF01EFA012F375408571C8B6B71A4C
:10015000D92515E87D8F88CDEBEA5E1B39178478A9
:1001600088719A4B28A18C4F4458DC5912B591D212
:1001700053E3CEE33DEEA12A2CA7D7FE0A6CC9DCDF
:10018000FA8C20B0FA377B2F969C777B70935DB901
:10019000250F7B4767589E1CE513C6AD9508369A18
:1001A00044231B1778E89A831B264F971F5E3F4B0B
:1001B000A42EF84A71D5E219AD6B4501F0D69A85A7
:1001C0008756289A9B73F32E8A90D06DEC454A741B
:1001D000A3F22B5536A620E2A3995299CA650E23A5
:1001E0000FBD740780CAF15C7F2737C096E18EA9E6
:1001F00088DA9D1DE29882C2F78A373B221BFDCA2E
:10020000000000000B1D9AFF52A3FF4E000189025F
:100210008903000045853D12B1C467FB0200000060
:100220000004595A05010902A10185020901A10032
:10023000050919012905150025019505750181029A
:100240009501750381010501093009311581257F6B
:1002500095027508810609381581257F9501750875
:100260008106050C0A38021581257F9501750881E4
:1002700006C0C005010980A101850319012AB70044
:10028000150126B700950175108100C0050C090104
:10029000A101850419012AA002150126A0029501D9
:1002A00075108100C00660FF0961A1010962150097
:1002B00026FF009520750881020963150026FF00BE
:1002C000952075089102C005010906A101050719CD
:1002D000E029E71500250195087501810295017552
:1002E0000881010507190029FF150026FF00950662
:1002F0007508810005081901290595057501910208
:10030000950175039101C009025B00030100A03251
:10031000090400000103010100092111010001226B
:1003200040000705810308000109040100020300E1
:10033000000009211101000122220007058203208B
:100340000001070503032000010904020001030066
:10035000000009211101000122810007058403200A
:100360000001120100020000000843504254010045
:10037000010203011C037600690061006C003A0071
:100380006600360034006300320062003300630010
:100390000000140354007200610063006B006200EF
:1003A00061006C006C000000260350006C006F00C0
:1003B0006F0070007900200043006F007200700031
:1003C0006F0072006100740069006F006E00000031
:1003D0000403090401048E966E773EFE7E5F1DB80D
:1003E000F2664EFF5D19B0C20469542AD62EBFDDF5
:1003F00019B0C3E529B1E023A5A9B1C10082674CBA
:100400001A978D795120C7068E7C7C7A764FFD59DC
:1004100030E2460E9EBEDF1D9991A0A5A1A9D02273
:10042000C6EF5C1B958990A2A7CCFB5528B3E44A84
:10043000F76C3BF46A562EDE1F9DB8D3058892A652
:10044000CE1EBEDF1D99B0E246EF5C07115D980B32
:100450009D9497EE4E45336B44C729562730C6A767
:10046000D5F256DFB43862CBA0B6E30F840624057C
:10047000656F7689B577412782666582CCD5E6209F
:10048000D52717C5F803237C5F64A51DC1D636CBDD
:100490004CD4DB66D78BB1997E6F4C364006D6EBD9
:1004A000D7A2E4F495515A5496D55344D78CE0B969
:1004B0004068D218E9DD9A239248EE7F43AFEA778D
:1004C00038848C0A72AF69F8DDF12483A3F84ABF3F
:1004D000F59413DBBBD8B4B3A0FB45506030591280
:1004E0003171A2D313E7FAE7CE0F63150B6B94BB00
:1004F000378326059DFB4692FC0A15D10D7392D6D3
:100500008C1B8CB8558ACEBDFE8EFCED09128391F2
:1005100082513123FBB40C76AD7CD9B44BB2671455
:10052000099C7F0C18BA3BD68E142AE41B529F2BD1
:100530007DE1FB6A3302FAAC5AF23E887EAED1F31B
:1005400078E805D1E3DC21F6E19ABD170ED9469B88
:100550008803EAF666BE0E1B5049964097F1F1E417
:1005600080A66EE87734BF294044C2FF4E98D39CE2
:10057000A3322B76510409E7A9D1A632B12353E265
:1005800047ABD6F5695C3E5FFAAE4520E5D244FF45
:1005900039326DFD27575CFDF0DEC1B599E5F51CDC
:1005A000770175C56D5892F2B247000126967A30F0
:1005B000FFB7F0EF77C18A5DDCC0D129301E7738F4
:1005C0007A94F1B87A7EEFA4D1AC314AF25D643D01
:1005D000B2E2F00899FC70EE24A77EEE1E20697D41
:1005E00044BF8742DF883B0CDA42C904F94550FC1E
:1005F000838F116A72BC9995F0AC3DA73BCD1CE28C
:10060000887937115F3989950A16847AF68AA42881
:10061000E4ED83803BB123A50310F466EABB0C0F25
:10062000C5EC6C69C5D324ABD42AB799887608A0E9
:10063000A8957CD8386DCD5902514BF1B52B50E3BC
:10064000B6BDD072CF9EFD6EBB44C8248A77188A8F
:100650001306EF977DFA81F031E6FA77ED31063136
:100660005B548A9F3068DBE240F84E73FAAB748BC0
:10067000105813DCD2E678D1322E8A9F2C580648C7
:1006800027C5A95E8147894621910370A43E889CB5
:10069000DA330ACEBC8B8ECF9FD3718043CF6BA948
:1006A0005183763082C56A853911501A82DC1E1C4E
:1006B000D57DA9719933471997B35AB1DFEDA4F2EB
:1006C000E62684A2289A9EDFA66AF4D6FC2E5B9DBD
:1006D0001A2A2768FBC183214B90E036DD5B31424B
:1006E00055A013F7D089537199570929C5F321F8FB
:1006F000372F40F3D4AF16083602FC77C58B049031
:1007000056B9C9679A99E800D386FF972D08E9B7CB
:10071000B391BCDF45C6ED0F8C4C1EE65B6E3830E6
:10072000E4AAE395DEB9E49AF5B2559A879BF66A96
:10073000B2F2779A31F47A31D11D04C07C32A29E94
:100740009AF562F8278DBF51FFD3DF64373F2A6FD8
:10075000763A7D77069E777F5EEB3251F916669A80
:1007600009F3B008A470964630FFDA4FE91BED8D0F
:10077000F8741F3192B3731736DB9130D688556BFE
:100780003477877AE7EE06C61C8C190C4846235E40
:100790009C075CBFB47ED64F749CE2C5508BC58B62
:1007A000159060625729D01343A18088910044C7F7
:1007B0004D1986CC2F2A755AFCEB972A70E378D80E
:1007C00091B04F9907A395EA2421D5DE51209327B4
:1007D0000A3073A8FF8A97E9A76A8E0DE8F0DFEC6C
:1007E000EAB46C1D392A622D3D5A8B65F890052EAE
:1007F0007E912C78EF8E7AC12FAC78EEAF2845062B
:100800004C26AF3BA2DBA39306B53CA5D8EE8FAF39
:1008100025CC3F856848A962CC978F7F2AEAE015EE
:100820000AAD6207BD45F841D836CB4CDB6EE63ADF
:10083000E7DA15E9291E1210A0142C0E3DF4BF3979
:100840004192750B257BA3CE399C1564C8FA3DEF08
:100850007327FE262ECEDA6EFD718EDDFE76EEDC7F
:10086000125C02C53A4E4E4FBFCA4015C76E8D414D
:10087000F110E04F7E977F1CAE478E6BB12531B0F3
:1008800073C71B9779F980D366223007741EE4D0B2
:100890008021D6EE6B6C4FBFF5B7D909872FA9140D
:1008A000BE27D9725001D41373A6A751027525E152
:1008B000B345347DA88EEBF31649CB4F8CA1B936E6
:1008C0008539755D0800AEEBF6EAD7133A215A5F19
:1008D0003084522695C914F257556BB110C2E1BD50
:1008E0003B51C0B7554C711226C70DF951A43802BF
:1008F000057FB8F1724BBF718914F37738D9712431
:10090000F30011A1D8D46927083735C9119D901C6F
:100910000EE71CFF2D1EE892E11810957CE080F494
:10092000964321F975216438DD9F1E9516DA561D10
:100930004F9A53B2E2E418CB6B1A65EB56C63BE50F
:10094000FED8263F3A84597266A2F375FFFB60B366
:1009500022AD3F2D6BF9EBEA057CD88F6D2C989E6C
:100960002B93F15E46F08749297368D77FF9F0E54C
:100970007DDB1D7519F3C4589B1788A892E0BEBD96
:100980008B1D8D9F5676ADAF29E2D9D552F6B5565F
:1009900035573AC8E156431994D3049B6D35D80BAB
:1009A0005F4D198EECFA64910A72202BBC1A4AFE34
:1009B0008BFDBBED1B23EAAD7282A1299971BDF0BD
:1009C00095C103DD7BC2B23C2854D368A472C866CB
:1009D00096E0D1D87FF8D1262BF7ADBA55CA15B914
:1009E00032C3E588978E5CFB92258BBFA245557A72
:1009F000A76F8B575BCF0ECB1DFB208277A88CCCCB
:100A000016CE1DFADECC0B62FECCE1B7F0C38164DA
:100A10007340A0C24D8911753355338DE84AFDEA04
:100A20006E300BD7312CDE47E3BFF85542E27F59D9
:100A3000E517EF99346991B1238E20872DA8FED553
:100A40008AF3843AF037E4090054EE674993E4816D
:100A500070E3904DEFFE41B7997BC183BA62126F8C
:100A60007DDE6BAFDA16F95551EEA60C2B02A3FD15
:100A70008DFB3017E46FDF3671C4CA872548B04755
:100A8000ECEAB4BFA54D9B9F0293C4E3E4E8422D7A
:100A90006881150AEB845BD6A874FB7D1DCB2CDA2C
:100AA000462A7662CEBC5C9E8BE7CFBE78F57CEBA7
:100AB000B33A9CAA6FCC72D159F21123D63F48D1D8
:100AC000B7CEB0BFCBEA80DE57D45E972F75D1503A
:100AD0008E802C6679BF724BBD8A816CD3E101DCBC
:100AE000D21526C536DA2C1AC02794EDB79B850B94
:100AF0005E8097C5EC4FEC885D50073547DC0B3BBB
:100B00003DDD60AFA85D813824255D5C15D1DEB385
:100B1000ABEC0569EF83ED5754B864641116326984
:100B2000DA9F2D7F36BB445A34E87FBF03EB007F4A
:100B300059682279CF736C2C29A7A15F38A11DF0C9
:100B40002053E01A6314587110AA080C3E161A605C
:100B500022827FBAA443A0D0AC1BD56B64B514939A
:100B6000319E5350D05766EE5A4FFB032A69587690
:100B7000F183F74EBA8C4206605D6DCE6088AEA4FC
:100B8000C3F103A54B98A1FF67E1ACA2B862D76F90
:100B9000A031B4D277AF211006C69AFF1D09170EF7
:100BA0005FF1AA54344B458A8763A6DCF924306789
:100BB000C6B2D6613369EE50615728E77EEEEC3A53
:100BC0005A734EA88DE418EAEC4164C8E2E866B6B0
:100BD0002DB6FB6A6C16B3DD4643B973006A71ED3E
:100BE0004E9D251AC33C4A95159935811402D69815
:100BF0009BECD8233B8429AF0C9983A69A344FFAF7
:100C0000E8D03C4BD0FBB668B89E8FCDF7602D7A0C
:100C100022E57DAB651B95A7A87FB677477B5F8BE9
:100C20001272D0D491EFDE19503CA78BC4A9B32324
:100C3000CB76E681F0C1048FA3B8545B97AC19FF63
:100C40003F55272FE01D429B57FC4B4E0FCE98A9D6
:100C5000435703BDE7C894DF6E367332B4EF2E8579
:100C60007A6EFC6C188275359007F3E49F3EDC6861
:100C7000F3B5F31980920699A2E86FFF2E7FAE427A
:100C8000A45FFBD40E812BC304FF2BB3744E365BE1
:100C90009C1500C6472BE88B3DF19C039A587F9B1F
:100CA0009CBF854979352E567B411439478326AA46
:100CB000078998111B86E7737AD87D786153E979A3
:100CC000F5368D449284F91350583BA46A36654931
:100CD0008E3C0EF16FD284C47E8E3F39AE7C84F19F
:100CE00063378E3CCC3E448145F14BB9ED6B365DAC
:100CF000BB20601A0FA3AA55773AA9AE374DBAB8F0
:100D0000866BBC0850F6CCA4BD1D4072A586FAE2E5
:100D100010AE3D584B97F34374A99EEB21B701A445
:100D2000869397EE2F4F3B86A1416F412690785CCA
:100D30007F30384B3FAAECED5C6F0EAD4387FD93DF
:100D400035E601EF412690999EFB195BADD2918A61
:100D5000E046AF65FA4F84C1A12DCF458BD38550B6
:100D6000557CF96788D44EE9D76B6154A1A4A6A23B
:100D7000C2BF309C409F5FD7692B24825ED9D6A723
:100D800012541AF7559F7650A99584E66B6DB59667
:100D900054D6CDB3A19B46A7944DC494B498E3E137
:100DA000E234D533160754CDB77753DB4F4D469D0C
:100DB000E9D49C8A36B6B838266C0EFF9C1B438B50
:100DC00080CCB93DDAC7F18AF26DB8D7742F7E1E98
:100DD000B7D34AB4ACFC79486CBC96B69446572D50
:100DE000B0A3FC1EB95260852D41D043011E1CD515
:100DF0007DFCF3960DC7CB2A299A93DD882D375DAC
:100E0000AAFB4968A09C50867F685657F979183923
:100E1000D4E001843361CAA5D2D6E4C98A4A234406
:100E20004EBCF0DC24A1A0C4E2073C10C4B5254BA5
:100E30006563F480E7CF61B1718221872CF5910061
:100E4000320CECA9B59A7485E3368F764F9C6DCE43
:100E5000BCAD0A4BED7604CBC3B9339E01939669C2
:100E60007DC5A245799B045C8409ED8843C7AB939B
:100E70001426A140B5CE4EBF2A42853E2C3B54E8F5
:100E8000121F0E9759B22789FAF2DF8E6859DC06D5
:100E9000BCB6850D0622ECB1CBE504E63DB3B0410E
:100EA00073083F3C588663EB50EE1D2C3774A9D372
:100EB00018A3476E9354AD0A5DB82A555D78F6EED7
:100EC000BE8E3C7669B940C234EC2AB9ED7E20E48E
:100ED0008D0038C7E68F44A886CEEB2AE990F14C06
:100EE000DF32FB731B6D921E95FEB4DB65DF4D2375
:100EF000548948BF4A2E70D6D762B43329B13A33E9
:100F00004C236DA676A5216348E6905DED90950B88
:100F10007A84BEB80D5E630C62264C145AB3AC23BF
:100F2000A474A76F333005600142A028B7EE1938CA
:100F3000F164808243E141271F1F90547AD5232E0C
:100F4000D13DCB28BA587FDC7C9124E92851836EAF
:100F5000C5562142EDA05622A140806BA8F794CA45
:100F6000136B0C39D9FDE9F36FA69EFC708AB3BCF4
:100F7000593C1E1D6CF97CAFF9887195EB5700BD8B
:100F80009F8C4FE12483C522EAFDD30CE217187C25
:100F90006A4CDE77B4539B4C81CD2360AA0E257337
:100FA0009C02793230DF74DF7519F4A5145CF77A8E
:100FB000A8A591847C6003063BCD50B6279CFEB16A
:100FC000DDCCD3B05924B2CAE21C81229D078F8E9A
:100FD000B9BE4EFAFC3965BABF9D12375E977EF3F3
:100FE00089F55DF5E3098C62B5209D0C538A681B79
:100FF000D28F75175DD4E5DA756219146A262DEB68
:10100000F8AF37F06CA455B1BCE233C09ACAB01146
:10101000494F689B3B6B3CCC13F6C785616842AE79
:10102000BBDDCD4516291DEADBC803943CEE4F829B
:1010300011C3EC28BD970599DED7BB5E221FD4EB08
:1010400064D992D985B76A056AE42441F1CDF0D814
:101050003FF89E0ECD0B7A706B5A750A6A3388EC96
:1010600017750870102F24CFC4E942006194CA1F7D
:101070003A7606FAD24881F077600345D961F4A444
:101080006F3DD930C3046B542AB7EC3BF44BF56881
:101090005226CEFF5D1991A0A3A5A9B1E023C40AF1
:1010A000774DF95120A3A5A9B1C10082868E7F5D3D
:1010B0001991A0A3C4EB540B756852078C9A978DB5
:1010C00079706246EF5C1B95897141E121A1A1A174
:1010D000C002674C1AB6CFFD785324ABB5C9F16096
:1010E00023A5C812876D5813858892876D5832C71B
:1010F0000C9A97ACDA36EE5E3EDF1DB8F2662FBD75
:10110000F87247ED5813858892878C7B550990A219
:10111000C6EF3DF85324ABD42AB7EC5A36EE5E3E08
:10112000DF3CFA764FFD5930E246EF3DF853056952
:1011300031C10082868E7F5D19B0E227CCFB744BF3
:10114000148B948B756833C50892878C9AB6CF1C24
:10115000BAD70D98B2E62FDC1B9589716023C40ABB
:10116000968F9CBAF66E3FFC5B15A8D226AFBDF8F1
:1011700072662FDC1BB4CB148B94AAB7CDF9510146
:101180008082866F3DD930E227CCFB744B14AAB71E
:10119000CDF97043046B35C9F16023A5C8F3450848
:1011A00092876D5832E62FBDF872664E1EBEFE7EE7
:1011B0007E7E5F1D9991A0A3C40A774D1893A4ABBE
:1011C000D40B754910A2C6EF3DF85324ABB5E833F4
:1011D000E44A16AEDE1FBCDB15A8B3C5087345E9AB
:1011E00031C1E121A1A1A1C002866F5C3AD70D985F
:1011F00093A4CA16AEDE1F9D99B0E246EF3DF87289
:10120000470C9AB6CFFD5911A0A3A5C8F345089283
:10121000876D39F043048A96AEDE3EDF1D9991A0BA
:10122000C2066F3DF872470C9A978D989385887324
:1012300045E931E023A5A9D003848A96AEDE1FBC20
:10124000DB15A8D226CEFF5D1991818082672DD84B
:1012500013A4ABD40B94AAB7CDF95120A3A5C8F31E
:1012600045E95022C6EF5C3AD70D989385887364A0
:101270004AF74DF95120A3C40A96AEDE3EFE7E7EAB
:101280007E5F3CFA764FFD7872662FBDD930C3E59C
:101290004812878C7B5528D2078C9A97ACDA178D29
:1012A000795120A3C4EB540B948B94AAD62EBFFC87
:1012B0005B15A8D226AFDC1BB4EA37EC3BF46A37E7
:1012C000CD1893856931C1E140E325C812878C9A16
:1012D000B6CFFD5911A0C2068E7F5D38F2470C7B58
:1012E000746A37EC5A36EE3FFC7A764F1C9B958930
:1012F0007141006344EB542AD60F9CBAD70D9893E2
:10130000856931C10082868E9EBEDF3CFA572CDA99
:1013100036EE3FFC5B158971410082868E7F5D3819
:10132000F247ED5813A4CAF74DF95101806344EB1D
:10133000542AD62EBFDD1991A0A3A5A9B1E042067B
:101340008E7F5D1991A0A3C40A968F7D7872470C99
:101350007B746A562EDE1FBCFA570D79510161214C
:10136000A1C0E325A9B1C1E14002674C1A978D984D
:1013700093A4ABD42AD60F9C9BB4CB14AAB7CDF9B7
:101380005120A3C4EB35C9F16042068E7F7C7A768A
:101390006E3FFC7A766E5E3EFE7E5F3CDB158971A9
:1013A00041E121C0E344EB542AB7CDF9706227AD87
:1013B000D832C70C7B744B14AAB7EC3BD528D207A4
:1013C0006D39D120C2E74C1A978D98B2C70C5928B5
:1013D000F39BF400F600F500F700F80001000100AF
:1013E00001000100010001000100010001000100F5
:1013F00001000100010001000100010001000100E5
:1014000001000100010001000100010001000100D4
:1014100001000100010001000100010001000100C4
:1014200001000000000000000000000000000000BB
:1014300000000000000000000000000000000000AC
:101440000000000000007E0F00D4FFFFFFC7000077
:10145000007800000000000000002A2B2800000097
:101460000000000000000000000000000029000053
:1014700000002C1E3420212224342627252E362D30
:101480003738271E1F202122232425263333362ECA
:1014900037381F0405060708090A0B0C0D0E0F103C
:1014A0001112131415161718191A1B1C1D2F313081
:1014B000232D350405060708090A0B0C0D0E0F1025
:1014C0001112131415161718191A1B1C1D2F313061
:1014D000354C11241FBECFEFDAE0DEBFCDBF04B61E
:1014E00003FE18C08091E0039091E103A091E20314
:1014F000B091E3038730904BA740B04B59F4109262
:10150000E0031092E1031092E2031092E303E0E0A3
:10151000F8E3099511E0A0E0B1E0EEE0FBE602C0DF
:1015200005900D92A037B107D9F723E0A0E7B1E00D
:1015300001C01D92A03EB207E1F70E94A6120C94D2
:1015400085350C9400002F923F924F925F926F92DC
:101550007F928F929F92AF92BF92CF92DF92EF9243
:10156000FF920F931F93CF93DF93CDB7DEB76F97A3
:101570000FB6F894DEBF0FBECDBFFC018081918114
:1015800023813481232B31F09F3F31F491E08F3F51
:1015900019F403C091E001C090E090FDBEC77F0147
:1015A00085E0DE01539601900D928A95E1F7D7010F
:1015B00012962C918B899C89222349F00E944F1B03
:1015C000182F682F8B899C890E945D1D03C00E9483
:1015D0002C1D182F6B897C89812F0E94E22D8C0194
:1015E000F7018281882309F4B9C0C80182519F455F
:1015F000409708F0D0C08FEF93E00E94C233811172
:10160000B7C0025157ECA52EB12C002379F0A114DC
:10161000F4E0BF0609F4ACC0C5010E94C2338111D9
:1016200001C001502FEFA21AB20AEFCF19821A821D
:101630001B821C82CC24CA9485010F5F1F4FC501F9
:101640000E94C23389831A82882309F491C08130B1
:1016500009F07FC0450132E0830E911CC8010E9451
:10166000C233582E8A83882309F482C08FEF850DF8
:10167000833050F40E5F1F4FC4010E94C2338B832E
:10168000811167C05801D8CF8BEF850D8330A8F545
:10169000350143E0640E711CC4010E94C2338B8388
:1016A000811102C08301EECF85010C5F1F4FC30182
:1016B0000E94C2338C83882329F38B819C818130E3
:1016C0005FEF950718F0D82EB12C02C0B82ED92E96
:1016D00086E0581641F097E0591651F08B2D9D2D5C
:1016E0000E94022705C08B2D9D2D0E940227CACF84
:1016F0008B2D9D2D0E94AF26C5CFA4E05A1611F068
:101700008401C0CFC4010E94C233D82E85010C5F72
:101710001F4FC50103960E94C233DD2049F1882383
:1017200039F1282F30E021503109C29EA001C39E1B
:10173000500D11248D2D90E00197840F951F019776
:1017400008F4A0CFEFECF7E03197F1F700C000000C
:10175000F6CFCE0101960E948D2E94CF0031FFE589
:101760001F0709F0C7C681E00E948F1D0E94531F0A
:101770008091C001877009F4D0C6D70112968C9170
:10178000882309F4CAC68091770182FDC6C682E02B
:101790000E949B1DC2C60031BFE51B0711F481E00A
:1017A00005C00131EFE51E0721F482E00E94D51D3E
:1017B000DDCFF7018081813079F4D70111968C91CA
:1017C00081110AC00E941A2B90930C0380930B0383
:1017D000F701828180930803D70112968C9100381B
:1017E000BFE51B0709F5882309F468C080917801DB
:1017F00090E0019663E070E00E943C3580937801B0
:10180000409178015091790160917A0170917B014A
:101810008FE090E00E94E833E0917801F0E0EE0F75
:10182000FF1FE75DFE4F27C00138EFE51E0739F5C2
:10183000882331F090910D0381E0892780930D0377
:1018400080910D03E0917801F0E0EE0FFF1FE75D5E
:10185000FE4F882381F06081718180E090E00E94DA
:10186000413420E030E040E45FE30E94A7340E946E
:101870001234CB0102C0808191810E947E25D70164
:1018800012962C902220D9F00F35BDE51B0761F090
:101890000036EDE51E0761F00E35FDE51F0779F412
:1018A00080910001811104C081E08093000160CF2C
:1018B0001092000180E00E94802C5ACF212C809150
:1018C000000181112DC0033F2CE5120709F4A7C1C7
:1018D000A8F4083D4CE5140709F49BC1093D5CE5FB
:1018E000150709F4AEC1073D8CE5180709F0B2C130
:1018F00006E221EE41EE67ED7CE5A8C1053F9CE5DF
:10190000190709F498C108F490C1063FBCE51B070C
:1019100009F0A0C107E225EE46EE66EF7CE596C130
:101920004801E0EE8E1A91083090CD018091BD0102
:10193000382A8091CA01382AF8E08F16910480F481
:1019400098012770332781E090E001C0880F2A9525
:10195000EAF7222011F0382A18C08095382215C0E5
:10196000222009F416C110937301009372010E94A2
:101970000E2B6093C2037093C3038093C4039093B0
:10198000C5031092CA031092C903D7018D919C918F
:101990000E942C1D21E030E0F90102C0EE0FFF1F74
:1019A0008A95E2F7FF8FEE8F2091CB033091CC0325
:1019B0003B8F2A8F40917201509173015D8F4C8F44
:1019C000188E422C512C588DE52FF0E0EE0FFF1FA2
:1019D000E45DFC4FC080D180C114D10409F4F0C093
:1019E000311005C0D60112968C918111CEC0F6013E
:1019F000838190E02E8D3F8D82239323892B09F4E0
:101A0000C4C08085982F977009F487E038E083166A
:101A1000910440F4222019F081FD09C0B6C082FD76
:101A200006C0B3C0222009F4B0C080FFAEC0D6010A
:101A3000AD90BC900A151B0519F4222009F4A5C02D
:101A4000EA8DFB8DCE16DF0609F49FC0D6011D96E8
:101A5000ED91FC911E97309721F08081882309F445
:101A600094C0632DC6010E94F02C882309F48DC018
:101A70000A151B0511F4320102C0612C712CB62D20
:101A8000B170B98F81E0A114B10441F0B11106C069
:101A9000EC8DFD8DAE16BF0609F080E080FF75C0AD
:101AA00080E00E94802CD092CC03C092CB0381E0D6
:101AB0008093C803D60115968C918093C603B98D87
:101AC000B11113C0AB2889F0F601808191819C018E
:101AD00024503109213A310530F4682F83E293E034
:101AE0000E944F2B02C00E940532D6011696AD907F
:101AF000BC901797C5019A9581159F4110F4E0EEAF
:101B0000BE2255245394C5010197853A9D4508F09E
:101B1000512CD6011996ED91FC911A97309739F016
:101B20001B966D917C911C9781E009955822552058
:101B300029F1F601868197810E94402F8093C70387
:101B4000C501F8E08F16910418F40E942F2C16C0DE
:101B50000497813A910530F46A2D83E293E00E9464
:101B60005C2B0EC00E942A1E8FE19EE40197F1F7C4
:101B700000C000008A2D0E94373202C00E942A1E37
:101B800091E0692660FEC3C19ECEA88DAF5FA88F8D
:101B90001ACF80917201909173010817190781F48F
:101BA00010927301109272011092C2031092C3033B
:101BB0001092C4031092C5031092CA031092C90375
:101BC0008091CB039091CC03009709F47CCEB8E0D0
:101BD0008B16910438F4632D0E94F02C811173CE82
:101BE00081E014C0FC01208131810217130729F420
:101BF000211006C01092C80308C0222009F463CE49
:101C0000DC0118968C9185FD5ECE80E00E94802CD0
:101C10005ACE07E225EE45EE68ED7CE517C006E2F8
:101C200021EE40EE63EF7CE511C007E225EE44EEC5
:101C300064EF7CE50BC006E221EE42EE65EF7CE549
:101C400005C008E221E045EE69ED7CE5C7010E9490
:101C5000BC2B8ECDF7018281882309F48FC11092AD
:101C6000CF030330FDE51F0758F40A3F2CE51207A8
:101C700080F4C80182509C45449708F035C109C0E2
:101C800001363DE5130729F0053A4DE5140709F043
:101C90002BC10E944B1A90937701809376010131FA
:101CA0005CE5150709F4C6C008F042C009309CE5A0
:101CB000190709F49BC000F50530BCE51B0709F4C2
:101CC00085C078F40330FCE51F0709F478C008F0FC
:101CD0007AC002301C4509F0F7C08091760181601E
:101CE000F1C007304CE5140709F478C008F07AC059
:101CF000809176018061E6C00D308CE5180709F40B
:101D000087C058F40B30ACE51A0709F479C008F025
:101D10007BC08091760188606FC00F30ECE51E07B4
:101D200009F480C008F082C080917601877FCAC024
:101D30000D3F2CE5120709F471C000F505314CE5A3
:101D4000140709F485C068F403318CE5180709F419
:101D500075C008F095C00E94D431809176018F77CC
:101D6000B1C00B3FACE51A07A9F108F054C00A3F17
:101D70001C4509F0A9C08091770140C00130FDE504
:101D80001F0709F489C058F40F3F3CE5130709F415
:101D90005AC008F069C08091770182602FC0013677
:101DA0005DE5150709F47EC0053A8DE5180709F4CD
:101DB00083C002301D4509F087C060E06EC080918D
:101DC000760182607FC08091760116C08091760195
:101DD000886078C08091770182604FC080917601E1
:101DE000806270C08091760180646CC00E94D431A2
:101DF00080917601806866C0846064C081603DC067
:101E0000809176018E7F5EC0809176018D7F5AC071
:101E10008091760116C08091770118C0809177017A
:101E20008D7F2BC0809176018F7E4CC08091760192
:101E30008F7D48C0809176018F7B44C08091760170
:101E4000877F8B7F3FC0809177018D7F8E7F15C00C
:101E50008091760182FB222720F991E0922790FB66
:101E600082F990FB83F92EC080917701982F90958D
:101E700091708E7F892B90FB81F98093770124C02C
:101E80000E94D4318091760187FB222720F991E0CE
:101E9000922790FB87F916C061E08EE090E00E94E7
:101EA000D63312C08091760184FB222720F991E07D
:101EB000922790FB84F906C080917601982F909527
:101EC00090FB80F980937601609176011091770103
:101ED00084E090E00E94D633612F82E290E00E947D
:101EE000D6330E94D43144CC0631FCE51F07A1F45F
:101EF0008091CA018A7A91E009F490E0909374018C
:101F0000882341F065E383E293E00E945C2B0E940A
:101F10002A1E2ECC69E2F7CF0A35ADE51A0741F14A
:101F200050F40115ECE51E07A9F00E3D1C4551F5D6
:101F30000E945C1A1DCC0B352DE51207D9F00C352B
:101F40001D4501F58091770182FB882780F991E09A
:101F5000892711C00E94D4314FE75AE186E04150F1
:101F600050408040E1F700C000000E94B52A00CC3C
:101F700081E001C080E00E94B81D04C006311C450C
:101F800009F4BFC2D70112968C9112970D911C9142
:101F9000882349F0C8010E944F1BD82E682FC80122
:101FA0000E945D1D04C0C8010E942C1DD82EB801DE
:101FB0008D2D0E94E22D0E94B118C82E192FA82E37
:101FC000F7010281D580D2949FE0D9228091C0018F
:101FD0008770B9F00023A9F0812F807F803421F031
:101FE00080E28C0D883068F08091770182FD09C015
:101FF00082E00E949B1D8091C0018770BB24B39436
:102000008111B12C912E92948FE09822892D90E02D
:102010008C30910508F04DC2FC01EA5AFF4F0C9438
:102020006435812F807F1F70882311F01295107FF7
:102030000023B9F0112309F429C280E28C0D883005
:1020400010F0A11006C08091CA01182B1093CA018C
:1020500005C08091C901182B1093C9010E942A1E46
:1020600015C28C2D0E940532112309F422C280E290
:102070008C0D883088F1AA2079F110958091C901E2
:1020800018231093C9012BC0812F807F1F708032CD
:1020900011F01295107F8C2DAA2029F0F1E0AF16D7
:1020A00009F45EC069C08091770182FF1BC00023E4
:1020B00069F0112339F08091CA01182B1093CA01DD
:1020C0000E942A1E80E00E943732F3C180E00E9405
:1020D0000532112309F4EDC1812F0E94C51A0E9417
:1020E0002A1EE7C1002331F1DD20F1F021E0D212F8
:1020F0000FC08091CD01182B181709F4DAC10E9486
:102100001A2B9093CC018093CB011093CD01D1C1B8
:1021100035E0D31209C00E94BA1A8091BD01181788
:10212000C1F11093BD0135C08091CD01812B0E947A
:10213000FB31BFC1DD2051F041E0D4120DC08091D0
:10214000CA01812309F4B5C10E94D31A0E94BA1AA8
:10215000812F0E94F431ADC155E0D512F7CFA9C14E
:10216000002329F085E08D1508F4A3C112C094E086
:102170009D1508F49EC1ECCF002369F0DD2049F0E5
:10218000D70115968C91159780FF80C18F70159699
:102190008C93812FCCCFDD20D9F2893309F086C111
:1021A000BFEFE3EFF1E0B150E040F040E1F77CC178
:1021B000812F86958695837019F0813061F079C101
:1021C000002321F08C2D912F937002C080E090E0CD
:1021D0000E948C2B74C1002321F08C2D912F9370C1
:1021E00002C080E090E00E94762B69C18C2D002314
:1021F00019F00E94472602C00E9480258CE08C0DB9
:102200008530C8F5282F81E090E0AC0102C0440F72
:10221000551F2A95E2F786E0EAE1F3E0DE01179622
:1022200001900D928A95E1F786E0FE013796DE0176
:102230001D9601900D928A95E1F79885002319F07B
:10224000892F842B03C0842F809589238E8796E065
:10225000FE013D96DE01119601900D929A95E1F7EF
:102260008A8386E0FE013196AAE1B3E001900D92E7
:102270008A95E1F724C10E941F2A21C1812F837012
:10228000A9F501111AC14C2D429546954770440F8E
:10229000440F8C2D8F7090E09C01042E01C0220F02
:1022A0000A94EAF7C4FE08C08FE090E001C0880FEE
:1022B0004A95EAF7809501C080E01695169513704F
:1022C000123069F088F49091CE01113019F0822B10
:1022D000892302C0922B892B0E94D031EEC0822B21
:1022E0009091CE018927F8CF822BF6CF002319F0E9
:1022F000812F817001C08695882309F4DEC04C2DA2
:10230000429546954770440F440F8C2D8F7090E096
:102310009C01042E01C0220F0A94EAF7C4FE08C0F3
:102320008FE090E001C0880F4A95EAF7809501C0E0
:1023300080E0169516951370123059F078F490914C
:10234000E901113019F0822B892309C0922B892BC6
:1023500006C0822B9091E901892701C0822B0E943F
:102360008B1DABC01F70002339F0812F0E94D51D3B
:102370008C2D0E94FB31A1C08C2D0E94F431812F45
:102380000E948F1D9AC08C2D52EFA51689F15A1507
:1023900038F090EFA91659F0A1EFAA1611F171C00B
:1023A000B3EFAB1661F1E4EFAE16B9F06AC00023EB
:1023B00079F0F4E0FD1508F47CC01F7181E090E035
:1023C00001C0880F1A95EAF79091E901892721C089
:1023D00025E02D1508F46DC0F0CF8091770182FFC4
:1023E0001BC0002339F0812F8F710E94D51D61C061
:1023F0000023C9F3812F8F710E948F1D5AC00023C3
:1024000039F01F7181E001C0880F1A95EAF701C009
:1024100080E00E948B1D4DC00023D9F08091BD014A
:102420000E94C51A8091C0018770843039F40E94DF
:10243000CC1A812F8F710E948F1D5AC034E03D1538
:1024400008F456C01F71812F0E94D51D63E0812FB3
:1024500011C09091CA018091BD01892B8093CA015E
:1024600044E04D1550F40E94CC1A0E94D31A64E047
:10247000812F8F710E94821E3BC081E00E949B1DB4
:1024800037C0002329F0DD2009F4ADCF8C2D1BCE01
:10249000DD2009F4AFCF893349F45FEF83EF91E09A
:1024A000515080409040E1F700C000008C2D0E9408
:1024B000053288EF890D843010F40E94B02BBB20C8
:1024C00061F18091C00180FD28C0D70112961C9255
:1024D0008595859585950E94D51DC7010E94A30A03
:1024E0008091C0018595859585950E948F1D15C0A9
:1024F000B12CE3CF01312FE5120709F05AC982E070
:1025000033C980917401882311F065E301C069E249
:1025100083E293E00E944F2BFACC6F960FB6F894AB
:10252000DEBF0FBECDBFDF91CF911F910F91FF9006
:10253000EF90DF90CF90BF90AF909F908F907F9063
:102540006F905F904F903F902F900895CF93DF93BF
:10255000CDB7DEB7E4970FB6F894DEBF0FBECDBFA0
:1025600084B7877F84BF0FB6F894A89580916000E8
:10257000886180936000109260000FBE90E080E858
:102580000FB6F89480936100909361000FBE85B7F9
:10259000806885BF85B7806885BF8CE698E1909399
:1025A0007101809370010E94FE2D80988898849814
:1025B0008C988AE0E2E1F1E08E010F5F1F4F780115
:1025C000D80101900D928A95E1F7D8019E01255F0F
:1025D0003F4F41E050E08D91E82FE295EF70F0E041
:1025E00061A18F708A0102C0000F111F8A95E2F766
:1025F000C801962F982B91A392A18095892382A33D
:10260000A217B30741F70E9484220E94A32280915F
:10261000E20084608093E20078948091DF01882357
:10262000A1F01091E9001F709091EC00892F81704A
:1026300090FD80E8182B1092E9008091E80083FD5E
:102640000E945E1F1F701093E90082E084BD93E03A
:1026500095BD9DE797BD80936E000E946525811111
:1026600002C00E945625A4E2B1E041E050E08D9105
:102670008F3F29F411E0A932B107C9F715C0E82F3F
:10268000E295EF70F0E021A18F70BA0102C0660FF1
:10269000771F8A95E2F7CB01962F9095922391A30D
:1026A00092A1892B82A3E6CF10928101109275012D
:1026B0008FE090E00E94CA336093780170937901B3
:1026C00080937A0190937B01643010F00E94862FF2
:1026D00080E090E00E94D033893E9E4F21F40E941A
:1026E0006525811102C00E945C1A82E090E00E9480
:1026F000C23380937C010E944B1A909377018093A0
:1027000076010E94E01D8FE19EE40197F1F700C081
:1027100000000E94E01D8091810183FF08C06FEFDF
:102720007FEF80E090E00E94F4330E94B52A83E0BE
:1027300090E00E94C2330E94D0310E949124E09127
:102740007801F0E0EE0FFF1FE75DFE4F8081918181
:102750000E947E251092FF021092FD021092FE024E
:102760008FEF93E09093760280937502109274023B
:102770001092730210927202109271021092F40180
:102780001092F3011092F2011092F10110920703DE
:10279000109206039093FC028093FB021092FA02BF
:1027A0001092F9021092F8021092F70210927A0237
:1027B000109279021092780210927702109205031B
:1027C000109204031092030310920203109201036B
:1027D00010920003E0917801F0E0EE0FFF1FE75D3B
:1027E000FE4F808191810E947E2581E091E090934F
:1027F000D3038093D20378E1472E512CE0E42E2EB0
:10280000F2E03F2E8E010F5F1F4F5E0191E2A90E95
:10281000B11C8091DF01853009F052C08091DF0149
:10282000853009F049C08091DF01843019F10E94A0
:10283000DC271092D6030FB6F894A895409260005A
:102840000FBE2092600083B7817F846083BF83B70F
:10285000816083BF7894889583B78E7F83BF0FB6DE
:10286000F894A89580916000886180936000109230
:1028700060000FBE8091DE01882309F4CFCF0E9453
:10288000E01D80918101882309F4C8CF19BC39BCAF
:1028900009B400FEFDCF8091D8008F7D8093D800D1
:1028A0008091E00082608093E0008091E00081FDF3
:1028B000FCCF0E94D431B2CF0E94D4310E94B02B01
:1028C0000E94E01D81110E940E2B209181019091A8
:1028D0007D01922719F180E0DD24D394392F3D2129
:1028E000C9F08BA71CA62D2181E009F480E08DA7FB
:1028F0000E941A2B8160782F9FA78EA74BA55CA5FD
:102900006DA58FA50E94BB3080917D01D826D09205
:102910007D0114C08F5FDD0C853001F78FEF88AB30
:1029200089AB1AAA0E941A2B8160782F9CAB8BABC3
:1029300048A959A96AA98CA90E94BB308091C903F2
:102940009091CA03892B09F43EC04091BE03509177
:10295000BF036091C0037091C1032FB7F8948091B9
:10296000D7039091D803A091D903B091DA032FBF78
:10297000841B950BA60BB70B4091BA035091BB0378
:102980006091BC037091BD0384179507A607B70734
:10299000D0F08091C9039091CA030E946D2F1092CC
:1029A000CA031092C9031092BE031092BF03109283
:1029B000C0031092C1031092BA031092BB0310928D
:1029C000BC031092BD0386E0EEE0F3E0D701019076
:1029D0000D928A95E1F78090100390901103C090BA
:1029E0001203D0901303109210031092110310924F
:1029F000120310921303811003C0992009F451C0EF
:102A00008091EF019091F0010E94FF2A9C0190912A
:102A1000EB01992309F456C32531310508F441C06F
:102A20009F3F19F09F5F9093EB01882061F00E9417
:102A30002726181414F491E001C09FEF899F802D80
:102A4000112480931003992061F00E942726191405
:102A500014F491E001C09FEF899F802D1124809391
:102A60001103309110033323E1F02091110322234D
:102A7000C1F045EB3403C0011124992319F0909360
:102A8000100303C081E08093100365EB2603C001AF
:102A90001124992319F09093110303C081E08093CE
:102AA0001103C11003C0DD2009F451C08091ED0174
:102AB0009091EE010E94FF2A9C019091EA019923D6
:102AC00009F405C32135310508F441C09F3F19F0D1
:102AD0009F5F9093EA01CC2061F00E9405261C14B0
:102AE00014F491E001C09FEF899F802D1124809301
:102AF0001203DD2061F00E9405261D1414F491E0FC
:102B000001C09FEF899F802D112480931303309182
:102B100012033323E1F0209113032223C1F075EB5C
:102B20003703C0011124992319F09093120303C0B5
:102B300081E08093120335EB2303C0011124992314
:102B400019F09093130303C081E0809313038091E5
:102B5000100381110BC080911103811107C0809176
:102B60001203811103C08091130381110E941F2A57
:102B70008B829C82CD82DE8286E0F701AEE0B3E0FC
:102B800001900D928A95E1F70E94DC270E94B02BFC
:102B900090917E01891380937E018091DF018430C2
:102BA00009F037CE83E08093E9008091E80082FF4E
:102BB00030CE8091E80085FF21C00E94D82381118A
:102BC0001BC040E2C42ED12C470109C08091F10006
:102BD000F40181934F01F1E0CF1AD10869F080919F
:102BE000E80085FDF3CF8091E8008B778093E800C3
:102BF0000E94D823882399F391E001C090E080914E
:102C0000E8008B778093E800992309F402CEC09006
:102C1000B803D090B9038981C114D10461F08E3F0B
:102C200009F01CC28A81833008F432C18550833098
:102C300008F014C22DC1893009F40EC2F0F48430BA
:102C400009F460C050F48230C1F108F04EC0813008
:102C500009F002C21A8289E033C2863009F459C0F1
:102C600008F0FAC12D813E813227232732274C817B
:102C70006B818A810E94202DF1C1803109F4A8C0A6
:102C800080F48D3009F448C028F48C3009F0E4C198
:102C900080E1A2C08E3009F443C08F3009F46AC0CD
:102CA000DBC1823109F49AC008F495C0833109F47C
:102CB000BDC08E3F09F4ECC0CFC18A81823009F4D7
:102CC000F4C1833051F0813009F0C6C10E940E2B4F
:102CD0009B838C837D836E83C1C180910E01909113
:102CE0000F01892B09F0EAC1B9C18A81823009F04C
:102CF000B3C16B817C818D819E810E946A350E9467
:102D00003425ACC14C816B818A810E94B92D9D8391
:102D1000D3C10E94512DA2C183E08A8389E3D0C12F
:102D2000CA80DB80DC24CD24DC246C80712C2DE176
:102D30006216710408F092C14801C60189539F4F81
:102D40009401201B310B2615370508F087C139E3A4
:102D5000C31633E0D30628F40E94C233F4018483FF
:102D600002C0F4011482FFEFCF1ADF0A2FEF821A9C
:102D7000920AE3CF80910E0190910F01892B09F403
:102D80006DC1CA80DB80DC24CD24DC246C80712CF6
:102D90003DE16316710408F061C14801C601895321
:102DA0009F4F9401201B310B2615370508F056C1A3
:102DB00049E3C41643E0D40620F4F40164810E9480
:102DC000D633FFEFCF1ADF0A2FEF821A920AE6CF2F
:102DD0000E94102D43C188E08A8340C1CA80DB80F5
:102DE000DC24CD24DC246C80712C3DE1631671045D
:102DF00008F034C14701C601879694012E193F0996
:102E00002615370508F02AC140E5C416D10428F478
:102E10000E94C233F401848302C0F4011482FFEFE4
:102E2000CF1ADF0A2FEF821A920AE5CFCA80DB8021
:102E3000DC24CD24DC246C80712C3DE1631671040C
:102E400008F00CC140E5C416D10408F007C180E5C4
:102E500090E08C199D098615970508F4FFC048017C
:102E6000C60187969401201B310B2615370508F003
:102E7000F5C060E5C616D10420F4F40164810E9417
:102E8000D633FFEFCF1ADF0A2FEF821A920AE8CF6C
:102E9000EA818E2F90E08E30910508F0DFC0FC01B2
:102EA000EE59FF4F0C94643588E0ECE1F1E0D50178
:102EB00001900D928A95E1F780E2F80111928A95CE
:102EC000E9F785E0898388E0F501DE01159692C077
:102ED00080E3898381E08A831B821C82BFC08C814E
:102EE00090E0982F88272B81820F911D092E000CCE
:102EF000AA0BBB0B35E0880F991FAA1FBB1F3A9581
:102F0000D1F7AC01BD01405E5F4F6F4F7F4F481757
:102F100059076A077B0708F4A1C08033F1E09F07D7
:102F2000A105B10508F09AC0413321E052076105BF
:102F3000710520F040E351E060E070E0481B590B60
:102F4000BC016C507F4FC8010E94A93387C040E28A
:102F500050E06FEF70E0C8010E947E3580910E0155
:102F60008983CA827BC081E090E09093B90380930B
:102F7000B80382E390E09093800180937F010E94E8
:102F80001A2B6CC080910E018983CA8280917F01C7
:102F900097C040E250E06FEF70E0C8010E947E35BC
:102FA0005DC08B81853059F0863049F1811156C062
:102FB00080E2F80111928A95E9F788E081C06C817E
:102FC0008AE0F50111928A95E9F7683068F4FAE031
:102FD0006F9FB001112469587F4F4AE050E0C5014E
:102FE0000E94B23380E001C08FEF89838AE0F5014F
:102FF000DE01129601900D928A95E1F72FC06C8147
:103000008AE0FE013596D50101900D928A95E1F78F
:103010008BA19CA181152CE5920741F420910E0112
:1030200030910F01232B11F480E090E09CA38BA33F
:10303000683068F43AE0639FB001112469587F4F0B
:103040004AE050E0C5010E94FA3380E001C08FEFF2
:1030500089830E94FE2D02C08FEF89838091DF015A
:10306000843009F0D6CB8091E9008F702091EC007C
:10307000922F917020FD90E8D92ED82A3092E90045
:103080008091E80080FF0CC040E050E060E270E01A
:10309000C7010E940B248091E8008E778093E8009E
:1030A0008D2D8F708093E900B4CB86E290E00E9472
:1030B000C2331B821C821D828E83D0CF80918101FE
:1030C0008B83CCCF2B30310508F0ACCCEACC2B3045
:1030D000310508F0FDCC3BCD80E00895909176015C
:1030E00092FF0DC0282F2871283019F4877F846043
:1030F00006C0282F2471243011F48B7F886093FF41
:103100000DC0282F2871283119F4877E846106C0EC
:10311000282F2471243111F48B7E8861209177014E
:1031200020FF0DC0382F3871383019F4877F816047
:1031300006C0382F3171313011F48E7F886021FF45
:103140000DC0282F2871283119F4877E816106C0AF
:10315000282F2171213111F48E7E886194FD877EA4
:103160000895CF93DF938238910569F1B0F48133EC
:10317000910509F46FC048F48932910509F465C0DE
:103180008A32910509F46BC08AC08533910509F430
:1031900057C089339105B9F082C0833E910571F122
:1031A00038F4803E9105B1F0823E910511F177C06F
:1031B000863E9105B9F1873E9105C9F1843E91059E
:1031C00009F06DC024C02091760120FD53C021FD7F
:1031D00051C065C08091760180FD46C08091770125
:1031E00080FF48C08091760184FD50C183EE90E05D
:1031F0004FC18091760182FF3AC0F4CF8091760171
:1032000082FD35C08091770180FD34C0EBCF809185
:10321000770181FF35C08091760184FD37C187EE4B
:1032200090E036C18091760183FF27C0F4CF809172
:10323000760183FD22C08091770181FD21C0EBCF13
:103240008091760185FD1FC021C08091760185FDAA
:103250001DC019C08091760186FD1BC01DC08091E4
:10326000760186FD19C015C089E390E011C182EE98
:1032700090E00EC180EE90E00BC186EE90E008C1B8
:1032800084EE90E005C189E290E002C185E390E020
:10329000FFC08AE290E0FCC081E390E0F9C08115B4
:1032A00031E5930708F069C0811540E59407F0F017
:1032B0009C0174E0369527957A95E1F7922F9370EB
:1032C000482F437021E030E002C0220F331F4A959F
:1032D000E2F73C68392B982F9F709695969540E2BF
:1032E000949FC0011124822B932BD2C0883E91055C
:1032F00068F5803E910508F0CBC0883A9105B8F496
:10330000853A910548F0855AE82FF0E0E15DFE4FDF
:10331000808190E09064BCC08130910509F4B3C015
:1033200008F4B4C08430910508F4B0C0B1C08F3B3C
:10333000910508F0ABC0885AE82FF0E0EE0FFF1FB0
:10334000EE5CFE4F808191819464A2C0811520E2E1
:10335000920758F4811531E0930708F099C0803F37
:10336000910508F493C0906593C0811540E49407DB
:1033700008F48CC09F70906A8BC0811525E5920778
:1033800008F042C0811534E5930728F0982F88276C
:10339000846F906A7DC0811543E59407B0F09C016D
:1033A0002370332741E050E002C0440F551F2A9597
:1033B000E2F7282F2695269580E2289F9001112478
:1033C000CA01822B932B9A6863C0811522E592076C
:1033D00028F4982F8827816F906A5AC09C01237027
:1033E000332741E050E002C0440F551F2A95E2F711
:1033F000282F2695269580E2289F90011124CA0146
:10340000822B932B9C6844C0EC01811539E593070E
:10341000A8F48115984528F09C2F8827806F906A22
:1034200037C0C11586E5D80788F58C2F0E946E1825
:103430008F7190E0982F882790622AC081152AE525
:10344000920790F48C2F8F700E946E1894E0D6959E
:10345000C7959A95E1F7CF70D0E0DC2FCC27D069E3
:103460009E01282BC90114C090568115904270F41A
:103470008D2F8F710E946E18282F2F71CE019927E2
:103480009062922B05C081E090E002C080E090E065
:10349000DF91CF910895CF9384E090E00E94C233F2
:1034A000C82F82E290E00E94C2332C2F30E0A901A5
:1034B000582BCA01CF91089569EE7EEF80E090E02D
:1034C0000E94F43360E082E090E00E94D63360E036
:1034D00083E090E00E94D6331092CE0160E084E059
:1034E00090E00E94D63360E082E290E00E94D63302
:1034F00060E085E090E00E94D63360E086E090E0F6
:103500000E94D6336FEF87E090E00E94D63340E010
:1035100050E0BA0188E090E00E94E83360E08DE07E
:1035200090E00E94D63340E050E0BA0188E190E09C
:103530000E94E83360E087E190E00E94D63340E0EB
:1035400050E0BA018CE190E00E94E83360E070E066
:1035500080E290E00E94F43340E050E0BA0188E15C
:1035600090E00E94E83380E00E9438250E945625B2
:103570000C94862F8091CD01882331F01092CD01DB
:103580001092CC011092CB01089580959091CA01C0
:1035900089238093CA0108951092C0011092BF013F
:1035A0001092BE0108958091BD0181111092BD015C
:1035B00008958091BC0190918B01891719F08F5F5C
:1035C0008770FBCF08950F931F93CF93DF93809164
:1035D0008A0182958F7009F05DC0809187018823F0
:1035E00009F458C08091BC0110918B016091850154
:1035F00070918601C0918801D091890191E06F3F5F
:1036000009F090E0292F06E0811709F443C02097C4
:1036100021F07F3F21F030E003C031E001C0322FC4
:1036200090E030FD34C0089FF001099FF00D112497
:10363000DF01A457BE4F11963C911197371327C055
:103640003C91361324C012963C91129731111FC041
:1036500013964D915C9114974C1B5D0B483C5105A2
:10366000B0F480918A018F70806180938A01EF5657
:10367000FE4F80818F708061808385E891E00E9499
:10368000A30ADF91CF911F910F910C94D91A019643
:103690008770BACFDF91CF911F910F910895CF928C
:1036A000DF92FF920F931F93CF93DF936C010091F2
:1036B000E9018091CE01082BC7E0D0E010E0C801FD
:1036C0000C2E02C0959587950A94E2F780FD04C000
:1036D0002197A8F7F12C09C0FC2EB6018C2F0E946F
:1036E000E22D0E94B118019799F38F2DDF91CF91B0
:1036F0001F910F91FF90DF90CF900895CF93DF93AC
:10370000EC010E944F1BBE010E94E22D0E94B118E5
:10371000DF91CF9108959F92AF92BF92CF92DF92A7
:10372000EF92FF920F931F93CF93DF93CDB7DEB746
:1037300061970FB6F894DEBF0FBECDBF8C0185E058
:10374000F801DE011D9601900D928A95E1F7F801CE
:10375000E2809091850160918601409188015091AD
:1037600089014115510531F06F3F31F481E09F3FF0
:1037700019F403C081E001C080E0F82FF1709F2EA2
:1037800080FD1AC1F80130812181C380D48085E891
:10379000A82E81E0B82EF0908701F601E41BF50B0E
:1037A000FF2009F4C6C080918A01E83CF10508F0C9
:1037B00091C0482F407F09F050C0621311C093138D
:1037C0000FC0FE2CE1100CC08F70806180938A01C5
:1037D000C5010E94A30A80918A01F801858329C14D
:1037E000CD2831F02F3F31F481E03F3F19F403C081
:1037F00081E001C080E080FD03C081E08E2502C031
:1038000080E090E0F82FF170FF2E80FF1CC08091C7
:10381000BC0140918B0156E0841709F4E8C090E0A8
:10382000589FF001599FF00D1124E457FE4F61811C
:10383000261306C06081631303C06281E61203C0D1
:1038400001968770E9CFFE2CEE2009F4F2C080913A
:103850008A01816080938A0149C0621306C0931374
:1038600004C0E11002C0F80186C0C8010E94953171
:10387000882351F1EE2041F120918A01822F829517
:103880008F7090E0029774F080918501909186018D
:1038900098878F831986DB86CA862C87CE01079688
:1038A0000E94A30A86E0F801A5E8B1E001900D921C
:1038B0008A95E1F70E94E31A0AC06217C9F0C801AD
:1038C0000E94953181111EC0C8010E94A30AFF24E5
:1038D000F394AFC0482F407F81F785E891E00E94C4
:1038E000A30A86E0F50111928A95E9F7F12CA1C0AF
:1038F0009313E5CFE110E3CFF8018583C8010E945F
:10390000A30A54C0EE2001F320918A01822F8295F0
:103910008F7090E0029734F280918501909186013A
:103920009A8389831B82DD82CC822E83CE0101960D
:10393000B7CFE83CF105D0F5FE2CEE2029F262135A
:1039400027C0931325C020918A0120FD18C0822F23
:1039500082958F70482F50E04115510581F0F80194
:1039600025834F30510541F08F5F982F9295907FBE
:10397000822F8F70892B8583C8010E94A30A86E05D
:10398000F801A5E8B1E001900D928A95E1F751C0E8
:10399000C8010E949531811185CF80918A01816093
:1039A00080938A01C8010E94A30A43C086E0F50102
:1039B00011928A95E9F73DC0EE2009F485CFC80140
:1039C0000E949531F82E882309F47ECF86E0F80115
:1039D000A5E8B1E001900D928A95E1F7809185010B
:1039E000909186010E947E1B0E94E31A22C03D87AF
:1039F0002E878D859E850E947E1B292F22952F70F4
:103A0000223028F49F7039F0811105C00BC024309A
:103A100028F49F7049F4805E883020F0C8010E942D
:103A2000A30A9F2CF92C05C0F8019581907F99F786
:103A3000F9CF8F2D61960FB6F894DEBF0FBECDBFC4
:103A4000DF91CF911F910F91FF90EF90DF90CF907A
:103A5000BF90AF909F9008959E3F69F1292F220F4C
:103A6000220F920F890F682F669566956695982F9D
:103A7000977083E0689FB001112440E050E080E03F
:103A8000FB01E40FF51FEE57FE4F208130E0092EB9
:103A900002C0369527950A94E2F721703327042E49
:103AA00001C0220F0A94EAF7822B4F5F5F4F433029
:103AB000510531F7089580E008959E3F59F1292F6F
:103AC000220F220F920F890FE82FE695E695E695D3
:103AD000877051E001C0550F8A95EAF783E0E89FAF
:103AE000F0011124EE57FE4F20E030E070E04081FD
:103AF000CB01022E02C0969587950A94E2F7817059
:103B0000819584278523842781932F5F3F4F23301E
:103B1000310569F708958093E9010C94B53121E0EE
:103B200030E001C0220F8A95EAF720958091E901E3
:103B300082230C948B1D2091C00180958223809359
:103B4000C001982F977099F430E0482F082E000C90
:103B5000550B2417350759F09091770192FD07C056
:103B60008595859585950E948F1D0C94CC1A089596
:103B7000CF93C0917701C2FB992790F9981799F0DC
:103B800080FBC2F9C09377016091760184E090E0F8
:103B90000E94D6336C2F82E290E00E94D63382E0FE
:103BA000CF910C949B1DCF91089521E030E001C08E
:103BB000220F8A95EAF78091E901822B0C948B1DE4
:103BC000CF93E4E2F1E069E271E080E041E09191BD
:103BD0009F3FA1F0A92FA295AF70B0E090962C91D5
:103BE00030E09F7002C0359527959A95E2F720FD49
:103BF00002C0242F02C020E030E0822B440F6E1759
:103C00007F0729F790917501C1E0981301C0C0E0CA
:103C1000981759F08093750181E08093D1010E943B
:103C20001A2B9093D0018093CF018091D1018823EA
:103C300071F08091CF019091D0010E94FF2A0597E9
:103C400030F080917501809381011092D1018C2F09
:103C5000CF9108959091CA018091C901892B8093D9
:103C600023038091CD01882311F10E941A2B20910A
:103C7000CB013091CC01821B930B8838934110F01B
:103C80000E94BA1A909123038091CD01892B8093D1
:103C90002303E5E2F3E097E080E0915029F02191E1
:103CA0002223D9F38F5FF9CF81110E94BA1A809134
:103CB000C60380959091230389239091C703892B94
:103CC0008093230348E050E061EC71E083E293E0ED
:103CD0000E947135892BA9F088E0E3E2F3E0A1ECC2
:103CE000B1E001900D928A95E1F7E091D203F09155
:103CF000D303309731F00280F381E02D83E293E02B
:103D0000099408959091770192FD10C098E0899FE1
:103D100090011124262B2093C0010E94D51D0E94E2
:103D20001A2B9093BF018093BE0108950C94D51D6A
:103D30008091E10187FF11C08091E80082FD05C0FC
:103D40008091DF018111F8CF11C08091E8008B775D
:103D50000BC08091DF01882349F08091E80080FF4B
:103D6000F8CF8091E8008E778093E8000895982F2F
:103D7000973068F59093E900981739F07091EC004E
:103D80002091ED005091F00003C0242F762F50E0D9
:103D900021FD02C09F5FECCF3091EB003E7F30935E
:103DA000EB003091ED003D7F3093ED003091EB0062
:103DB00031603093EB007093EC002093ED00509352
:103DC000F0002091EE0027FDE5CF80E008958F7090
:103DD0008093E90081E008952091E7013091E801A6
:103DE0002617370748F06115710539F42091E8006E
:103DF0002E772093E80001C0B901FC0120E0611595
:103E0000710579F18091DF018823F1F18530F1F1BD
:103E10008091E80083FD3CC08091E80082FD2EC0C7
:103E20008091E80080FFEBCF2091F3008091F200B9
:103E300090E0922B6115710551F08830910538F4AE
:103E400021912093F100615071090196F3CF21E097
:103E5000089709F020E08091E8008E778093E800D1
:103E6000CECF2111CFCF0AC08091DF01882361F02E
:103E7000853061F08091E80083FD0AC08091E80000
:103E800082FFF2CF80E0089582E0089583E00895F4
:103E900081E008950895BC0184E00C948B2ABC0154
:103EA00083E00C948B2A8091E901982F96709630CC
:103EB00011F4886001C0877F0C948B1D1F93CF93F2
:103EC000DF93CDB7DEB7AA970FB6F894DEBF0FBE6B
:103ED000CDBFE1EEF1E089EE91E02091F100219378
:103EE0008E179F07D1F78091E201833009F463C0F8
:103EF00030F4813071F0823009F49DC0B4C08A3052
:103F000009F489C08B3009F46EC0893009F0ABC068
:103F100020C08091E101813A09F0A5C08091E800BC
:103F2000877F8093E8008091E5019091E601892BDD
:103F300021F468E085ED91E003C060E080E090E06E
:103F400070E00E94EC1E8091E8008B778093E8007F
:103F50008AC08091E101813209F085C08091E5013C
:103F60009091E601009719F0029709F07CC08091CA
:103F7000E800877F8093E8008091E80082FD05C01B
:103F80008091DF018111F8CF6EC02091F300809104
:103F9000F20090E0922B029731F48091F100813091
:103FA00011F0863021F48091F1008093D40180914A
:103FB000E8008B7754C08091E101813A09F053C049
:103FC0008091E5019091E601892B09F04CC0809128
:103FD000E800877F8093E8008091E80080FFFCCFB5
:103FE00080910D0137C08091E1018132E1F580912E
:103FF000E5019091E601892BB1F58091E800877F7A
:104000008093E8000E94981E8091E30180930D0147
:104010000E94D43128C08091E101813221F5809144
:10402000E800877F8093E8000E94981E8091E40159
:104030008093D30118C08091E101813AA1F480916D
:10404000E800877F8093E8008091E80080FFFCCF44
:104050008091D3018093F1008091E8008E77809366
:10406000E8000E94981E8091E80083FFEBC18091D8
:10407000E1019091E201492F50E04A30510508F0EA
:10408000E1C1FA01E059FF4F0C946435803821F00A
:10409000823809F0D7C108C08091DD019091DE011E
:1040A000992389F082600FC08091E5018F7087307D
:1040B00008F0C8C18093E9008091EB0085FB882758
:1040C00080F91092E9009091E800977F9093E800C2
:1040D0008093F1001092F1007CC1282F2D7F09F010
:1040E000B1C1882319F0823061F0ACC18091E30145
:1040F000813009F0A7C1933009F080E08093DE01A0
:104100002EC08091E30181112AC08091E5018F705A
:104110002FEF280F263008F095C18093E9002091F9
:10412000EB0020FF1CC0933021F48091EB008062F3
:1041300014C09091EB0090619093EB0021E030E08F
:10414000A90102C0440F551F8A95E2F74093EA0087
:104150001092EA008091EB0088608093EB0010924F
:10416000E9008091E800877F8093E8000E94981E14
:1041700069C1811167C11091E3011F778091E3004C
:104180008078812B8093E3008091E800877F809383
:10419000E8000E94981E8091E80080FFFCCF80918B
:1041A000E30080688093E300111102C082E001C047
:1041B00083E08093DF0146C18058823008F042C11D
:1041C0002091E3013091E4012C3D53E0350779F56E
:1041D00083E08A838AE289834FB7F894DE011396DD
:1041E00020E03EE051E2E32FF0E050935700E491ED
:1041F00020FF03C0E295EF703F5FEF708E2F90E0DD
:10420000EA3010F0C79601C0C0968D939D932F5F42
:10421000243149F74FBF8091E800877F8093E80001
:104220006AE270E0CE0101960E94EC1EC0C080914F
:10423000E5019091E601432F552743305105B1F038
:1042400068F44130510509F40CC14230510509F0C0
:10425000F9C08BE590E0E7E0F3E057C0413251054B
:1042600089F14232510509F43CC0ECC0C9019927DB
:1042700081309105B9F070F082309105D9F0039743
:1042800009F0E0C0E4E7F3E0E4918E2F90E0E4E78A
:10429000F3E038C0E0EDF3E0E4918E2F90E0E0ED44
:1042A000F3E030C0E8EAF3E0E4918E2F90E0E8EA32
:1042B000F3E028C0E2E9F3E0E4918E2F90E0E2E938
:1042C000F3E020C08330910508F0BCC0880F991F2F
:1042D000FC01E759FE4F0190F081E02D89E090E06C
:1042E00014C08330910508F0ADC0FC01EE0FFF1F34
:1042F000ED59FE4F0190F081E02DDC01A05ABE4F38
:104300008C9190E0009709F49DC02091E800277FF0
:104310002093E8002091E7013091E8012817390740
:1043200008F4C90140E0009789F12091DF012223C0
:1043300009F43DC02530D9F12091E80023FD37C0B4
:104340002091E80022FD2FC02091E80020FFEBCF54
:104350004091F3002091F20030E0342B009759F0A7
:104360002830310540F444914093F1003196019793
:104370002F5F3F4FF3CF41E02830310509F040E097
:104380002091E8002E772093E800CDCF4111CDCFCA
:104390000AC08091DF01882351F0853041F080917F
:1043A000E80083FD04C08091E80082FFF2CF809195
:1043B000E8008B778093E80045C0803809F042C060
:1043C0008091E800877F8093E8008091E0018093EE
:1043D000F1008091E8008E77C7CE811133C08091C3
:1043E000E3019091E4019927029764F58091E80038
:1043F000877F8093E8001091E3011093E0010E9411
:10440000981E111106C08091E30087FD02C081E073
:1044100001C084E08093DF0142E061EC81E00E9412
:10442000B71E42E261EC84E00E94B71E42E261ECFA
:1044300082E00E94B71E42E260EC83E00E94B71E59
:104440008091DF018091E80083FF10C08091E80037
:10445000877F8093E8008091EB0080628093EB007F
:1044600005C082E190E0E2E6F3E04FCFAA960FB6F6
:10447000F894DEBF0FBECDBFDF91CF911F9108959D
:104480001F920F920FB60F9211242F933F934F93C9
:104490005F936F937F938F939F93AF93BF93CF93CC
:1044A000DF93EF93FF93C091E900CF708091EC0010
:1044B000D82FD17080FDD0E81092E9008091F000F3
:1044C000877F8093F00078940E945E1F1092E9002D
:1044D0008091F00088608093F000CD2BCF70C09366
:1044E000E900FF91EF91DF91CF91BF91AF919F9143
:1044F0008F917F916F915F914F913F912F910F908D
:104500000FBE0F901F901895E8EDF0E080818E7F30
:1045100080831092E2001092DA001092E100A0EE87
:10452000B0E08C9181608C9380818F77808319BCFF
:10453000A7EDB0E08C918E7F8C9380818F7E8083FD
:104540001092D2010895CF92DF92EF92FF920F93D3
:104550001F93CF93DF93C8EDD0E088818F7E88834F
:10456000E7EDF0E080818160808384E082BF81E0BC
:104570008093D20188818E7F888302EE10E0F8015B
:1045800010821092DA0081EEC82ED12CF601108232
:1045900088818F77888388818068888388818F7DF0
:1045A000888319BC1092DF011092E0011092DE01A5
:1045B0001092DD0190EEE92EF12CF70180818B7FC6
:1045C000808388818160888342E060E080E00E948F
:1045D000B71EF60180818E7F8083F8018081816023
:1045E0008083808188608083F70180818E7F8083D3
:1045F000888180618883DF91CF911F910F91FF9017
:10460000EF90DF90CF9008951F920F920FB60F9208
:1046100011242F933F934F935F936F937F938F93C7
:104620009F93AF93BF93EF93FF938091E10082FF3D
:1046300009C08091E20082FF05C08091E1008B7F7C
:104640008093E1008091DA0080FF28C08091D8003B
:1046500080FF24C08091DA008E7F8093DA00809101
:10466000D90019BC80FF16C082E089BD09B400FEE4
:10467000FDCF81E08093DF018091D20181110EC0D6
:104680000E9484220E94A3228091E2008460809391
:10469000E20004C01092DF011092D2018091E1008B
:1046A00080FF17C08091E20080FF13C08091E2007C
:1046B0008E7F8093E2008091E20080618093E2002F
:1046C0008091D80080628093D80019BC85E08093E7
:1046D000DF018091E10084FF2FC08091E20084FF20
:1046E0002BC019BC82E089BD09B400FEFDCF8091CA
:1046F000D8008F7D8093D8008091E1008F7E8093D9
:10470000E1008091E2008F7E8093E2008091E200E0
:1047100081608093E2008091E001882311F084E0C1
:1047200007C08091E30087FD02C081E001C083E003
:104730008093DF018091DF018091E10083FF27C03A
:104740008091E20083FF23C08091E100877F809306
:10475000E10082E08093DF011092E0018091E100AE
:104760008E7F8093E1008091E2008E7F8093E20053
:104770008091E20080618093E20042E060E080E0AE
:104780000E94B71E8091F00088608093F000FF9136
:10479000EF91BF91AF919F918F917F916F915F91B9
:1047A0004F913F912F910F900FBE0F901F90189532
:1047B0002091E4003091E50095E64091EC00842FD3
:1047C000817040FF23C08091E80080FD1DC0809172
:1047D000DF01882399F0853099F08091EB0085FD09
:1047E00011C04091E4005091E5002417350729F3EA
:1047F000915011F09A01E1CF84E0089582E008958C
:1048000083E0089581E0089580E008954091E800F4
:1048100042FFDDCF0895EF92FF920F931F93CF9346
:10482000DF937C018B010E94D823811119C0E7011D
:1048300001151105A1F08091E80085FD0AC0809165
:10484000E8008E778093E8000E94D823882381F3C4
:1048500007C089918093F10001501109E9CF80E0F0
:10486000DF91CF911F910F91FF90EF90089524E079
:1048700030E043E060E080E30E94D83292E09A9515
:10488000F1F700C00895CF93C82F0E9437248C2FD2
:104890008F770E9451338FE391E00197F1F700C0C9
:1048A00000000E946933C82F92E09A95F1F700C08A
:1048B0000E94813382E38A95F1F700C08C2FCF915B
:1048C0000895CF93DF93C82FD62F0E943724C03589
:1048D00011F0109222038C2F80680E9451338D2F8B
:1048E0000E945133EC018DE58A95F1F700000E949A
:1048F000813381E291E00197F1F700C00000CE0121
:10490000DF91CF91089564E670E00E943C356150DC
:1049100071096837710510F067E770E08FE00C945B
:1049200061240F931F93CF93DF93209A0E94D0327C
:10493000109222030E9481330E9437240E94813307
:1049400066EB8BE30E9461242FEF82E597E0215014
:1049500080409040E1F700C000000E943724EAE662
:10496000EA95F1F700C00E948133FAE6FA95F1F773
:1049700000C06AE58AE30E9461242FE788E391E0A2
:10498000215080409040E1F700C0000082E00E948A
:10499000432483E00E94432484E00E94432485E072
:1049A0000E94432486E00E9443246DE183E10E943B
:1049B0006124EFE1FEE43197F1F700C0000068E107
:1049C00083E10E9461240E94372482EE0E945133C9
:1049D000F8E2FA95F1F7C4EDD3E002ED13E1FE0140
:1049E00084910E945133F8E2FA95F1F721960C1761
:1049F0001D07A9F78FE891E00197F1F700C00000CB
:104A00008AE20E94432460E080E10E9461240E94C7
:104A10008133EFE1FEE43197F1F700C0000080E45C
:104A200096E00E9483248FEC97E00197F1F700C095
:104A3000000060E080E10E94612464E181E10E9465
:104A4000612462E083E60E94612480E00E944324A6
:104A50008FE30E9443248AE20E9443242898DF9136
:104A6000CF911F910F91089586E290E00C94D63378
:104A7000CF93C82F811102C06FEF01C06BEA83E2B0
:104A800090E00E94D633C11102C06FEF01C06DEFFC
:104A900084E290E00E94D633C11102C06FEF01C0E2
:104AA00064E485E290E0CF910C94D63380E00E94DC
:104AB000382560E070E0CB010E9434250E94512D22
:104AC0000E94102D81E00C94382583E290E00E9432
:104AD000C2338B3A81F484E290E00E94C2338D3F6E
:104AE00051F485E290E00E94C23391E0843409F0F1
:104AF00090E0892F01C080E0817008950C94832498
:104B0000803F39F48091110387FF6AC0109211032E
:104B100067C0813F29F4809111031816BCF360C06F
:104B200090911003823F29F497FF5AC0109210030E
:104B300057C0833F19F41916CCF352C09091120359
:104B4000893F31F419160CF04BC01092120348C083
:104B50008A3F19F497FF44C0F8CF8B3F39F4809116
:104B6000130387FF3DC0109213033AC08C3F29F412
:104B7000809113031816BCF333C0843F21F4809155
:104B80000F038E7F17C0853F21F480910F038D7F27
:104B900011C0863F21F480910F038B7F0BC0873FAC
:104BA00021F480910F03877F05C0883F31F4809105
:104BB0000F038F7E80930F0313C08D3F21F48091EC
:104BC000EC018E7F0BC08E3F21F48091EC018D7F34
:104BD00005C08F3F29F48091EC018B7F8093EC011D
:104BE00080911003811106C080911103811102C0D0
:104BF0001092EB0180911203811106C08091130382
:104C0000811102C01092EA0108958091EC0180FDAB
:104C100016C081FD16C082FD18C08091EA0188236C
:104C200091F0883290F428E0829FC001112468E25C
:104C300070E00E945035862F672B29F007C082E074
:104C4000089584E0089581E0089588E008958091B2
:104C5000EC0180FD14C081FD14C082FD16C080915E
:104C6000EB01882381F08E3180F420E5829FC00122
:104C700011246EE170E00E945035862F089584E182
:104C8000089588E2089588E0089580E50895803FBA
:104C900021F40E942726819504C0813F29F40E94B7
:104CA0002726809311030895823F21F40E9427262E
:104CB000819504C0833F29F40E9427268093100326
:104CC0000895893F19F40E94052605C08A3F31F4F2
:104CD0000E94052681958093120308958B3F21F44D
:104CE0000E940526819504C08C3F29F40E94052668
:104CF000809313030895843F21F480910F03816012
:104D000017C0853F21F480910F03826011C0863F58
:104D100021F480910F0384600BC0873F21F48091C0
:104D20000F03886005C0883F31F480910F038061D4
:104D300080930F0308958D3F21F48091EC018160F1
:104D40000BC08E3F21F48091EC01826005C08F3F43
:104D500029F48091EC0184608093EC0108950F9315
:104D60001F93CF93DF9300D000D01F92CDB7DEB753
:104D70008C019093B7038093B603011580E2180766
:104D800038F5802F0E940532C801805E910908978E
:104D900018F00115110571F4C8010E94402F0F9001
:104DA0000F900F900F900F90DF91CF911F910F9167
:104DB0000C94F431C8010E94402F0F900F900F9077
:104DC0000F900F90DF91CF911F910F910C94DF31D5
:104DD0008EEF89838A831B820E941A2B8160782F31
:104DE0009D838C8349815A816B818D810E94BB3068
:104DF0000F900F900F900F900F90DF91CF911F9118
:104E00000F910895CF93DF9300D000D01F92CDB7BC
:104E1000DEB79093B7038093B603811520E2920723
:104E200048F40F900F900F900F900F90DF91CF915B
:104E30000C946D2F8EEF89838A8381E08B830E948F
:104E40001A2B8160782F9D838C8349815A816B81D5
:104E50008D810E94BB300F900F900F900F900F909C
:104E6000DF91CF9108959F92AF92BF92CF92DF9240
:104E7000EF92FF920F931F93CF93DF93CDB7DEB7DF
:104E80002C970FB6F894DEBF0FBECDBF4F83588767
:104E9000062F6987172F7A878B879C87809122033B
:104EA000811107C060E080E50E94612481E0809369
:104EB00022030E94372480E50E9451332DE52A9574
:104EC000F1F700000E946933982E0E9469330E9416
:104ED00069337C010E946933A82E0E9469336C01FA
:104EE0000E946933B82E892D877011F01092220329
:104EF0000E94813393FC3BC097FE39C08091200310
:104F000090912103892B31F40E941A2B9093210355
:104F1000809320036A2DAA0C770B762F6627E62A4A
:104F2000F72A662777276E197F0961388FEF780790
:104F30003CF06038710514F06FE770E0062F01C097
:104F400001E88B2DBB0C990B982F88278C299D2964
:104F500091958195910981382FEF92073CF0803827
:104F6000910514F08FE790E0182F01C011E8098730
:104F70001A8786E0FE013796DE01119601900D92A8
:104F80008A95E1F729813A814B815C816D817E812F
:104F900080E090E02C960FB6F894DEBF0FBECDBF38
:104FA000DF91CF911F910F91FF90EF90DF90CF9005
:104FB000BF90AF909F9008952F923F924F925F9233
:104FC0006F927F928F929F92AF92BF92CF92DF9219
:104FD000EF92FF920F931F93CF93DF93CDB7DEB77E
:104FE000C454D1090FB6F894DEBF0FBECDBF4091B7
:104FF0001A0350911B0360911C0370911D03809153
:105000001E0390911F030E94332720931A033093AD
:105010001B0340931C0350931D0360931E03709366
:105020001F0386E0EAE1F3E0DE01959601900D9220
:105030008A95E1F730901D03319438A686E0FE0191
:10504000B596DE01599601900D928A95E1F73C8E56
:1050500086E0FE017996DE015F9601900D928A95B9
:10506000E1F73AA286E0FE017F96AAE1B3E0019063
:105070000D928A95E1F786E0EAE1F3E0DE01D7964A
:1050800001900D928A95E1F720901C0380911E03F8
:1050900024968FAF249780911F0325968FAF259775
:1050A00080910B0390910C030E94FF2A8436910596
:1050B00008F4FDC08091090390910A030E94FF2A21
:1050C000059708F4F4C0809108038111F0C00E9494
:1050D0001A2B90930A038093090380E00E94AD325B
:1050E0002C0184E00E94AD323C01809107038823AB
:1050F00021F08091060381112BC086E093E09F93FD
:105100008F9387E093E09F938F9341EF842E41E04C
:10511000942E53EFA52E51E0B52E65EFC62E61E01B
:10512000D62E73E3E72E72E0F72E01E712E022E7B6
:1051300032E043E752E065E772E0C2010E949C2F33
:1051400090930303809302030F900F900F900F90A2
:1051500080910503882321F08091040381112BC0E5
:1051600084E093E09F938F9385E093E09F938F93E8
:1051700087E7882E82E0982E99E7A92E92E0B92E33
:105180002BE7C22E22E0D22E39EBE32E32E0F32EB3
:1051900007EF12E028EF32E049EF52E06BEF72E0E8
:1051A000C3010E949C2F90930103809300030F90F2
:1051B0000F900F900F904091020350910303809144
:1051C0000003909101032091FF02211121C0441698
:1051D00055067CF4681679060CF469C083E0809368
:1051E000FF028091FE02882309F461C01092FE0242
:1051F0005BC0681679060CF05AC081E08093FF020C
:105200008091FD02882309F452C01092FD0215C15D
:105210002130B1F4441655063CF0681679060CF4BA
:1052200046C01092FF0207C0681679060CF03FC016
:1052300082E08093FF022093FE021092FD0237C0AD
:105240002230E9F4441655066CF0681679067CF5B0
:1052500081E08093FF028091FD02882341F110924A
:10526000FD0222C06816790614F183E08093FF02E4
:105270008091FE028823D9F01092FE02DEC044160F
:10528000550634F06816790694F01092FF0206C0B5
:105290006816790664F482E08093FF0281E08093CF
:1052A000FD021092FE0203C089EF0E948F328091AE
:1052B0000D03882341F025962FAE259724963FAE07
:1052C0002497312C212C29AE3AAE24968FAD249709
:1052D0008BAF25968FAD25978CAF86E0FE01F796B4
:1052E000DE01539601900D928A95E1F72D8A3E8A50
:1052F00024968FAD24978F8B25968FAD2597888F19
:1053000086E0FE017396DE011D9601900D928A954E
:10531000E1F72F86388A24968FAD2497898B2596BE
:105320008FAD25978A8B86E0FE013D96DE019B9628
:1053300001900D928A95E1F72DA63EA624968FAD99
:1053400024978FA725968FAD259788AB86E0FE0121
:10535000BB96DE01D19601900D928A95E1F72BAABA
:105360003CAA24968FAD24978DAB25968FAD2597BB
:105370008EAB86E0FE01F196AAE1B3E001900D92BA
:105380008A95E1F786E0EEE0F3E0DE01DD9601903C
:105390000D928A95E1F790911B038EAD892B809336
:1053A0001B0386E0EAE1F3E0DE01179601900D921F
:1053B0008A95E1F786E0E4E1F3E0DE0111960190E1
:1053C0000D928A95E1F746E050E0BE016F5F7F4F96
:1053D000CE0107960E947135892B21F08AE193E076
:1053E0000E94A22B10921C0310921D0310921E0308
:1053F00010921F0386E0EAE1F3E0A4E1B3E001903C
:105400000D928A95E1F7CC5BDF4F0FB6F894DEBFC3
:105410000FBECDBFDF91CF911F910F91FF90EF9005
:10542000DF90CF90BF90AF909F908F907F906F90C4
:105430005F904F903F902F9008958AEF36CF0E9453
:105440001A2B20911003211104C020911103222353
:1054500021F09093F0018093EF012091120321112C
:1054600004C020911303222321F09093EE01809336
:10547000ED018EE093E00C94A22B8091D40108956D
:1054800024E02093E9002FEF3091E800215035FD12
:1054900006C03AE63A95F1F700C02111F5CF209108
:1054A000E80025FF0BC040E050E066E070E00E949D
:1054B0000B248091E8008E778093E8000895CF93C5
:1054C000DF9321E02093E9002FEF3091E800215095
:1054D00035FD06C03AE63A95F1F700C02111F5CF47
:1054E0002091E80025FF14C0EC0140E050E068E0A6
:1054F00070E00E940B248091E8008E778093E80092
:1055000088E0FE01A5EDB1E001900D928A95E1F7EA
:10551000DF91CF9108958093DB037093DD03609357
:10552000DC038091DF018430F9F48093E9008FEF90
:105530009091E800815095FD06C09AE69A95F1F7A2
:1055400000C08111F5CF8091E80085FF0DC040E0DB
:1055500050E063E070E08BED93E00E940B248091BB
:10556000E8008E778093E800089581E08093E00062
:1055700080E28093D8001092C9008FE097E20197F3
:10558000F1F700C0000087E090EBDC018093E003BE
:105590009093E103A093E203B093E3039CE088E1DE
:1055A0000FB6F894A895809360000FBE90936000AA
:1055B000FFCF78941F920F920FB60F9211248F9302
:1055C0009F93AF93BF938091D7039091D803A091FD
:1055D000D903B091DA030196A11DB11D8093D703C1
:1055E0009093D803A093D903B093DA03BF91AF91FE
:1055F0009F918F910F900FBE0F901F9018959C0157
:105600004FB7F8948091D7039091D803A091D90314
:10561000B091DA034FBF821B930B08952FB7F89414
:105620006091D7037091D8038091D9039091DA03E8
:105630002FBF08952FB7F8948091D7039091D80386
:10564000A091D903B091DA032FBF08951F920F9252
:105650000FB60F9211248F939F93AF93BF938091B6
:10566000D603811113C08091D7039091D803A091E4
:10567000D903B091DA034196A11DB11D8093D703E0
:105680009093D803A093D903B093DA03BF91AF915D
:105690009F918F910F900FBE0F901F9018959C01B6
:1056A0002A5F3F4FFC014281461301C012820196DE
:1056B00082179307B9F708959C01FC0132969FEF7A
:1056C00080E04191461789F09F3F19F4411101C0D4
:1056D000982F8F5F8630A9F79F3F39F0F901E90FC6
:1056E000F11D97FDFA956283089508952091D403E2
:1056F0003091D5032817390771F09093D503809323
:10570000D403E091D203F091D303309721F00084C9
:10571000F185E02D099408952091D0033091D103B3
:105720002817390771F09093D1038093D003E0914B
:10573000D203F091D303309721F00680F781E02D5A
:1057400009940895E091D203F091D303309739F092
:1057500022E0DC012C930480F581E02D099408956A
:10576000E091D203F091D303309721F00190F081C2
:10577000E02D099480E008950F931F93CF93DF935A
:10578000C42FD22FFC0182818823C9F04093CF031C
:105790000E941A2B9093CE038093CD0380E28C0F4E
:1057A000883008F057C0C77081E001C0880FCA95E3
:1057B000EAF7DF91CF911F910F910C94FB3180910B
:1057C000CF03481330C08091CD039091CE030E9447
:1057D000FF2A883C910538F510E21D0FCD17B9F06E
:1057E00080E28C0F883040F4C77081E001C0880FE0
:1057F000CA95EAF70E94F431183028F581E09D2F10
:10580000977001C0880F9A95EAF70E94FB31802FAC
:105810000E948F321830F0F4D77081E001C0880FF9
:10582000DA95EAF70AC080E28C0F883098F4C770E6
:1058300081E001C0880FCA95EAF7DF91CF911F91EF
:105840000F910C94F431802FDF91CF911F910F9124
:105850000C948F32DF91CF911F910F910895CF93C8
:10586000DF93EC014091C2035091C3036091C403E4
:105870007091C5032FB7F8948091D7039091D80306
:10588000A091D903B091DA032FBF841B950BA60B0F
:10589000B70B843F9140A105B105A8F48091C203E4
:1058A0009091C303A091C403B091C5038093BE033C
:1058B0009093BF03A093C003B093C10384EF91E022
:1058C000A0E0B0E00EC00E940E2B6093BE03709368
:1058D000BF038093C0039093C10382E390E0A0E0F4
:1058E000B0E08093BA039093BB03A093BC03B09342
:1058F000BD03D093CA03C093C903DF91CF9108952C
:10590000FF920F931F93CF93DF930091CB031091DE
:10591000CC030115110509F45CC01092CA03109262
:10592000C9031092C6031092C703D80116966D9151
:105930007C9117979B013A9521153F4108F4707EA1
:10594000C62FD1E0611101C0D0E0F82ED801199620
:10595000ED91FC911A97309739F01B966D917C91DF
:105960001C9780E00995D823DD2379F08CEF8C0F0C
:10597000813A30F46C2F83E293E00E944F2B05C0F4
:105980000E942A1E8C2F0E940532E091CB03F091D9
:10599000CC0340815181FF2071F0808584FD0BC0D4
:1059A0008091C803882339F091E09A012150310990
:1059B000253A3D4508F090E090FF03C0CA010E94DF
:1059C0002F2C0E942A1E1092CC031092CB0310920F
:1059D000C803C801DF91CF911F910F91FF900895E7
:1059E000FC0184818623C1F492819923B9F08085DA
:1059F000692383FF04C081E0611111C00DC0892FAC
:105A00008F7092959F70982B862F8F7062956F7014
:105A1000682B81E0961719F080E0089581E00895E1
:105A2000CF93DF93C7ECD0E060E0CE010E94D63385
:105A30002196C11584E0D807B9F7DF91CF91089579
:105A40000F931F93CF93DF93883030F5611124C0FB
:105A5000453010F521159CE5390731F460910E01B0
:105A600070910F01672BC1F08901C42FD0E0CC0FDA
:105A7000DD1F9AE0899FC00DD11D1124612FCE0139
:105A800087960E94D633602FCE018896DF91CF9102
:105A90001F910F910C94D633DF91CF911F910F91ED
:105AA0000895BF92CF92DF92EF92FF920F931F93D0
:105AB000CF93DF93CDB7DEB72A970FB6F894DEBF4A
:105AC0000FBECDBFC0900E01D0900F0181E090E0DD
:105AD00090930F0180930E01B12CE12CF12C00E08A
