:100000000C944B030C9483030C9483030C94830390
:100010000C9483030C9483030C9483030C94830348
:100020000C9483030C9483030C9424220C9460217D
:100030000C947C190C9483030C9483030C94830319
:100040000C9483030C9483030C9483030C94830318
:100050000C9483030C943B190C9483030C9483033A
:100060000C9483030C9483030C9483030C948303F8
:100070000C9483030C9483030C9483030C948303E8
:100080000C9483030C9483030C9483030C948303D8
:100090000C9483030C9483030C9483030C948303C8
:1000A0000C9483030C9483030C948303180918099C
:1000B00048094809270BE109270B270BEC095F0AC0
:1000C000720A720AB210C810CF109212921207115F
:1000D00019112C116D1172119A11C311FD11001219
:1000E000661F8D1F42218D1F4221D91FFC1F4221F7
:1000F000FD200D21FD377A585A000004E6D6B4469B
:100100000200210116000000742FE5A3E0020A009E
:10011000DC5D003D8889C65436C3174FE4E46A525B
:100120008568AEBFA30A2D7CFAACAF0BA49BEFCDC4
:1001300083C3B3C84DEB360A81A91527CDA3F3CFEE
:10014000F360EB84C5A2E94E8B7A44597A9868D85B
:10015000E5792EA7B46C7BB33A505812BFDA1C7401
:10016000E77937FBCCCFC87749A0A83B2AAF935398
:10017000108044D6D49BFE5003110A79DD399D2CA2
:1001800086C1026421C331821C39393418D84C6AC3
:10019000112D7CBB884BB8C91FD56B97CE095D6507
:1001A000E9C32D51E915492FCF388C1B418F6CEFD6
:1001B00019A82EAF1B7BBCCB32083E1049C8A51C2A
:1001C000F7F058DD5E936BF67CCE9A883EBD86DFF5
:1001D0005D7E59CB5E2D75C32AA1307E7DE35B2FFA
:1001E000C5CB3267206B8048AB289A96BA8F3C000B
:1001F00077AF882BFE2C147C0001F8018B040000E3
:10020000FFFFA53AB1C467FB020000000004595A81
:1002100035001E001F0020002100220023002400C2
:100220002500260027002A002B0014001A000800D1
:10023000150017001C0018000C00120013004C00E1
:10024000290004001600070009000A000B000D0039
:100250000E000F0033003400E1001D001B000600FB
:100260001900050011001000360037003800280082
:100270000100E000E200E300105F2C002C00115FA1
:100280005000510052004F0035021E021F02200292
:1002900021022202230224022502260227022A002A
:1002A00035021E021F022002210222022302240222
:1002B0002502260227024C004C003A003B003C007D
:1002C0003D003E003F002D022E022F02300231027F
:1002D000010040004100420043004400450032025A
:1002E00064024A004D00010001000100010001000C
:1002F0000100010001000100AB00AA00A900AE004E
:1003000035001E001F0020002100220023002400D1
:100310002500260027002A0035001E001F002000AF
:1003200021002200230024002500260027004C0085
:100330004C003A003B003C003D003E003F002D00D9
:100340002E002F003000310001004000410042002B
:10035000430044004500320064004B004E000100A1
:100360000100010001000100010001000100010085
:10037000AB00AA00A900AE003A003B003C003D00E3
:100380003E003F0040004100420043004400450061
:100390000100005C015C010001000100010001009E
:1003A0000100010001004C0001000100295C1D5CFE
:1003B0001E5C0100010001000100010001000100BC
:1003C000010001000100265C275C01000100010022
:1003D0000100010001000100010001000100010015
:1003E0000100010001000100010001000100010005
:1003F0000100010080020000020002007C020000F7
:1004000003000100810200000400020066021118CE
:1004100005000100820200000600020068020000E0
:10042000070002007E0200000800010083020000B5
:10043000090002006A02EC170A0002006C02EC17C5
:100440000B0002006E02EC170C0002007002EC17A9
:100450000D0002007202EC170E0002007402EC178D
:100460000F0002007602EC17100002007802EC1771
:10047000110002007A02EC17120002008402000050
:10048000130002008602000005010902A101850295
:100490000901A10005091901290515002501950586
:1004A000750181029501750381010501093009314A
:1004B0001581257F95027508810609381581257FEC
:1004C000950175088106050C0A38021581257F956E
:1004D0000175088106C0C00660FF0961A1010962BB
:1004E000150026FF00952075088102096315002676
:1004F000FF00952075089102C005010906A10105BC
:100500000719E029E7150025019508750181029575
:1005100001750881010507190029FF150026FF0054
:1005200095067508810005081901290595057501CD
:100530009102950175039101C009025B000301005E
:10054000A0FA0904000001030101000921110100C2
:10055000012240000705810308000109040100028F
:100560000300000009211101000122220007058279
:100570000320000107050303200001090402000114
:1005800003000000092111010001224F000705842A
:10059000032000011201000200000008A803F36715
:1005A0000100010203011C037600690061006C0078
:1005B0003A00660036003400630032006200330007
:1005C0006300000010035000720065006F006E00B1
:1005D0006900630000000A034F004C004B0042001A
:1005E00000000403090400000000000000000000F7
:1005F00000000000000000000000000000000000FB
:10060000000000000000000000007E0F00D4FFFF8B
:10061000FFC70000007800000000000000002A2B47
:1006200028000000000000000000000000000000A2
:100630000029000000002C1E34202122243426270B
:10064000252E362D3738271E1F202122232425262C
:100650003333362E37381F0405060708090A0B0CFA
:100660000D0E0F101112131415161718191A1B1C42
:100670001D2F3130232D350405060708090A0B0C00
:100680000D0E0F101112131415161718191A1B1C22
:100690001D2F3130354C11241FBECFEFDAE0DEBF05
:1006A000CDBF04B603FE18C080913104909132048E
:1006B000A0913304B09134048730904BA740B04BE5
:1006C00059F41092310410923204109233041092B3
:1006D0003404E0E0F8E3099511E0A0E0B1E0ECE3D8
:1006E000F2E602C005900D92A434B107D9F724E0D8
:1006F000A4E4B1E001C01D92A133B207E1F70E946A
:10070000830B0C941C310C9400008F929F92AF923B
:10071000BF92CF92DF92EF92FF920F931F93CF93EE
:10072000DF9300D000D0CDB7DEB77C01DC0113969B
:100730004D915C91149711966C9111978C910E9438
:10074000B81A8111CFC761E0C7010E94BF2D8C018B
:10075000F7018281811106C0D70112968C91811117
:100760003EC0BEC080910C0190910D010196A1F395
:100770006EE8C62E62E0D62EA12CB12C992493945B
:1007800080910C0190910D018A159B052CF3F601C7
:1007900086818823E9F0818592850817190739F445
:1007A00080918C0290918D020817190789F0D6016B
:1007B0001F969C921F971C961C930E931B97C60125
:1007C0000E941F1AC60106960E94D81910928B0229
:1007D000BFEFAB1ABB0AE6E1CE0ED11CD1CFC801E8
:1007E00082519F45409708F088C48FEF93E00E94A4
:1007F000803081117EC05EEED52ED00E09EC12E065
:10080000DD2071F00115F4E01F0709F472C0C80182
:100810000E948030811101C0DA940F5F1F4FF0CF2A
:1008200019821A821B821C82AA24AA9468012FEFC3
:10083000C21AD20AC8010E94803089831A82882392
:1008400009F457C0813009F046C0480182E0880EA3
:10085000911CC6010E9480308A83882309F449C014
:100860009FEF980F933060F4680193E0C90ED11C9C
:10087000C4010E9480308B8381112DC08601D6CFA8
:10088000843011F06401FACFC4010E948030B82E88
:100890006801A4E0CA0ED11CC80103960E948030F2
:1008A000BB2039F1882329F1282F30E0215031096C
:1008B000A29EA001A39E500D11248B2D90E00197C4
:1008C000840F951F0197D0F2EFE9FFE03197F1F720
:1008D00000C00000F7CFCE0101960E94E32CCECFDE
:1008E0000031FFE51F07C1F481E00E9465130E94FB
:1008F000731E8091B203877009F4F4C6D701129673
:100900008C91882309F4EEC68091540182FDEAC6D9
:1009100082E00E94ED26E6C601312FE5120711F4B0
:1009200082E0E3CF6801B7E5DB1AEFEFCE16D10422
:1009300011F008F040C067ED73E08C2D0E945E1E40
:10094000892BC9F586E18C9DF0018D9DF00D112458
:10095000E257FD4F86818130C9F48091D703909191
:10096000D803892B41F18091D9039091DA03892B27
:1009700011F18091DB039091DC03892BE1F48091EC
:10098000DD039091DE03892B49F015C0823099F484
:100990008091DB039091DC03892B69F026E12C9D8B
:1009A000C0012D9D900D112482579D4FDC01509662
:1009B0001C920E941F1AC80197558F3F910511F094
:1009C00008F054C020910C0130910D01281739070F
:1009D00024F490930D0180930C01F701228136E1FC
:1009E000389F5001399FB00C1124C50182579D4F8B
:1009F0006C01DC0150962C935097928116968C9145
:100A00001697992341F11A961C930E9319978F5FAD
:100A100016968C930E947019F601968785878091AF
:100A2000BD03878390918B0280919901892B8087E8
:100A30000190F081E02D309749F0D60154966D91E8
:100A40007C915597C5018C569D4F099510938D0249
:100A500000938C020BC0882349F0F601818988231A
:100A600029F0C5018C569D4F0E94D81980918102B2
:100A700080FFBFC00E9470196C01D70112968C9143
:100A80008823D9F18091180182FF08C020E631E067
:100A900040E0B60180E090E00E94521C0B31BCE5C2
:100AA0001B0779F00C31ECE51E0789F00A31FCE5F3
:100AB0001F07A1F480911801982F909590FB80F961
:100AC00009C08091180181608093180107C080914E
:100AD00018018E7F809318010E94151CC801905642
:100AE000811520E2920720F0905E8115904180F5FB
:100AF0001092BD011092BC017CC0013E110521F491
:100B0000809118018F7E06C0053E110531F4809159
:100B100018018F7D809318011BC0C8019056811564
:100B2000B0E29B0720F0905E8115904188F480919F
:100B3000180182FF5EC08091830281FD5AC020E6C9
:100B400031E040E0B60180E090E00E94521C51C0CC
:100B50008091180180FF4DC0D70112968C91083208
:100B6000110538F40E311105B8F40430110578F48C
:100B70001CC00933110538F40D32110590F40B3205
:100B8000110579F012C00436110559F00EC090918C
:100B9000810294FD0AC0BEC19091810293FD05C0FF
:100BA000B9C19091810292FFB5C1882311F11092D1
:100BB000BD011092BC01033FBCE51B07B9F178F4FD
:100BC000083DFCE51F0761F1093D2CE5120709F41A
:100BD0004EC0073D8CE5180709F057C01BC0053F04
:100BE0009CE51907A1F168F1063FBCE51B07C9F1B7
:100BF0004CC0033FBCE51B07C9F0F0F4083DFCE521
:100C00001F0771F0093D2CE5120789F1073D8CE5BE
:100C10001807B1F506E221EE41EE67ED7CE52CC048
:100C200007E225EE45EE68ED7CE526C006E221EE02
:100C300040EE63EF7CE520C0053F9CE5190739F0E5
:100C400060F407E225EE44EE64EF7CE515C006E2B1
:100C500021EE42EE65EF7CE50FC0063FBCE51B07C9
:100C600079F407E225EE46EE66EF7CE505C008E282
:100C700021E045EE69ED7CE5C7010E94411A39CEBD
:100C8000F7012281222309F4F3C110928A02033072
:100C9000FDE51F0758F40A3F2CE5120780F4C80150
:100CA00082509C45449708F0E2C109C001368DE5A9
:100CB000180729F0053A9DE5190709F0D8C10E94E7
:100CC000382690935401809353010131ACE51A0703
:100CD00009F4C6C008F042C00930ECE51E0709F46B
:100CE0009BC000F505302CE5120709F485C078F4A7
:100CF00003309CE5190709F478C008F07AC0023087
:100D00001C4509F0F7C0809153018160F1C00730A4
:100D1000ECE51E0709F478C008F07AC08091530111
:100D20008061E6C00D302CE5120709F487C058F445
:100D30000B309CE5190709F479C008F07BC080915D
:100D4000530188606FC00F30BCE51B0709F480C0F9
:100D500008F082C080915301877FCAC00D3FFCE537
:100D60001F0709F471C000F505318CE5180709F477
:100D700085C068F40331ACE51A0709F475C008F0C2
:100D800095C00E94AA13809153018F77B1C00B3F89
:100D9000ECE51E07A9F108F054C00A3F1C4509F014
:100DA000A9C08091540140C001308DE5180709F4B5
:100DB00089C058F40F3FACE51A0709F45AC008F08F
:100DC00069C08091540182602FC00136EDE51E0795
:100DD00009F47EC0053AFDE51F0709F483C002301F
:100DE0001D4509F087C060E06EC0809153018260AC
:100DF0007FC08091530116C080915301886078C0F4
:100E00008091540182604FC080915301806270C014
:100E10008091530180646CC00E94AA138091530199
:100E2000806866C0846064C081603DC08091530169
:100E30008E7F5EC0809153018D7F5AC08091530197
:100E400016C08091540118C0809154018D7F2BC031
:100E5000809153018F7E4CC0809153018F7D48C09B
:100E6000809153018F7B44C080915301877F8B7F9A
:100E70003FC0809154018D7F8E7F15C080915301BA
:100E800082FB222720F991E0922790FB82F990FBC8
:100E900083F92EC080915401982F909591708E7F88
:100EA000892B90FB81F98093540124C00E94AA13DE
:100EB0008091530187FB222720F991E0922790FB34
:100EC00087F916C061E08EE090E00E948E3012C07B
:100ED0008091530184FB222720F991E0922790FB17
:100EE00084F906C080915301982F909590FB80F96A
:100EF00080935301609153011091540184E090E07C
:100F00000E948E30612F82E290E00E948E300E941B
:100F1000AA13EFCC882309F4A3C0209199018091F2
:100F2000BD03982F922B392F3D7F79F11092BD018F
:100F30001092BC013091810231FD27C0F80143E0DD
:100F4000F695E7954A95E1F7EE71FF27E656FE4FD5
:100F500098012F70332781E090E002C0880F991F1D
:100F60002A95E2F780959095208131818223932301
:100F700091838083A70160E0C8010E94331C8091A7
:100F8000BD038D7F0E94BE2667C038E0F701A0E652
:100F9000B1E001900D923A95E1F710926201109242
:100FA0006401109263014091BC015091BD0104178E
:100FB0001507D1F53091810235FF36C040911801F7
:100FC00041FF02C036FF30C04091BA015091BB01D1
:100FD000B601641B750B40917E0250917F0264172D
:100FE000750710F521FF08C080911801806180937A
:100FF000180182E00E94D9268091990185FF08C0DE
:101000008091180180628093180180E20E94D926A5
:101010006091180166956170A7018091BC01909163
:10102000BD010E94331C65CC9695917020911801EA
:1010300090FB21F9209318018D7F0E94BE2610930A
:10104000BD010093BC01D092BB01C092BA01809156
:10105000180184608093180182E00E94ED2649CC3B
:10106000970140E0B601C8010E94521C42CC21E029
:101070000631ECE51E0709F04FC080919901982FC9
:101080009A7A3091800230FF04C0482F447409F0EE
:1010900090E031FF04C0482F417109F090E032FF29
:1010A00004C0482F487809F090E033FF02C08272F4
:1010B00061F42223A1F081E0911101C080E08093CE
:1010C0004601992331F065E305C0222341F01092D7
:1010D000460169E28DE593E00E94B2190BC0809150
:1010E0004601882311F065E301C069E28DE593E0D4
:1010F0000E94A5190E945727FCCB00318FE51807E5
:1011000011F481E006C001319FE5190709F053CCC5
:1011100082E00E947113EBCBD70112968C91882349
:1011200089F10A358DE5180741F150F40115ACE558
:101130001A07A9F00E3D1C4529F50E944926D9CB76
:101140000B35EDE51E07D9F00C351D45D9F480911E
:10115000540182FB882780F991E0892711C00E9401
:10116000AA132FEF84E39CE0215080409040E1F7E8
:1011700000C000000E941719BCCB81E001C080E0D4
:101180000E940A27D70116968D919C911797009778
:10119000B9F4F701828100811181882349F0C801E7
:1011A0000E94C812D82E682FC8010E94341304C0B0
:1011B000C8010E940413D82EB8018D2D0E94AB1DCA
:1011C0000E94BD24182F092FD7011296BC901297A8
:1011D0001596CC90C2943FE0C3228091B2038770F1
:1011E000B9F0BB20A9F0892F807F803421F080E204
:1011F000810F883068F08091540182FD09C082E03F
:101200000E94ED268091B2038770AA24A3948111D5
:10121000A12C902E92942FE09222892D90E08C3078
:10122000910508F014C2FC01EA5AFF4F0C94F23009
:10123000902F9F70802F807FD92E19F0D29490EF3D
:10124000D922BB20A9F0DD2009F4E1C180E2810FA1
:10125000883010F0111104C08D2D0E94E02605C0C9
:1012600080918B02D82AD0928B020E945727CFC13F
:10127000812F0E94D413DD2009F4E9C180E2810F9F
:10128000883068F1112359F18D2D0E94D2262AC091
:10129000902F9F70802F807FD92E803219F0D294AA
:1012A00080EFD822112321F0113009F459C064C015
:1012B0008091540182FF19C0BB2059F0DD2029F034
:1012C0008D2D0E94E0260E94572780E00E94561430
:1012D000BEC180E00E94D413DD2009F4B8C18D2D79
:1012E0000E94D9260E945727B2C1BB2001F1CC2011
:1012F000D1F0B1E0CB1206C08091BD038D290E94D0
:10130000BE26A5C180918202823068F0C8120BC04F
:101310000E94B3268091AF03D812D092AF038D2DD7
:101320000E94CD1394C18091BD038D29F9CFCC20AB
:1013300079F080918202E1E0CE120DC0823008F493
:1013400086C1809199018D2109F481C10E94A22753
:101350000E94B32632C08230D8F3C812F9CF77C1C9
:10136000BB2029F0F5E0FC1508F471C1D8CF24E0CA
:101370002C1508F46CC121C0BB20E9F0CC2079F217
:1013800020E0D7014C9111965C91119712966C91C7
:10139000129713967C91139714968C910E94962D18
:1013A0008091830281FD33C1F701858180FF2FC1C8
:1013B0008F708583B4CFC11033C18D2D0E94C613A9
:1013C00046C1812FBB2019F00E944E2C02C00E9402
:1013D000412B0E94172B41C1802F8370A1F5B110C2
:1013E0003AC1412F429546954770440F440F212F33
:1013F0002F7030E0C901042E01C0880F0A94EAF76B
:1014000014FF08C02FE030E001C0220F4A95EAF730
:10141000209501C020E0302F36953695337032305C
:1014200069F040F44091BE03313019F0822B8423DF
:1014300002C0842B822B0E947C130DC1282B80912B
:10144000BE038227F8CFBB2019F0802F817001C026
:101450008695882309F4FFC0412F42954695477031
:10146000440F440F212F2F7030E0C901042E01C01A
:10147000880F0A94EAF714FF08C02FE030E001C09B
:10148000220F4A95EAF7209501C020E0302F3695CB
:1014900036953370323051F070F440915C03313046
:1014A00019F0822B842308C0842B05C0282B80913F
:1014B0005C03822701C0822B0E946113CCC0F02FF5
:1014C000FF70DF2EBB2039F08F2F0E947113812F08
:1014D0000E94CD13C0C0812F0E94C6138D2D0E9483
:1014E0006513B9C0123F11F128F4103F41F0113FCC
:1014F000A9F189C0133F01F1143F61F184C0BB2001
:1015000029F024E02C1508F4A2C004C085E08C1555
:1015100008F49DC0202F2F7181E090E001C0880F5A
:101520002A95EAF790915C03892711C0802F8F716B
:10153000BB2009F470C087C0BB2041F081E0902F30
:101540009F7101C0880F9A95EAF701C080E00E9460
:1015500061137DC08091540182FF06C0802F8F717E
:10156000BB2009F470C057C0809182028230A0F184
:101570008091AF03BB20E1F00E94D9268091B20395
:101580008770843039F40E94E626802F8F710E9484
:1015900065135CC080918202C81608F057C0902F76
:1015A0009F71D92E892F0E94711363E08D2D0DC07C
:1015B0000E94E02680918202C81650F00E94E62622
:1015C0000E94A22764E0802F8F710E9427273EC0CF
:1015D00081E00E94ED263AC0BB2059F0A02FAF71E8
:1015E000DA2E8A2F0E94711363E08D2D0E94272727
:1015F0002EC081E00E94ED26B1E0BC1540F582E0EE
:101600000E94ED2624C0BB2049F0CC2011F0812F90
:101610005DCE802F8F710E94711319C0CC2089F08C
:10162000193329F4809186029091870204C0809139
:101630008402909185020E94471C812F0E94D4133E
:1016400006C0802F8F710E94651301C0A12C88EF06
:10165000890D843010F40E94CC19812F902F0E94A4
:101660008013811105C010924801109247011EC0DD
:10167000BB2019F0C110F7CF19C0C110F4CF20E082
:10168000F701408151816281738184810E94962D8E
:101690008091830283FFE7CF8091470190914801B9
:1016A000029709F7812F0E94DC14DDCFAA20B1F048
:1016B0008091B20380FD12C0D70112961C928595CD
:1016C000859585950E947113C7010E9485038091BD
:1016D000B2038595859585950E94651360E0C701E5
:1016E0000E94BF2D0F900F900F900F90DF91CF9120
:1016F0001F910F91FF90EF90DF90CF90BF90AF9030
:101700009F908F900895CF93DF93CDB7DEB7E49786
:101710000FB6F894DEBF0FBECDBF84B7877F84BFFE
:101720000FB6F894A895809160008861809360005E
:10173000109260000FBE90E080E80FB6F89480939E
:101740006100909361000FBE85B7806885BF85B743
:10175000806885BF80E893E29093450180934401BF
:101760000E94772A0E941E2A0E941A1D0E94A4210C
:101770000E94C3218091E20084608093E20078940B
:1017800080915B038823A1F01091E9001F70909174
:10179000EC00892F817090FD80E8182B1092E900F1
:1017A0008091E80083FD0E947E1E1F701093E90067
:1017B00082E084BD93E095BD9AEF97BD80936E0063
:1017C0000E94FE2A811102C00E94EF2A03E211E06A
:1017D000A8E2EA2EA1E0FA2ED8018D918D018F3F6B
:1017E00011F00E94C523E016F106B1F708E211E0FE
:1017F000F4E3EF2EF1E0FF2EF80181918F018F3F8E
:1018000011F00E94C523E016F106B1F78AE0EDE67B
:10181000F1E0DF01282F1D922A95E9F7E9E4F1E0D4
:10182000DF011D928A95E9F76E9A769A80E090E042
:101830000E948830893E9E4F21F40E94FE2A811129
:1018400002C00E94492682E090E00E94803080938E
:1018500055010E94382690935401809353010E94B1
:10186000DC23EFE3FCE93197F1F700C000000E94B0
:10187000DC2380916D0180FF08C06FEF7FEF80E077
:1018800090E00E94AC300E94171983E090E00E9423
:1018900080300E947C1380E091E090933F0380931E
:1018A0003E03E7E72E2EE1E03E2E8E010F5F1F4F35
:1018B00080915B03853009F047C060E1E62E72E15C
:1018C000F72E80915B03853009F03AC080915B036D
:1018D000843021F11092400328E130E040E40FB65B
:1018E000F894A895209360000FBE4093600083B7E2
:1018F000817F846083BF83B7816083BF789488953C
:1019000083B78E7F83BF0FB6F894A895809160004F
:10191000886180936000109260000FBE8091510337
:10192000882309F4CECF0E94DC23EDE6F1E081911B
:101930009191892B09F0FAC52E163F06C1F7C1CF48
:101940000E94AA130E94CC190E94DC23882359F01C
:101950008FB7F89440914103509142036091430343
:10196000709144038FBF5DE6A52E51E0B52EE6E5EC
:10197000F1E0D501E12CF12C7E2D2D913D9181914D
:10198000919182279327009779F160E0CC24C3944A
:10199000D12CAC014C215D21452B09F16BA77CA713
:1019A0002C213D2181E0232B09F480E08DA70E94AA
:1019B00070198160782F9FA78EA74BA55CA56DA598
:1019C0008FA50E94CD2DF701EE0FFF1FEA5AFE4FA3
:1019D00080819181C826D926D182C0821CC06F5FC8
:1019E000CC0CDD1C6C30A9F68FEFE81AF80A95E0F4
:1019F000E916F10409F68FEF88AB89AB1AAA0E94A9
:101A000070198160782F9CAB8BAB48A959A96AA942
:101A10008CA90E94CD2D80910C0190910D01019611
:101A200051F1712C96E1692E1DC0689EF001699EEE
:101A3000F00D1124E257FD4FC288D388C114D104A0
:101A400021F4C0907E02D0907F02689E4001699E82
:101A5000900C1124F401E257FD4F7F018681811122
:101A60000FC07394872D90E020910C0130910D01EF
:101A700028173907D4F680911901811111C038C097
:101A8000858596850E946119C816D90650F7C70149
:101A90000E941F1AC4018C569D4F0E94D819E1CF95
:101AA0008091640290916502009711F10E94611982
:101AB0002091BE013091BF0128173907C8F49091D9
:101AC000620280916302981759F00E94661B10927F
:101AD000BF011092BE01109265021092640208C00C
:101AE0000E94F51A10926502109264020E94471B30
:101AF0008091810280FF1EC08091180182FF1AC070
:101B00000E9470192091BA013091BB01AC01421BB7
:101B1000530B20911601309117014217530750F0D3
:101B200020E631E041E0BC018091BC019091BD0113
:101B30000E94521C86E0E9ECF3E0D80101900D927E
:101B40008A95E1F7C090CB03D090CC03E090CD0311
:101B5000F090CE031092CB031092CC031092CD03E1
:101B60001092CE03C11003C0DD2009F45DC0809146
:101B7000C7039091C8030E946119AC019091C303FF
:101B8000992339F02091140130E02417350758F0DB
:101B90004BC020911501FAE02F9F900111242417CA
:101BA000350718F041C09F3F19F09F5F9093C30322
:101BB000CC2061F00E94FF2B1C1414F491E001C0B2
:101BC0009FEF899F802D11248093CB03DD2061F04E
:101BD0000E94FF2B1D1414F491E001C09FEF899F18
:101BE000802D11248093CC033091CB033323E1F07B
:101BF0002091CC032223C1F045EB3403C001112412
:101C0000992319F09093CB0303C081E08093CB0319
:101C100035EB2303C0011124992319F09093CC03D1
:101C200003C081E08093CC03E11003C0FF2009F4DE
:101C30005DC08091C5039091C6030E946119AC01FB
:101C40009091C203992339F02091100130E02417BC
:101C5000350758F04BC0209111018AE0289F900170
:101C600011242417350718F041C09F3F19F09F5FDA
:101C70009093C203EE2061F00E94C62B1E1414F450
:101C800091E001C09FEF899F802D11248093CD03A7
:101C9000FF2061F00E94C62B1F1414F491E001C0D4
:101CA0009FEF899F802D11248093CE033091CD0327
:101CB0003323E1F02091CE032223C1F045EB34031E
:101CC000C0011124992319F09093CD0303C081E042
:101CD0008093CD0335EB2303C0011124992319F020
:101CE0009093CE0303C081E08093CE038091CB0319
:101CF00081110BC08091CC03811107C08091CD036D
:101D0000811103C08091CE0381110E94172BCB82D9
:101D1000DC82ED82FE8286E0F801A9ECB3E001905E
:101D20000D928A95E1F70E94CC1990916801891370
:101D30008093680180915B03843009F0B9CD83E022
:101D40008093E9008091E80082FFB2CD8091E800A5
:101D500085FF21C00E94FB2281111BC080E2E82E7A
:101D6000F12C680109C08091F100D6018D936D01BD
:101D7000B1E0EB1AF10869F08091E80085FDF3CF3E
:101D80008091E8008B778093E8000E94FB228823F3
:101D900099F391E001C090E08091E8008B77809307
:101DA000E800992309F484CDE0909701F090980120
:101DB0008981E114F10461F08E3F09F0B3C38A8197
:101DC000833008F4C3C18550833008F0ABC3BEC173
:101DD0008B3009F4A5C108F5853009F478C0A8F462
:101DE0008230B9F130F4813009F09AC31A8289E067
:101DF00072C2833009F45CC0843009F091C34C8115
:101E00006B818A810E94F02960C0873009F488C301
:101E100008F086C30E94C71D85C3803109F4C2C083
:101E200060F48D3009F460C008F45CC08E3009F4B1
:101E30005FC08F3009F487C073C3823109F4B7C023
:101E400008F4B3C0833109F4DCC08E3F09F47EC1CD
:101E500067C38A81823009F47FC3833089F081307F
:101E600009F05EC32FB7F89480914103909142032B
:101E7000A0914303B09144032FBFBB83AC8325C023
:101E80008091930190919401892B09F44BC3F8013F
:101E9000CE010B96D5012C9111963C91B2E0AB0E80
:101EA000B11C328323833296E817F90799F73AC3B6
:101EB0008A81823009F034C36B817C818D819E815F
:101EC0000E94F8300E94CD2A2DC39D834CC32D81E2
:101ED0003E813227232732274C816B818A810E94E1
:101EE000BA2920C380E1BAC281E08A8387E3F3C1C3
:101EF000EA80FB80FE24EF24FE24AC80B12CEDE1CF
:101F0000AE16B10408F00EC36801C70187539D4F98
:101F10009601201B310B2A153B0508F003C3F7E39C
:101F2000EF16F1E0FF0630F40E948030D6011496DF
:101F30008C9302C0F6011482FFEFEF1AFF0A2FEF15
:101F4000C21AD20AE2CF8091930190919401892B19
:101F500009F4E8C2EA80FB80FE24EF24FE24CC8052
:101F6000D12C3DE1C316D10408F0DCC25801C701F1
:101F700087539D4F9501201B310B2C153D0508F013
:101F8000D1C247E3E41641E0F40628F4D5011496E3
:101F90006C910E948E30BFEFEB1AFB0AEFEFAE1A86
:101FA000BE0AE5CF0E949B1DBDC284E057C2EA80F5
:101FB000FB80FE24EF24FE24AC80B12CFDE1AF16A3
:101FC000B10408F0AFC26801C70187969601201BD3
:101FD000310B2A153B0508F0A5C220EEE21621E0E0
:101FE000F20630F40E948030D60114968C9302C021
:101FF000F6011482FFEFEF1AFF0A2FEFC21AD20A7E
:10200000E3CFEA80FB80FE24EF24FE24AC80B12CD9
:102010003DE1A316B10408F085C240EEE41641E0AC
:10202000F40608F07FC280EE91E08E199F098A15B0
:102030009B0508F477C2370187E2680E711C809116
:10204000930190919401892B11F0680160C0E0FE2A
:102050000FC0C70186960E94803090E0982F882795
:102060002D81822B81159C4531F48FEF8D8303C028
:10207000C12CD12C03C0CC24C394D12CC5018E0D0E
:102080009F1D450180FF1BC0B1E08B1A9108E5E060
:102090004E2E512C4C0E5D1E480C591CC3018A0D4E
:1020A0009B1D0E948030F201208130E0322F2227D8
:1020B000282B21153C4519F48FEFD2018C93F801A0
:1020C000EC0DFD1D2FEFCF01801B910B881599059D
:1020D00008F0BBCF848190E0982F88273581832B2F
:1020E00081159C4511F4248325833296ECCFE0EED4
:1020F000EE16E1E0FE0628F4D60114966C910E94DB
:102100008E30BFEFEB1AFB0AEFEFCE1ADE0AC701E3
:1021100087969601201B310B2A153B0540F302C21E
:102120008091930190919401892B09F4FBC1C8011E
:102130000E945A23FFEF21EE34E0F150204030405E
:10214000E1F700C000000E941719ECC1EA818E2F50
:1021500090E08E30910508F0E5C1FC01EE59FF4F8B
:102160000C94F23088E0EBE1F1E0DE019196019011
:102170000D928A95E1F780E2D8011D928A95E9F7E0
:1021800084E0898388E0FE01B196DE011596A4C142
:102190008CE1898381E08A831B821C82C3C18C818C
:1021A00090E0982F88272B81820F911D092E000C1B
:1021B000AA0BBB0B65E0880F991FAA1FBB1F6A956E
:1021C000D1F7AC01BD01405E5F4F6F4F7F4F4817A5
:1021D00059076A077B0708F4A5C18C31E1E09E0727
:1021E000A105B10508F09EC14D31F1E05F07610521
:1021F000710520F04CE151E060E070E0481B590BA4
:10220000BC016C507F4FC8010E9467308BC140E217
:1022100050E06FEF70E0C8010E941531809193018A
:102220008983EA8282E08B831C8283E08D838BE04A
:102230009AC181E090E0909398018093970182E3A6
:1022400090E090936C0180936B010E9470199093C1
:102250006A018093690166C1EF28A9F1F0907401C9
:10226000F3FA882780F9F0907101F82280916901D2
:1022700090916A010E94611985369105F0F0FF2066
:10228000E1F00E94701990936A0180936901809136
:102290006B0190916C01019790936C0180936B019D
:1022A000892B89F4109298011092970181E090E0B7
:1022B000909394018093930106C082E390E0909301
:1022C0006C0180936B0180919301898380919701C8
:1022D0008A8380916B018B8325C1109294011092A7
:1022E000930120C1EB80FC8040E250E06FEF70E092
:1022F000C8010E94153120EF33E0A8E8B4E080E087
:1023000090E0AC014E5F5F4F4132510508F00AC1C9
:10231000F90165917491E616F70630F4F801E80FBB
:10232000F91F71836083CA01285F3F4FA217B3076B
:1023300041F7F8C02B813C8180EF93E0FC0145918F
:1023400054912417350731F0089644E088389407F3
:10235000A9F7E6C0009709F4E3C09C012E5F3F4F48
:10236000F901459154914032510508F0D9C0F90165
:1023700045915491FC01349665917491CE01029679
:102380000E940C3138C02B813C8188E894E040EFFA
:10239000E42E43E0F42EF701459154914217530780
:1023A00039F0A8E0EA0EF11C8E159F05A1F7B8C020
:1023B000E114F10409F4B4C0C7010296FC012591AF
:1023C00034912D31310508F0ABC0FC014591549199
:1023D000F701349685919491BE016B5F7F4F0E9407
:1023E0000C310E94411DF70136968591949100971A
:1023F00011F0FC01099580E094C00E945E1D92C01E
:102400008B81823069F1E8F4882309F1813009F089
:1024100089C08C819AE0F92E6E01B1E2CB0ED11CFD
:10242000F6012F2D11922A95E9F7B6010E945E1E42
:102430008983F601DE01129601900D92FA94E1F77C
:1024400071C0833061F1843009F44BC06BC080E20D
:10245000D8011D928A95E9F788E089838A8362C052
:102460006C818AE0FE013596DE01919601900D9215
:102470008A95E1F7683070F43AE0639FB001112467
:10248000675D7D4F4AE050E0CE0181960E94B230F8
:1024900080E001C08FEF89830E94772A43C06C815E
:1024A000CE0181962AE0DC011D922A95E9F7683079
:1024B00060F4BAE06B9FB001112467587D4F4AE089
:1024C00050E00E94703080E001C08FEF89838AE085
:1024D000FE01B196DE01129601900D928A95E1F708
:1024E00021C06C818AE0FE013596DE019196019053
:1024F0000D928A95E1F7683070F4EAE06E9FB001C2
:10250000112467587D4F4AE050E0CE0181960E9429
:10251000B23080E001C08FEF89830E941E2A02C082
:102520008FEF8983C8010E945A23C2C9E9BCF9BC54
:1025300009B400FEFDCF8091D8008F7D8093D80034
:102540008091E00082608093E0008091E00081FD56
:10255000FCCF0E94AA13B5C986E290E00E948030A9
:102560001B821C821D828E83DDCF10928B020E9403
:102570005727E9ECF3E086E0DF011D928A95E9F741
:102580001092C3031092C2031092C4030C94172B31
:10259000CF92DF92FF920F931F93CF93DF936C0143
:1025A00000915C038091BE03082BC7E0D0E010E0EF
:1025B000C8010C2E02C0959587950A94E2F780FD1C
:1025C00004C02197A8F7F12C09C0FC2EB6018C2F6E
:1025D0000E94AB1D0E94BD24019799F38F2DDF91BE
:1025E000CF911F910F91FF90DF90CF900895CF93DF
:1025F000DF93EC010E94C812BE010E94AB1D0E9435
:10260000BD24DF91CF9108959E3F61F12CE0929F10
:10261000800D1124682F669566956695982F9770A2
:1026200083E0689FB001112440E050E080E0FB01AE
:10263000E40FF51FE558FE4F208130E0092E02C05F
:10264000369527950A94E2F721703327042E01C0AE
:10265000220F0A94EAF7822B4F5F5F4F43305105F8
:1026600031F7089580E008959E3F51F12CE0929F4C
:10267000800D1124E82FE695E695E695877051E0E8
:1026800001C0550F8A95EAF783E0E89FF001112415
:10269000E558FE4F20E030E070E04081CB01022E93
:1026A00002C0969587950A94E2F7817081958427F8
:1026B0008523842781932F5F3F4F2330310569F7AE
:1026C000089580935C030C94B51221E030E001C0C2
:1026D000220F8A95EAF7209580915C0382230C945F
:1026E000611321E030E001C0220F8A95EAF7809162
:1026F0005C03822B0C9461138093BE030C94B5127F
:1027000092959F70963079F010F4925001C09A50D3
:10271000923068F4803F69F018F4883E40F409C0B4
:10272000843F29F406C0883E20F0813F11F080E00C
:10273000089581E00895FC0186819781009719F042
:102740000E94BD2404C0808191810E94F7120E94E2
:10275000801308951092990186E0EFE5F3E0DF0120
:102760001D928A95E9F70C94B512882321F00E94F6
:10277000D2260C9457270895882339F090918B0224
:10278000892B80938B020C9457270895882321F07E
:102790000E94D9260C9457270895882321F00E947F
:1027A000E0260C9457270895882309F47EC08238C8
:1027B00069F40E94CC1981FF78C069E38DE593E04C
:1027C0000E94B2190E94572769E30EC0833891F422
:1027D0000E94CC1980FF69C063E58DE593E00E94FB
:1027E000B2190E94572763E58DE593E00E94A51971
:1027F0000C945727843869F40E94CC1982FF55C085
:1028000067E48DE593E00E94B2190E94572767E4C0
:10281000EBCF9CEF980F913A10F4682FE5CF90E240
:10282000980F983050F4877091E001C0990F8A9505
:10283000EAF7892F0E94D926DBCF9BE5980F9330CA
:10284000A0F48091770190917801892B71F1109219
:10285000780110927701E0913E03F0913F033097A9
:1028600021F10680F781E02D17C098E5980F973188
:10287000B0F48091790190917A01892BB1F0109296
:102880007A0110927901E0913E03F0913F03309775
:1028900061F00084F185E02D80E090E00994803FB4
:1028A00020F00E94412B0C94172B0895CF9388237E
:1028B00009F480C0C82F8238B1F40E94CC1981FD80
:1028C00079C069E38DE593E00E94B2190E94572711
:1028D0002FEF81EE94E0215080409040E1F700C05E
:1028E000000069E317C08338E1F40E94CC1980FD31
:1028F00061C063E58DE593E00E94B2190E945727FD
:102900002FEF81EE94E0215080409040E1F700C02D
:10291000000063E58DE593E00E94A519CF910C942A
:1029200057278438B1F40E94CC1982FD43C067E474
:102930008DE593E00E94B2190E9457272FEF81EE98
:1029400094E0215080409040E1F700C0000067E42F
:10295000E1CF8CEF8C0F813A80F4EFE5F3E085E670
:1029600093E02191C217F1F08E179F07D1F76C2FDA
:102970008DE593E00E94B219D1CF80E28C0F8830B0
:1029800048F4C77081E001C0880FCA95EAF70E9439
:10299000E026C4CFC03F70F08C2F0E944E2CCF9108
:1029A0000C94172B6C2F8DE593E00E94A5190E94C3
:1029B0005727DDCFCF9108951F93CF93DF93182F23
:1029C000893329F4C0918602D091870204C0C09156
:1029D0008402D0918502812F0E945614209741F0E5
:1029E0008FE99FE00197F1F700C000002197F6CF33
:1029F000812FDF91CF911F910C94D4132F923F928E
:102A00004F925F926F927F928F929F92AF92BF92FE
:102A1000CF92DF92EF92FF920F931F93CF93DF93AA
:102A2000CDB7DEB765970FB6F894DEBF0FBECDBF4A
:102A30008C0185E0F801DE01519601900D928A9596
:102A4000E1F7D8014C9011965C9011971296EC909A
:102A500012971396CD90DC90149760E085E693E092
:102A60000E94BF2D85E6A82E83E0B82E80906803D3
:102A700090906903A40160916603809165030E94B0
:102A8000B81AF82E8111E5C130906703F601E819F4
:102A9000F9094F0160E0332009F469C1C5010E94C2
:102AA000BF2D60907E0270907F0220906A03861492
:102AB000970408F014C14091680350916903B090E5
:102AC0006503A0906603822D807F6A2D09F097C070
:102AD0008B2D0E94B81A811124C0D80111968C91B7
:102AE00011978A111EC08C918B111BC020916B0312
:102AF00030916C0316968D919C9117972817390782
:102B000081F4E1100EC0822D8F70806180936A0382
:102B100085E693E00E94850380916A03F80185832E
:102B2000B4C1F4EF6F16F1E07F0620F480918302C8
:102B300080FF21C0A601652D842D0E94B81A811145
:102B400003C081E08E2502C080E090E080FF13C0CA
:102B50004E2D652D842D0E94A827882361F085E6DF
:102B600093E00E948503E5E6F3E088E0DF011D9233
:102B70008A95E9F78AC1A601652D842D0E94B81AAD
:102B8000811103C081E08E2502C080E090E0B82F63
:102B9000B170CB2E80FF2AC04E2D652D842D0E9452
:102BA000A827D82E811122C0498A5A8A89899A89F0
:102BB0000E94F712292F22952F70223018F024300E
:102BC00078F405C09F7049F0811107C00DC09F7057
:102BD00021F0F8019581907F39F0805E883020F0F7
:102BE000C8010E948503DC2CFD2C4FC1EE2009F4A6
:102BF0004BC180916A03816080936A0346C18B2D2B
:102C00000E94B81A811124C0D80111968C91119795
:102C10008A111EC08C918B111BC020916B033091C7
:102C20006C0316968D919C9117972817390781F49C
:102C3000E1100EC015962C92C8010E94850388E011
:102C4000F801A5E6B3E001900D928A95E1F76FC017
:102C5000C8010E949B138823E1F1EE20D1F120915D
:102C60006A03822F82958F7090E00297A4F0809182
:102C70006503909166039A8789871B86DD86CC86DB
:102C80002E8780916B0390916C03988B8F87CE0178
:102C900009960E94850388E0F801A5E6B3E001905B
:102CA0000D928A95E1F70E94D22716C0F090650335
:102CB000909066034091680350916903692D8F2DB0
:102CC0000E94B81A882399F0C8010E949B138111B1
:102CD00030C0C8010E948503FF24F394D6C0822D22
:102CE000807F21F785E693E00E948503ACC0D80180
:102CF00011968C9111978911E7CF8C918F11E4CFA8
:102D000020916B0330916C0316968D919C911797CF
:102D100028173907C9F6E110D7CF15962C92C801AC
:102D20000E94850388E0F50111928A95E9F7F32C5A
:102D3000ACC0EE2071F220916A03822F82958F70D1
:102D400090E002970CF4A7CF809165039091660301
:102D50009A8389831B82DD82CC822E8380916B03D0
:102D600090916C0398878F83CE01019692CF85E670
:102D700093E00E94BF2D80917E0290917F02881681
:102D8000990608F060C0FE2CEE2009F4A2CFE09076
:102D90006503D090660340916803509169036D2DDF
:102DA0008E2D0E94B81A811140C0D80111968C91C5
:102DB00011978D113AC08C918E1137C020916B0301
:102DC00030916C0316968D919C91179728173907AF
:102DD00061F58091830282FD1FC080916A0380FDAE
:102DE0001BC082958F70482F50E041155105A1F00E
:102DF00020916A0315962C9315974F30510549F091
:102E00008F5F982F9295907F822F8F70892B1596C8
:102E10008C93C8010E94850388E0F801A5E6B3E021
:102E200001900D928A95E1F730C0C8010E949B1372
:102E3000811131CF80916A03816080936A03C80158
:102E40000E94850322C088E0F50111928A95E9F776
:102E50001CC0EE2009F43DCFC8010E949B13F82E40
:102E6000882309F436CF88E0F801A5E6B3E00190A5
:102E70000D928A95E1F780916503909166030E9417
:102E8000F7120E94D22701C0F12C8F2D65960FB644
:102E9000F894DEBF0FBECDBFDF91CF911F910F9190
:102EA000FF90EF90DF90CF90BF90AF909F908F906A
:102EB0007F906F905F904F903F902F900895EF928A
:102EC000FF920F931F93CF93DF93CDB7DEB7609739
:102ED0000FB6F894DEBF0FBECDBF29873A874B8768
:102EE0005C876D877E878F87988BCE0109960E94BD
:102EF000FE1481114AC088E0FE013996DE01119668
:102F000001900D928A95E1F7E984FA840C851D857C
:102F1000A8016F2D8E2D0E94B81A811136C0A09184
:102F20006D03B0E0CD010196877099272091AE0323
:102F300030E08217930781F1E982FA821D830C83C6
:102F400093E0AA0FBB1F9A95E1F7A259BC4F98E0F6
:102F5000FE01319601900D929A95E1F780936D03F1
:102F60000E94C82712C028E0829FC0011124825904
:102F70009C4F0E94FE148823E1F08091AE0390E004
:102F80000196877099278093AE038091AE0390914C
:102F90006D038913E8CF0DC00E94AA1310926D0330
:102FA0001092AE03E5E6F3E088E0DF011D928A951A
:102FB000E9F760960FB6F894DEBF0FBECDBFDF9184
:102FC000CF911F910F91FF90EF900895089508956C
:102FD0000895809147030895E6E6F2E084819581A3
:102FE0002AE030E0B9010E94CA3060931501868161
:102FF000809314018285809313018485809312014C
:1030000086859785B9010E94CA3060931101808935
:1030100080931001828980930F01848980930E012F
:1030200008958091660290916702909317018093B2
:103030001601089524E02093E9002FEF3091E80075
:10304000215035FD06C035ED3A95F1F7000021110C
:10305000F5CF2091E80025FF0BC040E050E066E08E
:1030600070E00E942E238091E8008E778093E80024
:103070000895CF93DF9321E02093E9002FEF309163
:10308000E800215035FD06C035ED3A95F1F7000016
:103090002111F5CF2091E80025FF14C0EC0140E09C
:1030A00050E068E070E00E942E238091E8008E7767
:1030B0008093E80088E0FE01A8E4B3E001900D925F
:1030C0008A95E1F7DF91CF9108958091530387FFAF
:1030D00011C08091E80082FD05C080915B038111E1
:1030E000F8CF11C08091E8008B770BC080915B0313
:1030F000882349F08091E80080FFF8CF8091E800B4
:103100008E778093E8000895982F973068F5909314
:10311000E900981739F07091EC002091ED00509182
:10312000F00003C0242F762F50E021FD02C09F5FE6
:10313000ECCF3091EB003E7F3093EB003091ED000F
:103140003D7F3093ED003091EB0031603093EB0028
:103150007093EC002093ED005093F0002091EE006E
:1031600027FDE5CF80E008958F708093E90081E02E
:1031700008952091590330915A032617370748F0D4
:103180006115710539F42091E8002E772093E8004D
:1031900001C0B901FC0120E06115710579F1809150
:1031A0005B038823F1F18530F1F18091E80083FD24
:1031B0003CC08091E80082FD2EC08091E80080FF35
:1031C000EBCF2091F3008091F20090E0922B6115FB
:1031D000710551F08830910538F421912093F10068
:1031E000615071090196F3CF21E0089709F020E0C2
:1031F0008091E8008E778093E800CECF2111CFCF69
:103200000AC080915B03882361F0853061F0809172
:10321000E80083FD0AC08091E80082FFF2CF80E0E1
:10322000089582E0089583E0089581E0089581E0A3
:103230008093E00080E28093D8001092C9008FE173
:103240009EE40197F1F700C0000087E090EBDC01FD
:103250008093310490933204A0933304B0933404E8
:103260009CE088E10FB6F894A895809360000FBEAB
:1032700090936000FFCF78941F920F920FB60F9239
:1032800011248F939F93AF93BF93809141039091AB
:103290004203A0914303B09144030196A11DB11DC7
:1032A0008093410390934203A0934303B09344035C
:1032B000BF91AF919F918F910F900FBE0F901F9074
:1032C00018959C014FB7F894809141039091420367
:1032D000A0914303B09144034FBF821B930B089509
:1032E0002FB7F8948091410390914203A09143033A
:1032F000B09144032FBF08951F920F920FB60F9203
:1033000011248F939F93AF93BF93809140038111BA
:1033100013C08091410390914203A0914303B09167
:1033200044034196A11DB11D809341039093420334
:10333000A0934303B0934403BF91AF919F918F91AA
:103340000F900FBE0F901F9018959C012A5F3F4F62
:10335000FC014281461301C0128201968217930735
:10336000B9F708959C01FC0132969FEF80E04191EE
:10337000461789F09F3F19F4411101C0982F8F5FC4
:103380008630A9F79F3F39F0F901E90FF11D97FD4C
:10339000FA95628308950895E0913E03F0913F030A
:1033A000309721F00190F081E02D099480E008959C
:1033B000EF92FF920F931F93CF93DF93FC0122852F
:1033C000211136C0EC01E380F480F7E5FF1A26E115
:1033D0002E9DC0012F9D900D1124DC01A257BD4FE1
:1033E0001496ED91FC9115978C569D4F309729F0CE
:1033F00054966D917C915597099586E18E9D80013B
:103400008F9D100D112402571D4FF80187810E94D6
:10341000D926F80180850E94D2260E94572718825B
:1034200019861B861E821D8210928D0210928C02BC
:10343000DF91CF911F910F91FF90EF900895CF935F
:10344000DF93FC012189211119C0EC0181E0818BFE
:1034500087810E94E02690918B028885892B80933A
:103460008B020E945727EA81FB81CE010696309796
:1034700029F06C897D89DF91CF910994DF91CF91FB
:1034800008950F931F93CF93DF93C42FD22FFC0186
:1034900082818823C9F040938A020E947019909318
:1034A00089028093880280E28C0F883008F05BC02C
:1034B000C77081E001C0880FCA95EAF7DF91CF910C
:1034C0001F910F910C94CD1380918A02481334C040
:1034D00080918802909189020E94611920917E0258
:1034E00030917F028217930738F510E21D0FCD1738
:1034F000B9F080E28C0F883040F4C77081E001C0E1
:10350000880FCA95EAF70E94C613183028F581E0A3
:103510009D2F977001C0880F9A95EAF70E94CD13EE
:10352000802F0E94DC141830F0F4D77081E001C0C5
:10353000880FDA95EAF70AC080E28C0F883098F499
:10354000C77081E001C0880FCA95EAF7DF91CF917B
:103550001F910F910C94C613802FDF91CF911F9173
:103560000F910C94DC14DF91CF911F910F9108956E
:10357000452B41F06F3F41F491E08F3F09F090E01F
:10358000892F03C081E001C080E081700895BC01F3
:103590004091620280916302942F981729F1292F9C
:1035A00030E0F901EE0FFF1FE65AFD4F0190F08168
:1035B000E02DE617F70799F487E0869FF001879FD3
:1035C000F00D1124EE5DFD4F81E0848394130CC057
:1035D0002F5F3F4F237033272093620208952F5FA0
:1035E0003F4F922F9370D9CF0895EF92FF920F9390
:1035F0001F93CF93DF938091C101882309F440C0CA
:103600000091C0018CE0F82E8091C1010817A0F54F
:10361000EE24E394E00EE092C00110E0F09EE001A1
:10362000F19ED00D1124CE53DE4F4B815C81698118
:1036300088810E94B81A81111DC08E819F81892BBB
:1036400021F488859985019651F4288139814A8130
:103650005B816C817D818E819F810E945F17F09ECE
:10366000F001F19EF00D1124EE53FE4F14821382EF
:1036700010928B020E2DC8CF1092C1011092C00182
:10368000DF91CF911F910F91FF90EF9008951092CD
:10369000BF011092BE01E2E2F2E08581811102C019
:1036A00014821682379682E0EA35F807B1F708955A
:1036B00010926502109264021092190180916302C7
:1036C000809362020E94471B0C94F51A3F924F921E
:1036D0005F926F927F928F929F92AF92BF92CF92A2
:1036E000DF92EF92FF920F931F93CF93DF93C091DE
:1036F000620297E0892E01E010E02CE0322E3EEFCE
:10370000932E4424439480916302C81709F478C02F
:10371000D0E0FE01EE0FFF1FE65AFD4F8081918140
:10372000889ED001899EB00D1124AE5DBD4F1496C8
:103730002C911497211161C05090C101E2ECF1E08D
:1037400020E030E0712C5D01251508F054C0E284C2
:10375000F384D501CD90DC906FEF7FEF612C462D87
:1037600050E0DA01AA0FBB1FAC0DBD1D0D90BC913E
:10377000A02D109731F0EA16FB0609F4BA01639404
:10378000EECF6F3FBFEF7B0791F1D80102C0AA0FC8
:10379000BB1F6A95E2F77A2AB80102C0660F771F4D
:1037A0006A94E2F7AB0141505109672D70E046176A
:1037B0005707D9F4329EF001339EF00D1124EE53D9
:1037C000FE4F889ED001899EB00D1124AE5DBD4F85
:1037D00012962D913C911397378326839082918284
:1037E0009187808715964C9206C0148213822F5FB2
:1037F0003F4F3C96A9CF0E94C71A2196C37083CF32
:103800000E94F51ADF91CF911F910F91FF90EF90D9
:10381000DF90CF90BF90AF909F908F907F906F90F0
:103820005F904F903F900C94471B80911801877FC9
:103830008093180182E00E94D2268091180184FFB3
:1038400006C08F7E8093180182E00E94E02680915E
:10385000180185FF06C08F7D8093180180E20E94C9
:10386000E0260C945727662329F020918B022260D2
:1038700020938B029C013056211540E2340720F042
:10388000305E2115304108F499270C944E30009792
:1038900041F0EFE9FFE03197F1F700C00000019738
:1038A000F6CF0895AF92BF92CF92DF92EF92FF9240
:1038B0000F931F93CF93DF935C017B01C42E89018B
:1038C0008091180182FF8DC0C091BC01D091BD01D3
:1038D000CA15DB0521F0A114B10409F082C0809162
:1038E00018018B7F8093180181FD11C08091BA016E
:1038F0009091BB01A701481B590B81E02091160153
:10390000309117014217530718F480E001C081E09D
:103910008170D82E80911801D0FA81F98093180116
:10392000FE01FF2784E0F695E7958A95E1F79E0171
:103930002F703327EE0FFF1FE656FE4F81E090E019
:1039400002C0880F991F2A95E2F7DD2029F0208117
:103950003181822B932B06C08095909520813181F7
:1039600082239323918380838091990181FF08C0F2
:103970008091180180618093180182E00E94D9260D
:103980008091990185FF08C0809118018062809321
:10399000180180E20E94D926A8016D2DCE010E9457
:1039A000331CCC2031F08091810285FF02C086FF5C
:1039B00036C080918402909185020E94471C8091BC
:1039C000BC019091BD019C013056211540E23407A5
:1039D00020F0305E2115304108F499270E943430E0
:1039E00018C095013327C5019056811540E2940710
:1039F00020F0905E8115904110F4C90101C0C5010D
:103A00000E9434308091BC019091BD01A816B90686
:103A100011F40E94151CF092BB01E092BA01DF91F3
:103A2000CF911F910F91FF90EF90DF90CF90BF90BB
:103A3000AF9008950F931F93CF93DF9306E612E0A4
:103A4000C7E0D2E0CE010E948030F80181938F015F
:103A50002196C932F2E0DF07A9F7C0E0D0E0FE010D
:103A6000EA50FC4F85919491009711F0FC01099563
:103A70002896C839D10599F7DF91CF911F910F9101
:103A800008950F931F93CF93DF9306E612E0C7E0EC
:103A9000D2E0CE010E948030F80161918F01681759
:103AA00019F0CE010E948E302196C932F2E0DF0774
:103AB00081F7DF91CF911F910F910895E6E6F2E033
:103AC000128E138E8FEA90E09183808385E0848F3D
:103AD00088E893E1938382838AE090E095838483EE
:103AE00024E130E03783268348E050E05187408767
:103AF000938782872EE130E03587248797878687F2
:103B000020E530E0318B208B538B428B48E250E034
:103B1000558B448B42E350E0578B468B48EC50E08A
:103B2000518F408F158E978F868F31A320A30E94CF
:103B3000411D0C941A1DCF93DF93C9ECD2E060E0D5
:103B4000CE010E948E302196C11584E0D807B9F7C6
:103B5000DF91CF910895462F2091970130919801E0
:103B6000232B91F47E3F39F46E3F71F480919501DF
:103B7000909196010895843038F4753028F46C30B3
:103B800018F4672F0C94F02980E090E008956F926C
:103B90007F928F929F92AF92BF92CF92DF92EF92DD
:103BA000FF920F931F93CF93DF93CDB7DEB7649748
:103BB0000FB6F894DEBF0FBECDBFA0909301B090BA
:103BC000940181E090E09093940180939301612CA3
:103BD000C12CD12C712CE12CF12C00E010E046011D
:103BE0008E0C9F1CF801EE0FFF1FE80DF91DE05F22
:103BF000FD4F25913491402F672D862D0E94BA29C3
:103C00000F5F1F4F0C30110569F788E1E80EF11CBA
:103C10007394E5E07E12E1CFF8E7CF0ED11C6394F8
:103C200084E06812D7CF0E945E1D1A8219821C821E
:103C30001B821E821D8218861F8288EC90E09A8764
:103C4000898709E212E04AE050E0B801CE0101960E
:103C50000E94B230065F1F4F0937E2E01E0799F756
:103C60007E01FBE0EF0EF11C8AE0F70111928A95CC
:103C7000E9F74AE050E0B801C7010E94B230065FA0
:103C80001F4F093CF2E01F07A1F7B0929401A092E8
:103C9000930164960FB6F894DEBF0FBECDBFDF91DF
:103CA000CF911F910F91FF90EF90DF90CF90BF9039
:103CB000AF909F908F907F906F900895883080F4A0
:103CC0009B01982F8AE0989FB0011124675D7D4F7A
:103CD0004AE050E0C9010E94703080E090E0089511
:103CE0008FEF9FEF089580915C03982F9670963028
:103CF00011F4886001C0877F0C9461131F93CF93E8
:103D0000DF93CDB7DEB7AA970FB6F894DEBF0FBE2C
:103D1000CDBFE3E5F3E08BE593E02091F100219343
:103D20008E179F07D1F780915403833009F463C045
:103D300030F4813071F0823009F49DC0B4C08A3013
:103D400009F489C08B3009F46EC0893009F0ABC02A
:103D500020C080915303813A09F0A5C08091E8000A
:103D6000877F8093E8008091570390915803892BB7
:103D700021F468E088E493E003C060E080E090E034
:103D800070E00E94B9188091E8008B778093E8007A
:103D90008AC080915303813209F085C08091570316
:103DA00090915803009719F0029709F07CC0809118
:103DB000E800877F8093E8008091E80082FD05C0DD
:103DC00080915B038111F8CF6EC02091F300809148
:103DD000F20090E0922B029731F48091F100813053
:103DE00011F0863021F48091F10080934703809197
:103DF000E8008B7754C080915303813A09F053C097
:103E00008091570390915803892B09F04CC0809101
:103E1000E800877F8093E8008091E80080FFFCCF76
:103E200080911A0137C0809153038132E1F580916E
:103E3000570390915803892BB1F58091E800877F53
:103E40008093E8000E9465188091550380931A01C1
:103E50000E94AA1328C080915303813221F58091DA
:103E6000E800877F8093E8000E94651880915603E0
:103E70008093460318C080915303813AA1F4809146
:103E8000E800877F8093E8008091E80080FFFCCF06
:103E9000809146038093F1008091E8008E778093B3
:103EA000E8000E9465188091E80083FFEBC18091D3
:103EB000530390915403492F50E04A30510508F0C4
:103EC000E1C1FA01E059FF4F0C94F230803821F043
:103ED000823809F0D7C108C08091500390915103F6
:103EE000992389F082600FC0809157038F708730CB
:103EF00008F0C8C18093E9008091EB0085FB88271A
:103F000080F91092E9009091E800977F9093E80083
:103F10008093F1001092F1007CC1282F2D7F09F0D1
:103F2000B1C1882319F0823061F0ACC18091550392
:103F3000813009F0A7C1933009F080E080935103EC
:103F40002EC08091550381112AC0809157038F7034
:103F50002FEF280F263008F095C18093E9002091BB
:103F6000EB0020FF1CC0933021F48091EB008062B5
:103F700014C09091EB0090619093EB0021E030E051
:103F8000A90102C0440F551F8A95E2F74093EA0049
:103F90001092EA008091EB0088608093EB00109211
:103FA000E9008091E800877F8093E8000E9465180F
:103FB00069C1811167C1109155031F778091E3009A
:103FC0008078812B8093E3008091E800877F809345
:103FD000E8000E9465188091E80080FFFCCF809186
:103FE000E30080688093E300111102C082E001C009
:103FF00083E080935B0346C18058823008F042C161
:1040000020915503309156032C3D53E0350779F547
:1040100083E08A838AE289834FB7F894DE0113969E
:1040200020E03EE051E2E32FF0E050935700E491AE
:1040300020FF03C0E295EF703F5FEF708E2F90E09E
:10404000EA3010F0C79601C0C0968D939D932F5F04
:10405000243149F74FBF8091E800877F8093E800C3
:104060006AE270E0CE0101960E94B918C0C080914A
:10407000570390915803432F552743305105B1F012
:1040800068F44130510509F40CC14230510509F082
:10409000F9C08BE590E0E9E3F5E057C04132510506
:1040A00089F14232510509F43CC0ECC0C90199279D
:1040B00081309105B9F070F082309105D9F0039705
:1040C00009F0E0C0E6EAF5E0E4918E2F90E0E6EA40
:1040D000F5E038C0E2EEF5E0E4918E2F90E0E2EEFC
:1040E000F5E030C0E6EDF5E0E4918E2F90E0E6EDEE
:1040F000F5E028C0E4ECF5E0E4918E2F90E0E4ECEC
:10410000F5E020C08330910508F0BCC0880F991FEE
:10411000FC01E35CFE4F0190F081E02D89E090E02E
:1041200014C08330910508F0ADC0FC01EE0FFF1FF5
:10413000E95CFE4F0190F081E02DDC01AC5CBE4FEC
:104140008C9190E0009709F49DC02091E800277FB2
:104150002093E8002091590330915A03281739071A
:1041600008F4C90140E0009789F120915B03222304
:1041700009F43DC02530D9F12091E80023FD37C076
:104180002091E80022FD2FC02091E80020FFEBCF16
:104190004091F3002091F20030E0342B009759F069
:1041A0002830310540F444914093F1003196019755
:1041B0002F5F3F4FF3CF41E02830310509F040E059
:1041C0002091E8002E772093E800CDCF4111CDCF8C
:1041D0000AC080915B03882351F0853041F08091C3
:1041E000E80083FD04C08091E80082FFF2CF809157
:1041F000E8008B778093E80045C0803809F042C022
:104200008091E800877F8093E8008091520380933B
:10421000F1008091E8008E77C7CE811133C0809184
:104220005503909156039927029764F58091E80011
:10423000877F8093E80010915503109352030E94EA
:104240006518111106C08091E30087FD02C081E06E
:1042500001C084E080935B0342E061EC81E00E9456
:10426000841842E261EC84E00E94841842E261EC2E
:1042700082E00E94841842E260EC83E00E9484188D
:1042800080915B038091E80083FF10C08091E8007B
:10429000877F8093E8008091EB0080628093EB0041
:1042A00005C082E190E0E4E9F5E04FCFAA960FB6B1
:1042B000F894DEBF0FBECDBFDF91CF911F9108955F
:1042C0001F920F920FB60F9211242F933F934F938B
:1042D0005F936F937F938F939F93AF93BF93CF938E
:1042E000DF93EF93FF93C091E900CF708091EC00D2
:1042F000D82FD17080FDD0E81092E9008091F000B5
:10430000877F8093F00078940E947E1E1092E900CF
:104310008091F00088608093F000CD2BCF70C09327
:10432000E900FF91EF91DF91CF91BF91AF919F9104
:104330008F917F916F915F914F913F912F910F904E
:104340000FBE0F901F901895E8EDF0E080818E7FF2
:1043500080831092E2001092DA001092E100A0EE49
:10436000B0E08C9181608C9380818F77808319BCC1
:10437000A7EDB0E08C918E7F8C9380818F7E8083BF
:10438000109245030895CF92DF92EF92FF920F9320
:104390001F93CF93DF93C8EDD0E088818F7E888311
:1043A000E7EDF0E080818160808384E082BF81E07E
:1043B0008093450388818E7F888302EE10E0F801A8
:1043C00010821092DA0081EEC82ED12CF6011082F4
:1043D00088818F77888388818068888388818F7DB2
:1043E000888319BC10925B03109252031092510300
:1043F0001092500390EEE92EF12CF70180818B7F13
:10440000808388818160888342E060E080E00E9450
:104410008418F60180818E7F8083F801808181601D
:104420008083808188608083F70180818E7F808394
:10443000888180618883DF91CF911F910F91FF90D8
:10444000EF90DF90CF9008951F920F920FB60F92CA
:1044500011242F933F934F935F936F937F938F9389
:104460009F93AF93BF93EF93FF938091E10082FFFF
:1044700009C08091E20082FF05C08091E1008B7F3E
:104480008093E1008091DA0080FF2AC08091D800FB
:1044900080FF26C08091DA008E7F8093DA008091C1
:1044A000D90080FF18C080E189BD82E189BD09B4CF
:1044B00000FEFDCF81E080935B0380914503811175
:1044C0000FC00E94A4210E94C3218091E200846059
:1044D0008093E20005C019BC10925B031092450363
:1044E0008091E10080FF17C08091E20080FF13C03F
:1044F0008091E2008E7F8093E2008091E2008061F3
:104500008093E2008091D80080628093D80019BC2B
:1045100085E080935B038091E10084FF30C080914F
:10452000E20084FF2CC080E189BD82E189BD09B42D
:1045300000FEFDCF8091D8008F7D8093D8008091C0
:10454000E1008F7E8093E1008091E2008F7E809376
:10455000E2008091E20081608093E200809152034A
:10456000882311F084E007C08091E30087FD02C03A
:1045700081E001C083E080935B0380915B038091C5
:10458000E10083FF27C08091E20083FF23C0809178
:10459000E100877F8093E10082E080935B031092CB
:1045A00052038091E1008E7F8093E1008091E200D0
:1045B0008E7F8093E2008091E20080618093E20030
:1045C00042E060E080E00E9484188091F000886002
:1045D0008093F000FF91EF91BF91AF919F918F91E8
:1045E0007F916F915F914F913F912F910F900FBEEF
:1045F0000F901F9018952091E4003091E50095E60A
:104600004091EC00842F817040FF23C08091E8002E
:1046100080FD1DC080915B03882399F0853099F05F
:104620008091EB0085FD11C04091E4005091E500C0
:104630002417350729F3915011F09A01E1CF84E056
:10464000089582E0089583E0089581E0089580E070
:1046500008954091E80042FFDDCF0895EF92FF9268
:104660000F931F93CF93DF937C018B010E94FB225A
:10467000811119C0E70101151105A1F08091E80031
:1046800085FD0AC08091E8008E778093E8000E9443
:10469000FB22882381F307C089918093F1000150A8
:1046A0001109E9CF80E0DF91CF911F910F91FF9029
:1046B000EF900895CF9320915B032430F9F4C091DB
:1046C000E900CF703091EC00232F217030FD20E8FD
:1046D000C22B22E02093E9002091E80020FF0BC0CC
:1046E00040E050E060E270E00E942E238091E800FC
:1046F0008E778093E800CF70C093E900CF91089542
:1047000080E008959091530192FF0DC0282F2871E9
:10471000283019F4877F846006C0282F2471243044
:1047200011F48B7F886093FF0DC0282F28712831EA
:1047300019F4877E846106C0282F2471243111F476
:104740008B7E88612091540120FF0DC0382F387175
:10475000383019F4877F816006C0382F31713130CD
:1047600011F48E7F886021FF0DC0282F2871283119
:1047700019F4877E816106C0282F2171213111F43F
:104780008E7E886194FD877E0895F894E82FE295E7
:10479000EF70F0E031A1282F2F7081E090E001C090
:1047A000880F2A95EAF7982F9095932391A392A1C9
:1047B000892B82A3789408958F929F92AF92BF9293
:1047C000CF92DF92EF92FF920F931F93CF93DF93DD
:1047D000CDB7DEB72A970FB6F894DEBF0FBECDBFB8
:1047E000AE014F5F5F4F7A018AE0FA0111928A951C
:1047F000E9F703E211E06A01AA24A394B12CF801BD
:1048000080818F3F09F447C0F894E82FE295EF705C
:10481000F0E021A18F70A50102C0440F551F8A95B9
:10482000E2F7CA01922F982B91A392A18095892338
:1048300082A3789400C0E8E2F1E021E030E0812C2E
:10484000912C41914F3F89F0A42FA295AF70B0E019
:1048500090968C9190E04F7002C0959587954A95FF
:10486000E2F780FD02C0C90102C080E090E0882A22
:10487000992A220F331F51E0E433F50711F7F801AD
:1048800080818F3F11F00E94C523F0EAFA95F1F77D
:10489000F601918280820F5F1F4FF2E0CF0ED11C94
:1048A00041E00832140709F0AACF4AE050E0B7010E
:1048B00089E491E00E94FF3011E0009709F410E0D4
:1048C000892B89F08AE0F701A9E4B1E001900D920B
:1048D0008A95E1F781E08093C1030E94701990935B
:1048E000C0038093BF038091C103882391F180911D
:1048F000BF039091C0030E946119059750F1809108
:10490000490190914A0190936E0180936D018091CD
:104910004B0190914C019093700180936F018091B5
:104920004D0190914E01909372018093710180919D
:104930004F01909150019093740180937301809185
:1049400051019091520190937601809375011092DC
:10495000C103812F2A960FB6F894DEBF0FBECDBFDC
:10496000DF91CF911F910F91FF90EF90DF90CF904B
:10497000BF90AF909F908F900895CF93DF93823830
:10498000910569F1B0F48133910509F46FC048F4E1
:104990008932910509F465C08A32910509F46BC02A
:1049A0006FC08533910509F457C089339105B9F07B
:1049B00067C0833E910571F138F4803E9105B1F0F6
:1049C000823E910511F15CC0863E9105B9F1873EAA
:1049D0009105C9F1843E910509F052C024C020918F
:1049E000530120FD2EC121FD2CC14AC080915301ED
:1049F00080FD21C18091540180FF23C1809153012A
:104A000084FD16C183EE90E030C18091530182FF96
:104A100015C1F4CF8091530182FD10C180915401E2
:104A200080FD0FC1EBCF8091540181FF10C18091B7
:104A3000530184FDFDC087EE90E017C180915301C2
:104A400083FF02C1F4CF8091530183FDFDC08091AB
:104A5000540181FDFCC0EBCF8091530185FDFAC06C
:104A6000FCC08091530185FDF8C0F4C080915301D2
:104A700086FDF6C0F8C08091530186FDF4C0F0C0F9
:104A8000811522E5920790F5811531E5930708F02D
:104A90009BC08F3F910509F0C8F4803F910508F055
:104AA00070C0853A910550F48430910508F0DDC05E
:104AB000019709F0BDC081E090E0D7C09C01205E65
:104AC00031092830310508F0B3C0CFC0811540E569
:104AD000940708F05BC0811520E4920708F053C0EA
:104AE000811530E2930708F4C0C0A2C0EC01811523
:104AF00046E5940718F5C11585E5D80708F07DC08F
:104B0000C11524E5D20708F073C0AE0143705527E4
:104B10002C2F26952695C115D34508F05AC081E063
:104B200090E002C0880F991F4A95E2F740E2249F67
:104B300090011124822B932B9C6897C081154AE524
:104B4000940778F4C11589E5D80708F05FC0C1154E
:104B500028E5D20708F46CC09C2F8827806F906AE4
:104B600084C090568115904208F062C08D2F8F71DD
:104B70000E948223282F2F71CE0199279062922BB9
:104B800074C0906572C09F70906A6FC09C0174E0A1
:104B9000369527957A95E1F7922F9370482F4370B9
:104BA00021E030E002C0220F331F4A95E2F73C6853
:104BB000392B8F70982F9695969540E2949FC0015F
:104BC0001124822B932B51C0982F8827816F906AD4
:104BD0004CC081E090E002C0880F991F4A95E2F72F
:104BE00040E2249F90011124822B932B9A683DC0B0
:104BF0009C2F8827846F906A38C08C2F0E94822354
:104C00008F7190E0982F882790622FC08C2F8F7023
:104C10000E94822394E0D695C7959A95E1F7CF70CC
:104C2000D0E0DC2FCC27D0699E01282BC9011DC004
:104C300080E090E01AC089E390E017C082EE90E037
:104C400014C080EE90E011C086EE90E00EC084EEBD
:104C500090E00BC089E290E008C085E390E005C0D9
:104C60008AE290E002C081E390E0DF91CF91089565
:104C7000CF9384E090E00E948030C82F82E290E0E1
:104C80000E9480302C2F30E0A901582BCA01CF910F
:104C9000089569EE7EEF80E090E00E94AC3060E025
:104CA00082E090E00E948E3060E083E090E00E941D
:104CB0008E301092BE0360E084E090E00E948E305F
:104CC00060E082E290E00E948E3060E085E090E05B
:104CD0000E948E3060E086E090E00E948E306FEFA0
:104CE00087E090E00E948E3040E050E0BA0188E01A
:104CF00090E00E94A03060E08DE090E00E948E3055
:104D000040E050E0BA0188E190E00E94A03060E00D
:104D100087E190E00E948E3040E050E0BA018CE1E3
:104D200090E00E94A03060E070E080E290E00E949D
:104D3000AC3040E050E0BA0188E190E00E94A03041
:104D400080E00E94D12A0E94EF2A40E050E0BA01A0
:104D50008FE090E00E94A03040E050E0BA0183E193
:104D600090E00C94A0308091BD03882331F0109224
:104D7000BD031092BC031092BB030895CF93909192
:104D8000540192FD0DC09091BD03981749F0C82FB2
:104D90000E9470199093BC038093BB03C093BD0322
:104DA000CF910895809590918B02892380938B02F7
:104DB0000895809590919901892380939901089590
:104DC00090919901892B8093990108951092B203D3
:104DD0001092B1031092B00308952091B203809510
:104DE00082238093B203982F977099F430E0482F74
:104DF000082E000C550B2417350759F090915401DB
:104E000092FD07C08595859585950E9465130C9444
:104E1000E6260895CF93C0915401C2FB992790F9DB
:104E2000981799F080FBC2F9C09354016091530127
:104E300084E090E00E948E306C2F82E290E00E942D
:104E40008E3082E0CF910C94ED26CF910895909111
:104E5000540192FD10C098E0899F90011124262BE7
:104E60002093B2030E9471130E9470199093B103B2
:104E70008093B00308950C9471138091680290910F
:104E80006902892B89F00E9470192091BB0330912F
:104E9000BC03AC01421B530B81E0209168023091AE
:104EA00069024217530708F480E0817008959091D9
:104EB000990180918B02892B80935D038091BD03C2
:104EC000882301F18091680290916902892B29F071
:104ED0000E943D2781110E94B32690915D0380912D
:104EE000BD03892B80935D03EFE5F3E097E080E05D
:104EF000915029F021912223D9F38F5FF9CF8111AD
:104F00000E94B32648E050E063EB73E08DE593E048
:104F10000E94FF30892BA9F088E0EDE5F3E0A3EBD8
:104F2000B3E001900D928A95E1F7E0913E03F09194
:104F30003F03309731F00280F381E02D8DE593E05F
:104F4000099408958091AF0381111092AF030895E1
:104F50002091AE0390916D032917B1F030E0F90173
:104F600053E0EE0FFF1F5A95E1F7E259FC4F5181D4
:104F7000561306C05081581303C05281541306C003
:104F80002F5F3F4F2770E8CF80E0089581E00895BC
:104F90008091AE0390916D03891719F08F5F877030
:104FA000FBCF0895CF92DF92EF92FF920F931F9362
:104FB000CF93DF9380916A0382958F7009F05CC074
:104FC00080916703882309F457C0C091AE03809194
:104FD0006D03C81709F450C0F0906503E0906603B4
:104FE000C0906803D0906903A6016E2D8F2D0E949A
:104FF000B81AD0E081113DC08E0183E0000F111F6F
:105000008A95E1F7F801E259FC4F81818E1131C098
:1050100080818F112EC0828181112BC0E380F480AA
:10502000EC18FD0860E085E693E00E94BF2D8091BA
:105030007E0290917F02E816F906D8F480916A0307
:105040008F70806180936A03F801ED58FC4F808176
:105050008F708061808385E693E00E948503DF91F5
:10506000CF911F910F91FF90EF90DF90CF900C9414
:10507000C8272196C770ABCFDF91CF911F910F91B9
:10508000FF90EF90DF90CF900895CF93DF9300D003
:1050900000D01F92CDB7DEB7909396018093950113
:1050A000811520E2920748F40F900F900F900F9017
:1050B0000F90DF91CF910C9434308EEF89838A83E7
:1050C0001B820E9470198160782F9D838C83498197
:1050D0005A816B818D810E94CD2D0F900F900F9082
:1050E0000F900F90DF91CF910895CF93DF9300D071
:1050F00000D01F92CDB7DEB79093960180939501B3
:10510000811520E2920748F40F900F900F900F90B6
:105110000F90DF91CF910C944E308EEF89838A836C
:1051200081E08B830E9470198160782F9D838C832E
:1051300049815A816B818D810E94CD2D0F900F90F6
:105140000F900F900F90DF91CF9108950F931F93C1
:10515000CF93DF938C01EB0167ED73E08C2F0E94FE
:105160005E1E892B09F046C08091840290918502D1
:105170000E94471CDD27C153DC4F8881F801108253
:105180001882833079F048F4813041F1823091F512
:105190008091D9039091DA0309C0843051F08530B1
:1051A000E9F028C08091DB039091DC030097B1F017
:1051B0001BC08091DD039091DE030097A9F420913C
:1051C000D7033091D8038091D9039091DA03211548
:1051D000310541F0009741F4C90106C08091D70321
:1051E0009091D803009731F0DF91CF911F910F91EB
:1051F0000C944528DF91CF911F910F910895CF9383
:10520000DF93EC010E9475288091840290918502C1
:105210000E94471CCE01DF91CF910C9445280F933B
:105220001F93CF93DF938C01862F67ED73E00E946D
:105230005E1E892BD1F4C091D703D091D80320975B
:10524000A1F0F8018081833039F4CE010E94FF285B
:10525000CE010E94FF2802C0843038F0CE01DF91D9
:10526000CF911F910F910C94FF28DF91CF911F9147
:105270000F9108950F931F93CF93DF938C01EB0150
:1052800067ED73E08C2F0E945E1E892B09F06DC0C4
:10529000DD27F8018081813041F49185911115C09D
:1052A0009285992391F082E010C0823049F4F80190
:1052B0008185811107C08285811106C083E005C008
:1052C00086E003C085E001C084E0C153DC4F8883E1
:1052D0008330B1F028F4813071F0823031F045C074
:1052E0008430A9F0853079F140C08091D903909144
:1052F000DA030097A1F58091D7039091D80320C0DD
:105300008091DB039091DC030097E9F028C0809145
:10531000DD039091DE03009711F58091D703909102
:10532000D803009749F00E94FF288091D9039091FB
:10533000DA03009781F013C08091D9039091DA03CA
:10534000009799F00CC08091D7039091D8030097F3
:1053500061F00E94FF288091D7039091D803DF91DC
:10536000CF911F910F910C947528DF91CF911F91D0
:105370000F9108950F931F93CF93DF93843058F5C7
:10538000653048F54C3038F521159CE5390731F486
:10539000E0919301F0919401EF2BE9F08901C42F82
:1053A000D0E0CC0FDD1F98E1699FC00DD11D112405
:1053B00098E7899FC00DD11D1124612FCE018796DA
:1053C0000E948E30602FCE018896DF91CF911F9181
:1053D0000F910C948E30DF91CF911F910F91089512
:1053E0000F931F93CF93DF93843008F56530F8F463
:1053F0004C30E8F4C42FD0E0CC0FDD1F28E1629FD1
:10540000C00DD11D112438E7839FC00DD11D11247B
:10541000CE0187960E94803090E0182F0027CE01A1
:1054200088960E9480309801282BC90102C080E034
:1054300090E0DF91CF911F910F910895CF92DF926D
:10544000EF92FF920F931F93CF93DF93CDB7DEB709
:105450002A970FB6F894DEBF0FBECDBF80E5E1EE10
:10546000F3E0DF011D928A95E9F788E3E2E2F2E0DA
:10547000DF011D928A95E9F781EEC82E83E0D82ED0
:105480007F0109E712E0F701D182C0824AE050E0D3
:10549000B801CE0101960E94703088E0FE0131967D
:1054A000D60101900D928A95E1F789859A85D701F9
:1054B00013969C938E931297BAE0CB0ED11CE7E023
:1054C000EE0EF11C065F1F4F093CF2E01F07D9F6F4
:1054D0002A960FB6F894DEBF0FBECDBFDF91CF91F5
:1054E0001F910F91FF90EF90DF90CF9008958F92D2
:1054F0009F92AF92BF92CF92DF92EF92FF920F9363
:105500001F93CF93DF93CDB7DEB72A970FB6F894EA
:10551000DEBF0FBECDBF0EE812E0E12CF12C8FE014
:10552000C82E89E2D82E9AE3A92E99E2B92E26EA4E
:10553000822E28E2922EF801D182C082B382A2820A
:1055400095828482F58AE48ABE016F5F7F4F8E2D3B
:105550000E945E1E892B29F489859A85F801938B18
:10556000828BFFEFEF1AFF0A0A5E1F4F88E0E816F2
:10557000F10409F72A960FB6F894DEBF0FBECDBF2F
:10558000DF91CF911F910F91FF90EF90DF90CF901F
:10559000BF90AF909F908F90089586E290E00C941A
:1055A0008E30CF93C82F811102C06FEF01C06AEA1D
:1055B00083E290E00E948E30C11102C06FEF01C003
:1055C0006BE084E290E00E948E30C11102C06FEF68
:1055D00001C06BE685E290E0CF910C948E3080E0C4
:1055E0000E94D12A60E070E0CB010E94CD2A0E9487
:1055F000C71D0E949B1D81E00C94D12A83E290E09C
:105600000E9480308A3A81F484E290E00E948030E7
:105610008B3051F485E290E00E94803091E08B362F
:1056200009F090E0892F01C080E0817008950E9408
:1056300070192091CB03211104C02091CC032223A7
:1056400021F09093C8038093C7032091CD032111CB
:1056500004C02091CE03222321F09093C6038093AF
:10566000C503E0913E03F0913F03309749F082E09B
:105670008093C9030480F581E02D89EC93E00994BF
:105680000895803F39F48091CC0387FF6AC010925F
:10569000CC0367C0813F29F48091CC031816BCF37A
:1056A00060C09091CB03823F29F497FF5AC01092BB
:1056B000CB0357C0833F19F41916CCF352C0909115
:1056C000CD03893F31F419160CF04BC01092CD0375
:1056D00048C08A3F19F497FF44C0F8CF8B3F39F494
:1056E0008091CE0387FF3DC01092CE033AC08C3F1D
:1056F00029F48091CE031816BCF333C0843F21F403
:105700008091CA038E7F17C0853F21F48091CA0320
:105710008D7F11C0863F21F48091CA038B7F0BC01F
:10572000873F21F48091CA03877F05C0883F31F409
:105730008091CA038F7E8093CA0313C08D3F21F4EA
:105740008091C4038E7F0BC08E3F21F48091C403EF
:105750008D7F05C08F3F29F48091C4038B7F809398
:10576000C4038091CB03811106C08091CC038111C9
:1057700002C01092C3038091CD03811106C08091B5
:10578000CE03811102C01092C20308958091C40318
:1057900080FF08C060910F0170E075956795759561
:1057A000679521C081FF06C060910F0170E075957B
:1057B000679519C082FF04C060910F0170E010C0AE
:1057C0009091C203992399F060910E019617A0F76A
:1057D00080910F01899FC001112470E00E94DE308A
:1057E0006038710540F46115710519F406C061E077
:1057F00070E0862F08958FE7089581E008958091E5
:10580000C40320916E0230916F0280FF0CC0809122
:105810001301829FB001839F700D112476956795C7
:10582000769567952FC081FF0AC080911301829FF2
:10583000B001839F700D11247695679523C082FF78
:1058400008C080911301829FB001839F700D1124C5
:1058500019C04091C303411102C0B90113C0609146
:105860001201461770F780911301849FA001112443
:10587000429FC001439F900D529F900D112470E0F4
:105880000E94CA306038710528F46115710521F055
:10589000862F08958FE7089581E00895803F21F4D1
:1058A0000E94FF2B819504C0813F29F40E94FF2BA9
:1058B0008093CC030895823F21F40E94FF2B8195B1
:1058C00004C0833F29F40E94FF2B8093CB030895EB
:1058D000893F19F40E94C62B05C08A3F31F40E940B
:1058E000C62B81958093CD0308958B3F21F40E94B0
:1058F000C62B819504C08C3F29F40E94C62B80934F
:10590000CE030895843F21F48091CA03816017C0BB
:10591000853F21F48091CA03826011C0863F21F443
:105920008091CA0384600BC0873F21F48091CA0331
:10593000886005C0883F31F48091CA0380618093FC
:10594000CA0308958D3F21F48091C40381600BC088
:105950008E3F21F48091C403826005C08F3F29F4FB
:105960008091C40384608093C40308959C013A9598
:1059700021153F4130F5BC0166277270AC01442708
:1059800054709C012227387094FF0FC090FF02C012
:1059900080E101C080E0672B09F08062452B09F0AF
:1059A0008064232B79F080680895892F8170672B9C
:1059B00009F08260452B09F08460232B19F0886080
:1059C000089580E00895AF92BF92CF92DF92EF9258
:1059D000FF920F931F93CF93DF93EC018AE0A82EE1
:1059E0002881222309F497C0213009F041C0898120
:1059F000813039F48E010E5F1F4F8A810E94DC14C2
:105A000008C0823041F48E010E5F1F4F8A810E94D0
:105A10005614E8017EC0833039F48E010E5F1F4FAB
:105A20008A810E94D413F5CF843011F0219671C081
:105A30002A81229680E090E030E0205331092A301C
:105A4000310558F4A89EA001A99E500D1124C9014A
:105A5000840F951F21962881EFCF009709F459C034
:105A6000EFE9FFE03197F1F700C000000197F5CFB3
:105A7000E22FF0E0EA5EF94FB490822F869586958A
:105A8000869590E0FC01EA5FF94FE4902770F12CD5
:105A9000022E02C0F594E7940A94E2F7F1E0EF22B7
:105AA000FF24FC01EA50FA4FC490D12C022E02C010
:105AB000D594C7940A94E2F731E0C322DD24FC01B7
:105AC000EA51FA4F049110E002C0159507952A9506
:105AD000E2F701701127E114F10419F081EE0E9440
